:100000000C942E020C944B020C944B020C944B0259
:100010000C944B020C944B020C944B020C944B022C
:100020000C944B020C944B020C94EE190C94AA19EC
:100030000C94EB1A0C944B020C944B020C944B0254
:100040000C944B020C944B020C944B020C944B02FC
:100050000C944B020C94C71A0C944B020C944B0258
:100060000C944B020C944B020C944B020C944B02DC
:100070000C944B020C944B020C944B020C944B02CC
:100080000C944B020C944B020C944B020C944B02BC
:100090000C944B020C944B020C944B020C944B02AC
:1000A0000C944B020C944B020C944B0229003A0026
:1000B0003B003C003D003E003F004000410042004C
:1000C000430044004500625D4C00490035001E00BD
:1000D0001F0020002100220023002400250026000C
:1000E00027002D002E0000002A004A002B000000EF
:1000F00014001A000800150017001C0018000C005E
:10010000120013002F00300031004B0039000000B6
:1001100004001600070009000A000B000D000E0085
:100120000F0033003400280000004E000000E10002
:100130001D001B000600190005001100100036000C
:10014000370038000000E50052004D00E000E200FA
:10015000E300E0000000000000002C0000000000B0
:1001600000000151E400500051004F00005CDF5CD2
:10017000000000000000000000000000000000007F
:1001800000000000000000000000AE00A50000001C
:10019000000000000000000000000000000000005F
:1001A00000000000000000000000A80000000000A7
:1001B000000000000000000000000000000000003F
:1001C000C35CCB5CCA5CC45C00004600000000005D
:1001D000000000000000000000000000000000001F
:1001E0000000BD00A90000000000000000000000A9
:1001F00000000000000000000000000000000000FF
:10020000BE00AA0000000000000000000000000086
:1002100000000000000000000000A7000000000037
:1002200000000151A60000000000000000010101D3
:1002300001010101010102020202020202020203A3
:100240000303030303030304040404040404050573
:100250000505050606060606070707070708080836
:1002600008090909090A0A0A0B0B0B0C0C0C0D0DE5
:100270000D0E0E0E0F0F0F1010111111121213137D
:100280001414151516161717181819191A1A1B1BF6
:100290001C1D1D1E1E1F2020212222232424252652
:1002A00026272829292A2B2C2D2D2E2F303132328A
:1002B000333435363738393A3B3C3D3E3F40414296
:1002C000434445464748494A4C4D4E4F505153547C
:1002D000555658595A5B5D5E5F6162646566686930
:1002E0006B6C6D6F7072737577787A7B7D7E8082B0
:1002F000838587888A8C8E8F91939596989A9C9EF9
:10030000A0A2A3A5A7A9ABADAFB1B3B5B7BABCBE08
:10031000C0C2C4C6C9CBCDCFD1D4D6D8DBDDDFE2D5
:10032000E4E7E9EBEEF0F3F5F8FAFDFF05010980EB
:10033000A101850319012AB700150126B70095010F
:1003400075108100C0050C0901A101850419012A5D
:10035000A002150126A002950175108100C00501BB
:100360000906A1018506050719E029E71500250101
:100370009508750181020507190029EF150025016F
:1003800095F075018102050819012905950575018A
:100390009102950175039101C005010906A10105AE
:1003A0000719E029E71500250195087501810295D7
:1003B00001750881010507190029FF150026FF00B6
:1003C000950675088100050819012905950575012F
:1003D0009102950175039101C009023B00020100E1
:1003E000A0FA090400000103010100092111010024
:1003F00001224000070581030800010904010001F2
:1004000003000000092111010001226D000705828F
:1004100003200001120100020000000884330100E3
:1004200001000102000124034C00690070006B0010
:1004300020007300680069006700750061006E00AD
:100440006700200031002E00300000000A034C003D
:10045000690070006B0000000403090411241FBE32
:10046000CFEFDAE0DEBFCDBF12E0A0E0B1E0E0EE1A
:10047000FCE302C005900D92AA3BB107D9F725E035
:10048000AAEBB2E001C01D92AF30B207E1F70E94C3
:10049000121B0C94581E0C94000090910905937047
:1004A00061F081110BC094609093090510921201C4
:1004B000809108058160809308050895843010F0CC
:1004C0009C60F2CF880F880F982BEECF9091090592
:1004D000937071F080930A0560930B05453B08F01B
:1004E00044EB40930C0580910805816080930805DA
:1004F0000895E8EDF0E080818E7F80831092E20025
:100500001092DA001092E100A0EEB0E08C918160D0
:100510008C9380818F77808319BCA7EDB0E08C919C
:100520008E7F8C9380818F7E80831092D204089579
:100530002091E4003091E50095E6A9012091EC00BE
:10054000822F817020FF06C08091E80080FF06C0E6
:1005500080E008952091E80022FD1AC08091F70400
:10056000882389F0853089F08091EB0085FD0FC0EC
:100570002091E4003091E50042175307F9F29150C1
:10058000E1F684E0089582E0089583E0089581E033
:100590000895EF92FF920F931F93CF937C018B01ED
:1005A0000E949802C82F811117C08091E80085FD34
:1005B0000BC08091E8008E778093E8000E9498023B
:1005C000882399F3C82F08C0F70181917F01809398
:1005D000F1000150110949F78C2FCF911F910F9114
:1005E000FF90EF9008958091F90487FF13C08091E8
:1005F000E80082FF06C08091E8008B778093E800D6
:1006000004C08091F7048111F2CF08958091F7041E
:100610008823D9F38091E80080FFF8CF8091E8002B
:100620008E77ECCF982F9093E900242F762F50E00F
:10063000891731F07091EC002091ED005091F0009D
:1006400021FD07C09F5F973071F78093E90081E03B
:1006500008953091EB003E7F3093EB003091ED0038
:100660003D7F3093ED003091EB0031603093EB0033
:100670007093EC002093ED005093F0002091EE0079
:1006800027FDE0CF80E00895B0E0A0E0EAE4F3E0E9
:100690000C94C31DC8EDD0E088818F7E8883E7ED80
:1006A000F0E080818160808384E082BF81E080937C
:1006B000D20488818E7F888302EE10E0F8011082D8
:1006C0001092DA0081EEC82ED12CF60110828881BA
:1006D0008F77888388818068888388818F7D8883ED
:1006E00019BC1092F7041092F8041092F6041092BC
:1006F000F50490EEE92EF12CF70180818B7F808349
:1007000088818160888342E060E080E00E9412037B
:10071000F60180818E7F8083F801808181608083F3
:10072000808188608083F70180818E7F80838881CB
:1007300080618883CDB7DEB7E8E00C94DF1DFC0153
:100740008091FF049091000586179707A0F061152E
:10075000710529F49091E8009E779093E80090E06D
:100760006115710551F4911108C08091E80082FF74
:1007700034C080E00895BC01F2CF8091F704882353
:10078000C1F18530C1F18091E80083FD30C08091D6
:10079000E80082FDEACF8091E80080FFE1CF809100
:1007A000F3002091F200382F6115710519F02830FF
:1007B000310558F091E02830310509F090E02091A2
:1007C000E8002E772093E800CBCF81918093F10051
:1007D000615071092F5F3F4FE7CF8091F704882365
:1007E00041F0853041F08091E80083FFBECF81E089
:1007F000089582E0089583E0089508950895809112
:10080000D404089587E797E7909301088093000840
:1008100088E19AE00FB6F894A895809360000FBE27
:1008200090936000FFCF2FB7F894809101059091CD
:100830000205A0910305B09104052FBF08952091F2
:1008400011012223C9F02091CD0427FF15C0E62F06
:10085000E695E695E695EE31D8F4E80FF92FF11D0F
:10086000677021E030E001C0220F6A95EAF7209519
:100870008281282322830895FC01329608962191D3
:10088000621303C0DF0111971C92E817F907B9F74B
:100890000895209111012223C1F02091CD0427FF5A
:1008A00014C0E62FE695E695E695EE31F8F4E80FEC
:1008B000F92FF11D677021E030E001C0220F6A9529
:1008C000EAF78281822B82830895FC0132962FEF12
:1008D00030E04191641751F02F3F19F4411101C0EC
:1008E000232F3F5F3630A9F72F3F09F40895820F79
:1008F000911D27FD9A95FC01628308952091CA04F9
:100900003091CB042817390771F09093CB04809372
:10091000CA04E091C804F091C904309721F0008422
:10092000F185E02D099508952091C6043091C70402
:100930002817390771F09093C7048093C604E0919B
:10094000C804F091C904309721F00680F781E02DAA
:1009500009950895E091C804F091C904309729F0F1
:100960000190F081E02D0995089580E00895FA0145
:10097000811101C0FB0109950895EAECF3E0818340
:1009800060834283339694E0E63CF907C1F708950B
:10099000FC01EE0FFF1FE80FF91FE653FC4F6183C8
:1009A000408322830895E9E0F5E0248130E1231BB0
:1009B00008F420E024838091080581608093080575
:1009C0000895E9E0F5E0248130E1230F08F42FEFEA
:1009D0002483809108058160809308050895E9E0EB
:1009E000F5E0438120E1421B08F440E0818162810F
:1009F00090E00E9466020895E9E0F5E0438120E17D
:100A0000420F08F44FEF8181628190E00E946602FC
:100A10000895E9E0F5E0628120E1621B08F460E0FE
:100A20008181438190E00E9466020895E9E0F5E04B
:100A3000628120E1620F08F46FEF8181438190E0D1
:100A40000E9466020895E9E0F5E0818143816281B8
:100A50008850990B0E9466020895E9E0F5E08181D3
:100A600090E04381628108960E9466020895809119
:100A7000090586958695815009F483E00E944D0210
:100A8000089580910905869586958F5F843008F0DA
:100A900081E00E944D0208950E94BD0408950E94C5
:100AA000C8040895AF92BF92CF92DF92FF920F9346
:100AB0001F93CF93DF93362F472FE82FF0E0E45DAD
:100AC000FD4F71110FC0E4918E2F2E2F6E2F722FBC
:100AD000DF91CF911F910F91FF90DF90CF90BF904A
:100AE000AF900895C72FD0E02491F22E022F10E08E
:100AF00056E0659FC0011124EFEFF0E0BF010E94B6
:100B00009F1D832F90E0880F991F35E5369FD001F8
:100B1000379FB00D11248A1B9B0B982F990F980FAC
:100B20006F01CC1ADD0AC09ED001C19EB00DD09ECF
:100B3000B00D11248B2F499FA0011124452F55275B
:100B40006F01C41AD50AC09EA001C19E500DD09E4F
:100B5000500D11245F01A91AB108AC9E6001AD9E31
:100B6000D00CBC9ED00C1124CD2CDD24EC19FD0939
:100B7000E09FE001E19FD00DF09FD00D1124ED2FFB
:100B800062307105A1F050F46115710509F49ECF32
:100B90006130710581F0EB2F852F98CF643071059E
:100BA00069F080F06630710509F490CFF4CFE22F40
:100BB0002B2F8D2F8BCFE22F252F88CFEB2F822F3E
:100BC0002D2F84CF2B2F8F2DE52F80CFB0E0A0E0ED
:100BD000ECEEF5E00C94C31D182F80910D018113EC
:100BE00027C090910905937020910C0130E081E0BD
:100BF0009217130609F480E08170809310018091B0
:100C00000E0590910F01981739F080930F0140E085
:100C100060E080E00E944C051130B1F0112351F0EA
:100C2000123009F457C0133009F497C080E02AC08D
:100C300081E0E2CF80911001882321F140E060E063
:100C400080E00E944C05F2CFC0910E0181E1C89F67
:100C5000C02D112401E10C0FF02E053510F034E504
:100C6000F32E60910A0570910B0580910C050E948E
:100C70005205E62ED72EC82ED0E0CF15D8F081E051
:100C80000435A0F690910E019F5F90930E018111A3
:100C90000CC082E08093120180911001811105C087
:100CA000111103C083E080931201CDB7DEB7E8E0F5
:100CB0000C94DF1DFE01EB59FD4F808190910F01D7
:100CC000892331F02C2D4E2D6D2DCE010E944F0524
:100CD0002196D3CFC0910E0181E1C89FC02D112470
:100CE00001E10C0FF02E053510F024E5F22E2091D5
:100CF0000D052695269531E0230F08F42FEF40913E
:100D0000C5035091C60390E080E0429F812D529F21
:100D1000800D911D1124E82ED0E0CF1508F0AFCF43
:100D2000FE01EB59FD4F808190910F01892399F0CD
:100D300070910B05FE01EE0FFF1FE354FE4F608123
:100D40006E1980910C050E945205462F282F672F9F
:100D5000CE010E944F052196E0CFC0910E0181E1A6
:100D6000C89FC02D112401E10C0FF02E053510F0A5
:100D700084E5F82ED0E0CF1508F081CF20E040E0E8
:100D800060E0CE010E944F052196F5CF80E00895E6
:100D9000F894E82FE295EF70F0E031A1282F2F7042
:100DA00081E090E001C0880F2A95EAF7982F90958E
:100DB000932391A392A1892B82A378940895909173
:100DC000CD0492FF06C0282F28712830F9F4877FC0
:100DD000846093FF06C0282F28712831F1F4877EA4
:100DE00084612091CE0420FF06C0382F387138303E
:100DF000D9F4877F816021FF06C0282F2871283110
:100E0000D1F4877E816194FD877E0895282F247117
:100E10002430F9F68B7F8860DCCF282F24712431B1
:100E200001F78B7E8861DDCF382F3171313019F7B2
:100E30008E7F8860E0CF282F2171213121F78E7EAF
:100E40008861E1CF7630B8F46031A8F4E72FF0E0A4
:100E500096E0899FE00DF11D112484E0EE0FFF1F45
:100E60008A95E1F7E60FF11DEE0FFF1FE455FF4FE6
:100E700085919491089580E090E00895CF93DF9359
:100E8000EC0182389105B1F108F040C08133910541
:100E900009F49DC048F58932910509F48DC08A97FF
:100EA00009F49CC0C11522E5D20708F0BDC0C115E8
:100EB00031E5D30708F024C1C83ED10508F0A3C02E
:100EC000C13ED10588F5C83AD10508F08EC0C53AB3
:100ED000D10508F0F6C0C130D10531F1209721F1DC
:100EE000C430D10508F545C08533910509F45FC0CC
:100EF000C997C1F68091CD04837009F036C1809105
:100F0000CE0483FF11C0C9E2D0E00EC0833E91053C
:100F100099F170F4803E910501F1823E910511F640
:100F20008091CD0482FD21C0CE01DF91CF91089543
:100F3000863E910561F1873E910571F1843E9105F0
:100F400009F0B0CF8091CE0481FFEECF8091CD0427
:100F5000C7EED0E084FD0DC0E7CF8091CD0480FDC9
:100F600033C09091CE0490FFDFCFC3EED0E084FF7A
:100F7000DBCFD0E0C0E0D8CF8091CD0482FDF2C0BD
:100F80009091CE0490FDF1C084FFCECFF2CF80913E
:100F9000CD0483FDDDCFC8CF8091CD0483FDE8C0B3
:100FA0009091CE0491FFF0CFC4EED0E0BDCF809100
:100FB000CD0485FFB9CFA7CF8091CD0485FDDBC0DF
:100FC0008091CE0483FFB0CFC9E3D0E0ADCF809154
:100FD000CD0486FFA9CFCAE2D0E0A6CF8091CD0490
:100FE00086FFA2CFC1E3D0E09FCFCF3BD10508F66B
:100FF000C85AD0E0CC0FDD1FC75EDE4F0990D88104
:10100000C02DD46491CFC11540E5D40708F064C069
:10101000C11580E4D80708F05CC0CE019A9581150F
:101020009F4108F481CFA5CFC11536E5D30718F548
:10103000C11545E5D40708F07CC0C11584E5D80783
:1010400008F072C09E01237033279C2F96959695C9
:10105000C115D34508F459C0C1E0D0E002C0CC0F9F
:10106000DD1F2A95E2F730E2939FC0011124C82BBF
:10107000D92BDA6859CFC1158AE5D80778F4C1159C
:1010800029E5D20708F060C0C11538E5D30708F498
:1010900070CFDC2FCC27C06FD06A46CFCE019056E0
:1010A0008115904208F065CF8D2F8F710E94DF0669
:1010B00090E0982F882788279F719C012C2BE901AD
:1010C00041C0C55AD0E0CA5EDE4FC881D0E0D064CE
:1010D0002BCFDF70D06A28CFCE018370992721E013
:1010E00030E002C0220F331F8A95E2F7C695C695FD
:1010F00080E2C89FE0011124C22BD32BDD6814CFFE
:10110000DC2FCC27C16FD06A0FCFC1E0D0E002C086
:10111000CC0FDD1F2A95E2F720E2929FC001112437
:10112000C82BD92BDC6800CFDC2FCC27C46FD06A4A
:10113000FBCE8C2F0E94DF06C82FD0E0DC2FCC27FF
:10114000CC27DF71D062F0CE8C2F8F700E94DF062B
:1011500034E0D695C7953A95E1F7CF709C2FEC0116
:10116000D069E2CEC2EED0E0DFCEC0EED0E0DCCE81
:10117000C6EED0E0D9CEC5E3D0E0D6CE80916803EC
:1011800081111092680308958095909167039823C8
:1011900090936703089580914403909113039813EB
:1011A00001C008958F5F8770FACFB0E0A0E0EBED4B
:1011B000F8E00C94C21D7C010091C3031091C4039C
:1011C0008091690390916A03082B192BCFE0D0E03E
:1011D000CC24C394D12CBC2EC6010C2E02C0880F87
:1011E000991F0A94E2F780239123892B49F42197D0
:1011F00090F7B12C8B2DCDB7DEB7E9E00C94DE1D56
:10120000B7018C2F0E9422070E943E07019779F3B5
:10121000F1CFCF93DF93EC010E94D508BE010E946D
:1012200022070E943E07DF91CF910895963070F516
:10123000803160F520E1929FF0011124E80FF11D4B
:101240006E2F677083E0F695E7958A95E1F7EE0FCC
:10125000FF1FEE0FFF1FE352FD4F50E040E080E024
:10126000219130E0062E02C0369527950A94E2F7C8
:1012700021703327042E01C0220F0A94EAF7822B33
:101280004F5F5F4F4430510559F7089580E008954E
:10129000963090F5803180F520E1929FF001112485
:1012A000E80FF11D2E2F277041E001C0440F2A9551
:1012B000EAF783E0F695E7958A95E1F7EE0FFF1FD1
:1012C000EE0FFF1FE352FD4F30E020E070E0519140
:1012D000DF011197CB01022E02C0969587950A94E3
:1012E000E2F7817081958527842385278C932F5F72
:1012F0003F4F2430310559F70895FC0183819481D3
:10130000892B29F08081918189238F3F51F480E0DE
:101310000895843FE1F717C0883EA8F0813FB9F7F0
:1013200012C0808191810E94090992959F70963028
:1013300099F358F4925F9F70923048F7803F19F00C
:1013400040F7883E20F781E008959A5FF4CF8093BC
:10135000CF047093D1046093D0048091F70484305B
:1013600001F582E08093E9008FEF9091E8008150D1
:1013700095FD06C09AE69A95F1F700C08111F5CF68
:101380008091E80085FF0DC050E040E063E070E030
:101390008FEC94E00E94C9028091E8008E778093E0
:1013A000E8000895BC0184E00E94A7090895BC01EB
:1013B00083E00E94A7090895CF93DF93EC01809109
:1013C00011018823B1F18091CD0487FF32C060E222
:1013D00082E08093E9008FEF9091E800815095FDC5
:1013E00006C09AE69A95F1F700C08111F5CF809179
:1013F000E80085FF1BC08091110170E050E040E0E3
:10140000811104C050E040E068E070E0CE010E942D
:10141000C9028091E8008E778093E80080E2FE01A7
:10142000A5EDB4E001900D928A95E1F7DF91CF919F
:10143000089568E081E0CDCF3E9A38B13F7B28B176
:1014400020644FB7F8948AEC93E0FC015191CF01EE
:1014500068E028B957FF38B9550F000000C038B907
:101460006A95B9F7F4E0863C9F0779F74FBF8FE2A2
:1014700092E00197F1F700C0000008958F929F92CB
:10148000AF92BF92CF92DF92EF92FF921F93CF93D2
:10149000DF938091BF039091C003A091C103B091ED
:1014A000C2032FB7F8948090010590900205A09098
:1014B0000305B09004052FBF75016401C81AD90A4D
:1014C000EA0AFB0A2FB7F8944091010550910205F2
:1014D00060910305709104052FBF4093BF035093A3
:1014E000C0036093C1037093C20310919603E6E9B1
:1014F000F3E0C12FD0E00197AF4FBF4F8819990992
:10150000AA09BB091D1327C0C09396038091C90384
:10151000C0E0811108C080910905C82FC37019F07F
:10152000C82FC695C695809112018130A9F18823F4
:1015300029F1823009F44EC1833009F456C1DF919C
:10154000CF911F91FF90EF90DF90CF90BF90AF9021
:101550009F908F900895218D328D4901B12CA12C3F
:1015600088159905AA05BB0520F4C150DF5F3296A6
:10157000C9CF2C0D3D1D328F218FF8CF10920E0157
:101580004093C5035093C6036093C7037093C80389
:1015900081E080931201D3CF8C2F0E94E605CC23EB
:1015A00071F2D0910E0181E1D89FD02D1124CFEEA0
:1015B000CD0F0E94AA0481FF0BC088EE8D0F8231EF
:1015C00038F422E442E462E488E190E00E944F05AE
:1015D0008091C3039091C403292F3327211531052E
:1015E00009F497C0C90128E0AC0174E0569547950D
:1015F0007A95E1F74115510511F02C5FCA01AC0154
:1016000056954795569547954115510511F02E5F12
:10161000CA0196958795892B09F491CF21118FCF17
:10162000C53408F078C0D43438F022E442E462E4EF
:1016300084E490E00E944F05D53408F06FC0C530B7
:1016400008F474C0C73008F080C0D63008F075C008
:10165000DF3238F022E442E462E48FE290E00E945C
:101660004F05D03338F022E442E462E480E390E0B6
:101670000E944F05D13338F022E442E462E481E372
:1016800090E00E944F05D23338F022E442E462E455
:1016900082E390E00E944F05D33508F482C022E433
:1016A00042E462E483E590E00E944F05C43408F010
:1016B0005BC022E442E462E483E490E00E944F05D0
:1016C000C53308F051C022E442E462E484E390E0D0
:1016D0000E944F05C33208F475C0C43208F044C0FC
:1016E000D33248F022E442E462E483E290E00E94D4
:1016F0004F05D533F0F5C43108F045C0D33108F4B7
:1017000045C022E442E462E483E190E00E944F0598
:101710003DC020E069CFC53409F098C022E442E41E
:1017200062E485E490E00E944F0589CF22E442E420
:1017300062E484E090E00E944F0522E442E462E427
:1017400086E090E00E944F0583CFC03308F480CF3D
:10175000C03309F486CFC13309F48CCFC23309F406
:1017600092CFC43508F498CFC63308F0E8CED5330D
:1017700050F022E442E462E485E390E00E944F05E9
:10178000C43108F4BECFC53108F0D9CED43108F445
:10179000D6CE22E442E462E484E190E00E944F0568
:1017A000CECEC43408F7D33408F083CFC53308F065
:1017B00094CFD43308F087CFC33208F043C0D2327D
:1017C00008F48ECF22E442E462E482E290E00E94D8
:1017D0004F0586CFC0930D018091090583708093DA
:1017E0000C010E941C0A83E0D4CE80910805882356
:1017F00051F046E050E06CE170E089E095E00E9435
:101800000E1E109208054091C5035091C6036091C9
:10181000C7037091C8032FB7F89480910105909188
:101820000205A0910305B09104052FBF841B950B01
:10183000A60BB70B4097A105B10508F480CE109216
:1018400012017DCEC33209F09ECF4ACFC43508F0D5
:1018500076CE22CFE9E0F5E089E080838091130124
:1018600090911401A091150181839283A3838FE746
:1018700084838FEF858346E050E06CE170E0CF0118
:101880000E940E1E109208050895CF9384E090E008
:101890000E94001EC82F82E290E00E94001E982F36
:1018A0008C2FCF910895ACE0B0E0E9E5FCE00C941A
:1018B000BD1D8E010F5F1F4F8CE0F80111928A95BC
:1018C000E9F797E4E92E91E0F92E68012DE4622E04
:1018D00021E0722E88248394912CF70181917F015D
:1018E0008F3F09F446C0F894E82FE295EF70F0E0DE
:1018F00021A18F70A40102C0440F551F8A95E2F701
:10190000CA01922F982B91A392A18095892382A33B
:10191000789400C0EDE4F1E021E030E0B12CA12C9E
:1019200041914F3F09F471C0A42FA295AF70B0E070
:1019300090968C9190E04F7002C0959587954A954E
:10194000E2F780FD62C0C901A82AB92A220F331F1D
:1019500051E0ED35F50721F7F701319780818F3F91
:1019600011F00E94C80680E58A95F1F7F601B18270
:10197000A082F2E0CF0ED11C6E147F0409F0ADCF2F
:101980004CE050E0B8018EE693E00E94421E892BA5
:1019900009F43EC08CE0F801AEE6B3E001900D9290
:1019A0008A95E1F781E080936D030E941304909380
:1019B0006C0380936B0320916B0330916C034FB7E2
:1019C000F8948091010590910205A0910305B091D2
:1019D00004054FBF821B930B0597F0F04CE050E0DD
:1019E0006EE673E08CE793E00E94421E892BC9F0FB
:1019F0008CE0EEE6F3E0ACE7B3E001900D928A955F
:101A0000E1F781E010926D0308C090E080E09CCF88
:101A100080916D038111CFCF80E02C96EEE00C9485
:101A2000D91D80E0EFCF8091670390916603892BE9
:101A30008093BC02909168039923A1F0892B809335
:101A4000BC02809111018823E1F18091CD0487FFD0
:101A500038C08EE1EEEBF2E090E08150A0F59111FC
:101A60000E94BE0840E250E066E473E08CEB92E036
:101A70000E94421E892B21F180E2ECEBF2E0A6E409
:101A8000B3E001900D928A95E1F7E091C804F091DE
:101A9000C9043097A9F080911101882359F08091F1
:101AA000CD0487FF07C08091BC028093BD0286E011
:101AB0008093BC020280F381E02D8CEB92E00995CB
:101AC000089586E0C7CF2191222339F29F5FC5CFC9
:101AD00090E080E00E94940490E080E00E947E0408
:101AE000109266030E94130D08959093C40380938F
:101AF000C3030E94680D089521E030E002C0220F68
:101B0000331F8A95E2F7209530958091C303909119
:101B1000C403822393230E94750D08959091450379
:101B20008095892380934503282F277091F4282FCF
:101B3000082E000C330B9217130659F09091CE0427
:101B400092FF07C08595859585950E947C0D109222
:101B50004503089521E030E002C0220F331F8A952B
:101B6000E2F78091C3039091C403822B932B0E94D0
:101B7000750D089590936A03809369030E94680D20
:101B800008951092670380911101EEEBF2E0882333
:101B900061F08091CD0487FF08C08EE1DF011D92C6
:101BA0008A95E9F70E94680D089586E0F7CFAAE2CA
:101BB000B0E0EDEDFDE00C94C81D89EF94E02091BC
:101BC000F100FC012193CF01F5E081309F07B9F7C7
:101BD0008091FA04833009F470C0B8F4813009F4BC
:101BE00047C0823009F4B1C08091E80083FF7EC213
:101BF0008091F9049091FA049A3008F077C2E92FA5
:101C0000F0E0E65AF14E0C94B31D8A3009F48CC012
:101C10008B3009F46FC0893039F78091F904813233
:101C200019F78091FD049091FE040297E8F68091E7
:101C3000E800877F8093E8008091E80082FF38C049
:101C40009091F3008091F200029731F48091F100BD
:101C5000813011F0863021F48091F1008093D4041A
:101C60008091E8008B778093E8000E94F302BCCF5C
:101C70008091F904813A09F0B7CF8091E800877F1D
:101C80008093E8008091FD049091FE04892B61F41B
:101C900060E285ED94E070E00E949F038091E8008F
:101CA0008B778093E800A0CF60E090E080E0F3CFF6
:101CB0008091F7048111C0CF97CF8091F904813AC8
:101CC00009F092CF8091FD049091FE04892B09F0D8
:101CD0008BCF8091E800877F8093E8008091E800B7
:101CE00080FFFCCF809111018093F1008091E8008A
:101CF0008E77B9CF8091F904813209F075CF809148
:101D0000FD049091FE04892B09F06ECF8091E800CC
:101D1000877F8093E8000E94F3028091FB04809308
:101D200011010E94C10D60CF8091F904813209F048
:101D30005BCF8091E800877F8093E8000E94F302E8
:101D40008091FC048093D3044FCF8091F904813AB1
:101D500009F04ACF8091E800877F8093E800809166
:101D6000E80080FFFCCF8091D304BECF803899F08B
:101D7000823809F0BBC18091FD048F70873008F074
:101D8000B5C18093E9008091EB0085FB882780F93D
:101D90001092E90006C08091F5049091F60491112B
:101DA00082609091E800977F9093E8008093F10023
:101DB0001092F1008091E8008E7794C1882309F495
:101DC00082C1823009F092C18091FB04811185C1EA
:101DD0008091FD048F702FEF280F263008F086C108
:101DE0008093E9002091EB0020FF77C1933031F41C
:101DF0008091EB0080628093EB006FC19091EB00CB
:101E000090619093EB0021E030E001C0220F8A95B1
:101E1000EAF72093EA001092EA008091EB008860D4
:101E2000EACF811163C11091FB041F778091E30019
:101E30008078812B8093E3008091E800877F8093F6
:101E4000E8000E94F3028091E80080FFFCCF8091BF
:101E5000E30080688093E30082E0111183E08093C7
:101E6000F70444C18058823008F040C18091FB04DF
:101E70009091FC048C3D23E09207A1F583E08A83D6
:101E80008AE289834FB7F894DE01139620E03EE0A2
:101E900051E2E32FF0E050935700E49120FF03C09C
:101EA000E295EF703F5FEF708E2F90E0EA30C0F068
:101EB000C7968D939D932F5F243159F74FBF809123
:101EC000E800877F8093E8006AE270E0CE01019627
:101ED0000E949F038091E8008B778093E80006C101
:101EE000C096E7CF4091FD045091FE04292F33277F
:101EF0002330310509F444C078F52130310509F467
:101F00006FC08BE390E0E9EDF3E02230310509F09A
:101F1000EDC02091E800277F2093E8002091FF0486
:101F2000309100058217930708F49C0140E02115C9
:101F3000310509F064C0411162C08091E80082FD62
:101F4000C9CF8091F704882329F2853019F2809156
:101F5000E80083FFF2CFBECF21323105A9F1223252
:101F6000310509F0C3C04115510509F443C04130A2
:101F7000510509F0BBC08DE690E0ECE2F3E0C9CF7B
:101F8000992781309105C1F0009759F0029709F027
:101F9000ADC0E6E2F4E0E4918E2F90E0E6E2F4E0FA
:101FA00007C0E8E5F4E0E4918E2F90E0E8E5F4E086
:101FB000009709F49BC0ADCFECE4F4E0E4918E2FE0
:101FC00090E0ECE4F4E0F4CF4115510571F04130BC
:101FD000510509F08BC089E090E0E4E0F4E099CF8E
:101FE00082E190E0E4E1F4E094CF89E090E0EBEE70
:101FF000F3E08FCF80E490E0E9E9F3E08ACF8091CD
:10200000F704882309F466CF853009F463CF809103
:10201000E80083FD5FCF8091E80082FD8ECF809144
:10202000E80080FF84CF9091F3008091F2002115A9
:10203000310519F08830910550F041E0089709F01A
:1020400040E08091E8008E778093E80070CF449163
:102050004093F1003196215031090196E8CF803844
:1020600009F044C08091E800877F8093E800809168
:10207000F8048093F1009ECE811138C01091FB04CA
:102080001230A0F58091E800877F8093E8001093DC
:10209000F8040E94F302112311F084E005C080913E
:1020A000E30087FDFACF81E08093F70442E061EC22
:1020B00081E00E94120342E261EC82E00E9412037E
:1020C0008091F70413C08091FB04813079F481E0A2
:1020D000933009F080E08093F6041092E90080913B
:1020E000E800877F8093E8000E94F3028091E80077
:1020F00083FF0AC08091E800877F8093E800809189
:10210000EB0080628093EB00AA96E3E00C94E41D60
:102110000E94C10D2FE78AE196E021508040904057
:10212000E1F700C0000088E19AE00FB6F894A895A6
:10213000809360000FBE90936000FFCF882321F052
:102140000E94C4080E94130D0895882339F09091CD
:102150006703982B909367030E94130D08958823BB
:1021600051F19CEF980F913A40F4682F8CEB92E07C
:102170000E941F040E94130D089590E2980F98305A
:1021800050F4877091E001C0990F8A95EAF7892F82
:102190000E94C408EFCF9BE5980F933028F490E09D
:1021A00080E00E9494040895885A873120F490E0DA
:1021B00080E00E947E040895CF93C82F8823D9F130
:1021C0008CEF8C0F813AC8F580911101882311F1B1
:1021D0008091CD0487FF1EC0EC2FE695E695E6952D
:1021E000F0E0E454FD4F828190E04C2F477021E0F5
:1021F00030E002C0220F331F4A95E2F78223932377
:10220000892B91F06C2F8CEB92E00E941F040E94AE
:10221000130D0AC0EEEBF2E084EC92E02191C217BC
:1022200089F38E179F07D1F76C2F8CEB92E00E94F9
:1022300049040E94130DCF91089580E28C0F8830DD
:1022400068F4C77021E030E001C0220FCA95EAF7B8
:1022500080916703822B80936703EBCFEBE5EC0F54
:10226000E33040F4F0E0EA5EFE4F808190E00E94AF
:102270009404E1CFC85AC731F0F6EC2FF0E0EE0F2E
:10228000FF1FE75EFE4F808191810E947E04D3CFC5
:102290000F931F93CF93DF93C62FD42F022FFC01F0
:1022A00082818823A9F0609307050E94130490930C
:1022B000060580930505C77081E001C0880FCA95A7
:1022C000EAF70E94A510DF91CF911F910F91089519
:1022D00080910705681341C02091050530910605DE
:1022E0004FB7F8948091010590910205A0910305E4
:1022F000B09104054FBF821B930B883C910568F594
:1023000010E21D0F6D17B9F080E2860F883040F49F
:10231000C77081E001C0880FCA95EAF70E949E103D
:10232000183048F481E09D2F977001C0880F9A956E
:10233000EAF70E94A510802F0E94DC10802F0E94D7
:10234000AF10183008F0BFCFD77081E001C0880F00
:10235000DA95EAF70E949E10B6CFC77081E001C0FF
:10236000880FCA95EAF7F6CF68EE7EEF90E080E03E
:102370000E943C1E60E082E090E00E941E1E60E031
:1023800083E090E00E941E1E10926A03109269037F
:1023900060E084E090E00E941E1E64E082E290E033
:1023A0000E941E1E60E085E090E00E941E1E60E01C
:1023B00086E090E00E941E1E6FEF87E090E00E9492
:1023C0001E1E40E050E0BA0188E090E00E94301EFE
:1023D00060E08DE090E00E941E1E40E050E0BA01F7
:1023E00088E190E00E94301E60E087E190E00E946A
:1023F0001E1E40E050E0BA018CE190E00E94301EC9
:1024000070E060E080E290E00E943C1E40E050E01E
:10241000BA0188E190E00E94301E40E050E0BA012D
:102420008FE090E00E94301E40E050E0BA0183E16E
:1024300090E00E94301E0895CF93C091CE04C2FB5D
:10244000992790F9981791F080FBC2F9C093CE04B8
:102450006091CD0484E090E00E941E1E6C2F82E209
:1024600090E00E941E1E82E00E948E0DCF91089582
:10247000A5E0B0E0EEE3F2E10C94BF1D7C01FC01AD
:1024800083819481892B31F08081918189238F3FD1
:1024900009F08AC42596ECE00C94DB1D0E94D50857
:1024A000182F682F89819A810E94480969817A8151
:1024B000812F0E9422078C01843FFCE59F0709F4CD
:1024C00083C018F5893D9C4509F47AC00A3D8CE526
:1024D000180709F489C0083D9CE5190709F526E2AB
:1024E00041EE61EEC7010E9448118091450387705B
:1024F00089F2F7018281882369F28091CE0482FFFC
:10250000C9CF82E00E948E0DC5CF863FECE59E07C5
:1025100009F462C008F45CC0873F9C4509F460C0C0
:10252000F7018281882309F450C410920705043012
:10253000FDE51F0708F05BC00B3F2CE5120730F4E8
:10254000C80182509C45449708F05CC00E94450C2D
:102550009093CE048093CD040231ECE51E0709F47C
:102560005CC108F0A8C009302CE5120709F433C19A
:1025700008F072C005308CE5180709F41CC108F09A
:102580005EC00330ECE51E0709F40DC108F00FC171
:102590008091CD04816002302CE5120709F488C0D7
:1025A0006091CD041091CE0484E090E00E941E1E44
:1025B000612F82E290E00E941E1E0E94C10D95CF05
:1025C00027E245EE65EE8ECF26E241EE60EE8ACF41
:1025D00027E245EE64EE86CF26E241EE62EE82CF40
:1025E00027E245EE66EE7ECF28E241E0EBCF063AE9
:1025F0003DE5130709F4AACFE0F402369DE519077B
:1026000009F4A4CF06318CE5180709F04AC480917B
:1026100067038A7A91E009F490E09093DC0269E222
:10262000811165E38CEB92E00E9449040E94130D36
:102630005CCFC8018E5A9D45039720F787CF8091C4
:10264000CD04806207303CE5130791F108F4BFC068
:102650008091CD0480642CC00D309CE5190709F4ED
:10266000C4C090F48091CD048E7F0B30FCE51F0731
:10267000F9F08091CD048C600C302CE51207C0F08D
:102680008091CD048D7F14C00F303CE5130709F411
:10269000BCC008F4AEC000319CE5190709F4B9C00C
:1026A0008091CD048F7B0131ECE51E0709F078CFD6
:1026B0008093CD0475CF0115FDE51F0709F4B7C060
:1026C000A8F50B3F3CE5130709F479C0C0F40431C9
:1026D0009CE5190709F4B9C008F4A5C00531FCE56B
:1026E0001F0709F05DCF8091CD0482FB992790F9F7
:1026F00021E0922790FB82F990FB83F9D9CF0D3F1F
:102700002CE5120709F479C008F45DC00E3F8CE592
:10271000180709F476C08091CE0483600F3F9CE5D2
:10272000190709F03DCF8093CE043ACF0236EDE58C
:102730001E0709F495C090F402302DE5120709F444
:102740008DC008F478C060E003308DE5180709F00B
:1027500027CF8EE090E00E941E1E22CF0E3A9DE50C
:102760001907E9F060F49091CD04892F8E7F90FFD6
:102770008160063AFDE51F0709F49ACF11CF0F3AA1
:102780002DE5120771F1003B3DE5130709F008CF75
:102790009091CE04892F877F93FF8860C4CF80916A
:1027A000CE048860C0CF8091CD04826081CF8091BB
:1027B000CD0484607DCF8091CD04886079CF8091F5
:1027C000CE048160B0CF8091CE048260ACCF809186
:1027D000CD0480616DCF0E94C10D8091CD048068D1
:1027E00067CF8091CE04877F9ECF8091CD048B7F71
:1027F0005FCF8091CD04877F5BCF8091CE048E7FA9
:1028000092CF8091CE048D7F8ECF8091CD048F7E2C
:102810004FCF8091CD048F7D4BCF0E94C10D809111
:10282000CD048F7745CF8091CD04837F41CF8091B8
:10283000CE048C7F78CF8091CE04982F90959170A4
:102840008E7F892B90FB81F96ECF0E94C10D9091F4
:10285000CD04892F97FB87F980582ACF61E079CF83
:102860009091CD04892F8F7E94FF806121CF80913C
:10287000DC0269E2811165E38CEB92E00E941F04A7
:10288000D5CE47E355E061E475E00E94B7042DCE54
:1028900041E455E067E375E0F8CF43E255E06DE2CF
:1028A00075E0F3CF4DE255E063E275E0EECF49E02D
:1028B00055E066E175E0E9CF46E155E069E075E095
:1028C000E4CF4CEF54E06FEE74E0DFCF41EE54E024
:1028D00063ED74E0DACF0E94C10D9FE7EAE1F6E014
:1028E0009150E040F040E1F700C000000E94020477
:1028F0008091CE0482FB882780F991E089270E948D
:102900001C12F701828100811181882309F445C0DE
:10291000C8010E94D508D82E682FC8010E94480916
:10292000B8018D2D0E9422070E943E078C01882E3F
:10293000F701D280B580B2943FE0B3228091450385
:102940008770C1F0AD2CDD20B1F0812F807F803405
:1029500021F080E2800F883068F08091CE0482FF01
:1029600009C082E00E948E0D809145038770AA24E1
:10297000A3948111A12C912E92942FE09222FBE03E
:10298000F91508F476C0E92DF0E0EC59F14E0C94FD
:10299000B31D81E0B4CF80E0B2CFC8010E94160918
:1029A000D82EBECF212F2F70C22E107F19F0C294C7
:1029B00090EFC922DD20B9F0CC2069F080E2800FD1
:1029C000883010F0811009C080916703C82AC09236
:1029D00067030E94130D802F4AC080916603C82AA6
:1029E000C0926603F6CF802F0E94AF10CC2009F46E
:1029F00040C0005E083010F0811004C08C2D0E9491
:102A0000C40806C0C09480916603C822C0926603C1
:102A10000E94130D2EC0312F3F70C32E107F103235
:102A200019F0C29480EFC822882089F081E08816CE
:102A300009F477C0DD2009F481C0BB2009F477C018
:102A4000F701858180FFC7CF8F70858370C020918B
:102A5000CE0422FD43C0DD20D9F1CC2039F0809195
:102A60006703C82AC09267030E94130D80E00E948A
:102A7000DC10E92DE850FF0B349710F40E94AA04F3
:102A8000AA20A9F08091450380FD11C0F7011282B0
:102A90008595859585950E94AA0DC7010E943812DB
:102AA000809145038595859585950E947C0D85E0EF
:102AB000F701DE01119601900D928A95E1F70981E7
:102AC0001A81C8010E941609B8010E942207E2CCAF
:102AD00080E00E94AF10CC2061F290CFDD20A1F009
:102AE000909168038C2D892BB11003C00E94A51012
:102AF000C0CFE1E0BE12FACF22FFBBCF981709F496
:102B0000B8CF80936803B5CFB11006C00E94BE084D
:102B10008C2D0E949E10ADCFF1E0BF1609F4A9CF15
:102B2000F5CFDD2031F025E02B1508F4A2CF8C2D58
:102B3000DDCF34E03B1508F49CCFEACFBB2041F356
:102B4000F9E38F122AC12FEF33EF81E0215030409B
:102B50008040E1F700C0000020C1812F8695869556
:102B6000837061F0813009F084CFC8019370D11077
:102B700002C090E080E00E947E047BCFC801937089
:102B8000D11002C090E080E00E94940472CF812FA7
:102B9000837009F03FC0D1106CCF402F429546950D
:102BA0004770440F440F802F8F7090E0042E02C0B6
:102BB000880F991F0A94E2F730E020E004FF09C073
:102BC0002FE030E002C0220F331F4A95E2F7209534
:102BD0003095169516951370123099F078F440914F
:102BE000690350916A03113039F0822B932B8423AF
:102BF00095230E94BA0D3DCF842B952B822B932BCE
:102C0000F8CF822B932B2091690330916A0382279E
:102C10009327EFCF8695DD2011F0812F81708823D7
:102C200009F427CF402F429546954770440F440F33
:102C3000802F8F7090E0042E02C0880F991F0A9495
:102C4000E2F730E020E004FF09C02FE030E002C0EE
:102C5000220F331F4A95E2F7209530951695169569
:102C60001370123099F078F44091C3035091C4036B
:102C7000113039F0822B932B842395230E94750DFC
:102C8000F8CE842B952B822B932BF8CF822B932B72
:102C90002091C3033091C40382279327EFCF1F7085
:102CA000DD2029F0812F0E94AA0D802F1FCF802FB9
:102CB0000E949E10812F0E947C0DDBCE802F92EF10
:102CC000891699F1981570F0E0EF8E16D1F0F1EFBA
:102CD0008F1691F0DD2009F45BC0B1107CCE812FFE
:102CE0008F7127C023EF821639F134EF8312F2CFB0
:102CF0008091CE0482FD2EC0812F8F71DD20D9F20C
:102D000018C0DD2069F084E08B1508F4B2CE1F7185
:102D100081E090E002C0880F991F1A95E2F7B8CFC2
:102D200095E09B1508F4A5CEF2CF812F8F71D110BD
:102D3000C2CF0E94AA0D9DCE90E080E0DD2009F474
:102D40009DCF1F7181E090E002C0880F991F1A95F6
:102D5000E2F794CFDD2089F01F71812F0E94AA0D28
:102D60008091CE0482FF07C0E8E01E9FC0011124BD
:102D7000836080934503812FDCCF81E00E948E0D1C
:102D8000F1E0FB1508F075CE82E00E948E0D71CE49
:102D9000BB2039F0893309F4D6CE802F0E94AF10C2
:102DA00068CE812F8F7187CF85E0DE01119601906B
:102DB0000D928A95E1F7F701228189819A8121118B
:102DC0006DCB0E941609182F71CB0631FCE51F0749
:102DD00009F44DCD8091670382720B3C2CE51207FC
:102DE00009F46FCDB0F5063C9CE5190709F455CD03
:102DF000D0F4043CFCE51F0709F443CD08F048CDAE
:102E0000033C3CE5130709F07CCD8091090591E076
:102E1000892780930905109212018091080581602D
:102E20008093080562CB083C9CE5190709F43FCD67
:102E300008F438CD093CFCE51F0709F43DCD4FEE01
:102E400054E06CEF74E00A3C2CE5120709F41DCD48
:102E500058CD0F3C3CE5130709F447CB90F40D3CEB
:102E6000ECE51E0709F432CD43ED54E061EE74E069
:102E70000E3CFCE51F0708F408CD81E00E944D02DE
:102E800034CB073D2CE5120730F482E0013D3CE5F0
:102E90001307A0F32ACB0E358DE5180709F425CBCF
:102EA00030CD0B359DE5190709F473CD68F4011594
:102EB000FCE51F0709F40FCD0F3D1C4509F021CD9E
:102EC0000E94B4110E9488100D353DE5130709F4E6
:102ED0000FCD08F460CD083A1D45A1F312CD1F9324
:102EE000CF93DF9380911203807F09F049C08091D6
:102EF0000F03882309F444C080914403D091130345
:102F000060910D0370910E03A0911003B091110315
:102F1000C62FC72316E0D81799F190E0109711F04B
:102F2000CF3F19F401968770F6CF189F9001199F33
:102F3000300D1124F901EC5EFC4F41814713F2CFB3
:102F400040814613EFCF42814111ECCF4381548140
:102F50004A1B5B0B483C510528F7809112038F7088
:102F6000806180931203F901E75EFC4F80818F70CE
:102F7000806180838DE093E00E9438120E94CB082C
:102F8000DF91CF911F910895A1E1B0E0EAECF7E164
:102F90000C94C11D8C0185E0F801DE011D960190A5
:102FA0000D928A95E1F7F801E2808DE0A82E83E08A
:102FB000B82E60911003709111036115710509F429
:102FC00026C190910D0340910E03892F84238F3FDA
:102FD00009F41DC120813181C380D480F0900F039A
:102FE000F601E61BF70BFF2009F4DCC08091120309
:102FF000582F507FE83CF10508F09FC051116BC07D
:10300000FE2C431314C0921312C0E11010C08F7035
:10301000806180931203C5010E94381280911203CF
:10302000F80185838F2D6196EAE00C94DD1DC114B3
:10303000D10429F0822F83238F3F09F003C180E060
:10304000F82FF170DF2E80FF3CC080914403409147
:10305000130356E0841315C02D873E878D859E850A
:103060000E940909292F22952F702230F0F0243078
:1030700018F59F70F1F0F8019581907FD1F4D12C73
:103080001EC090E0589FF001599FF00D1124EC5E96
:10309000FC4F6181361306C06081261303C0628134
:1030A000E6120FC001968770D5CF9F7011F088236C
:1030B00031F3805E883018F3C8010E943812FD2C6D
:1030C000B1CFEE2009F4AECF8091120381608093DE
:1030D0001203F12CA7CF431306C0921304C0F801CA
:1030E000EE2009F479C0C8010E947D09882309F106
:1030F000EE20F9F080911203803270F020910D03E0
:1031000030910E0338872F831986DB86CA868C8719
:10311000CE0107960E94381286E0F801ADE0B3E0D8
:1031200001900D928A95E1F70E946F17FF24F394A6
:1031300079CFC8010E943812F9CF51110AC08DE031
:1031400093E00E94381286E0F50111928A95E9F722
:10315000C0CF43130FC092130DC0E1100BC0F80194
:103160008583C8010E94381286E0F50111928A9584
:10317000E9F758CFC8010E947D098823D1F2EE20DB
:10318000C1F280911203803238F220910D03309108
:103190000E033A8329831B82DD82CC828E83CE018B
:1031A0000196B8CFE83CF105F8F6FE2CEE2009F2C6
:1031B00043131FC092131DC08091120380FD10C0E5
:1031C000982F907F69F0F8018583903F31F0982F18
:1031D000907F905F8F70892B8583C8010E94381281
:1031E00086E0F801ADE0B3E001900D928A95E1F739
:1031F00019CFC8010E947D0981118ECF80911203E1
:10320000816080931203C8010E9438120BCFEE2018
:1032100009F48FCFC8010E947D09F82E882309F494
:1032200088CF86E0F801ADE0B3E001900D928A9579
:10323000E1F780910D0390910E030E9409090E940D
:103240006F17F0CE81E08E25FBCEA7E1B0E0EBE278
:10325000F9E10C94C81D4B8B5C8B6D8B7E8B8F8B37
:103260006111109266031A8A198A85E0FE0173962D
:10327000DE011D9601900D928A95E1F786E0FE0130
:103280003D96DE01179601900D928A95E1F7CE01E9
:1032900007960E94C417882359F016E080914403D2
:1032A00090911303891343C06796E3E00C94E41DE7
:1032B00086E0FE013796DE01119601900D928A9507
:1032C000E1F78A859B85892B41F38F819885892336
:1032D0008F3F19F32091130330E0C90101968770E5
:1032E0009927409144034817190671F40E94C10DB3
:1032F000109213031092440386E0EDE0F3E0DF0147
:103300001D928A95E9F7C9CF96E0929FD001939FCD
:10331000B00D1124AC5EBC4FFE01319601900D92B0
:103320009A95E1F7809313030E94CB08B6CF819F53
:10333000C00111248C5E9C4F0E94C417882309F49D
:10334000B3CF8091440390E00196877099278093D2
:103350004403A4CF1F920F920FB60F9211242F9304
:103360003F934F935F936F937F938F939F93AF930D
:10337000BF93CF93DF93EF93FF93D091E900DF707A
:103380008091EC00C82FC17080FDC0E81092E90068
:103390008091F000877F8093F00078940E94D70D91
:1033A0001092E9008091F00088608093F000CD2BAE
:1033B000CF70C093E900FF91EF91DF91CF91BF9162
:1033C000AF919F918F917F916F915F914F913F91BD
:1033D0002F910F900FBE0F901F9018951F920F9274
:1033E0000FB60F9211242F933F934F935F936F93D8
:1033F0007F938F939F93AF93BF93EF93FF938091AE
:10340000E10082FF09C08091E20082FF05C0809147
:10341000E1008B7F8093E1008091DA0080FF24C07F
:103420008091D80080FF20C08091DA008E7F809349
:10343000DA008091D90080FF9DC080E189BD82E1E2
:1034400089BD09B400FEFDCF81E08093F70480912F
:10345000D204811109C00E9479020E944403809124
:10346000E20084608093E2008091E10080FF17C059
:103470008091E20080FF13C08091E2008E7F8093F4
:10348000E2008091E20080618093E2008091D800A8
:1034900080628093D80019BC85E08093F704809106
:1034A000E10084FF2BC08091E20084FF27C080E10F
:1034B00089BD82E189BD89B5982F917080FFFBCFCE
:1034C0008091D8008F7D8093D8008091E1008F7E1D
:1034D0008093E1008091E2008F7E8093E2008091F2
:1034E000E20081608093E2008091F804882309F46F
:1034F00047C084E08093F7048091F7048091E10055
:1035000083FF27C08091E20083FF23C08091E10008
:10351000877F8093E10082E08093F7041092F804A3
:103520008091E1008E7F8093E1008091E2008E7FA8
:103530008093E2008091E20080618093E20042E0AB
:1035400060E080E00E9412038091F0008860809328
:10355000F000FF91EF91BF91AF919F918F917F917B
:103560006F915F914F913F912F910F900FBE0F90F0
:103570001F90189519BC1092F7041092D20474CFC2
:103580008091E30087FD93E09093F704B5CF7894A2
:103590001F921FB61F9211248F939F93AF93BF93D7
:1035A0008091010590910205A0910305B091040559
:1035B0000196A11DB11D8093010590930205A09372
:1035C0000305B0930405BF91AF919F918F911F9018
:1035D0001FBE1F9018951F921FB61F9211248F9324
:1035E0009F93AF93BF938091CC04811113C08091BE
:1035F000010590910205A0910305B0910405419643
:10360000A11DB11D8093010590930205A0930305B0
:10361000B0930405BF91AF919F918F911F901FBEF2
:103620001F901895CDB7DEB761970FB6F894DEBF3F
:103630000FBECDBF85B7806885BF85B7806885BF61
:1036400084B7877F84BF0FB6F894A89580916000F7
:10365000886180936000109260000FBE80E891E066
:103660000FB6F89480936100909361000FBE86ECD2
:1036700096E09093BB028093BA020E9479020E9466
:1036800044038091E20084608093E200789480910A
:10369000F7048823A1F01091E9001F709091EC00CD
:1036A000892F817090FD80E8182B1092E90080919D
:1036B000E80083FD0E94D70D1F701093E90082E09F
:1036C00084BD93E095BD9DE797BD80936E0007E4B0
:1036D00011E0D8018D918D018F3F11F00E94C80635
:1036E000B1E00D341B07A9F70DE411E0F801819159
:1036F0008F018F3F11F00E94C806F1E00D351F07C2
:10370000A9F78CE0ECE7F3E0DF01282F1D922A9562
:10371000E9F7EEE6F3E0DF011D928A95E9F790E024
:1037200080E00E94081E883E9E4F11F00E94B41156
:1037300082E090E00E94001E809388030E94450C66
:103740009093CE048093CD040E94530CEFE1FEE4ED
:103750003197F1F700C000000E94530C80917C0368
:1037600080FF08C06FEF7FEF90E080E00E943C1E7A
:103770000E94020483E090E00E94001E90E00E94FC
:10378000BA0D109296038FEF9FEF9093B003809342
:10379000AF039093B2038093B1039093B4038093EB
:1037A000B3039093B6038093B5039093B8038093CB
:1037B000B7039093BA038093B9039093BC038093AB
:1037C000BB039093BE038093BD0390E080E00E9412
:1037D000081E883E9E4F21F00E94B4110E942A0CC0
:1037E00046E050E06CE170E089E095E00E94F01D59
:1037F00010920805809109058C7F11F40E942A0C13
:1038000080E091E09093C9048093C80433243394FA
:103810008091F70403E0F02E00E112E1853009F415
:1038200019C10E94530C89E893E09C878B87ACE711
:10383000B3E0BE87AD87FC01219131918D919D91BF
:1038400043E0E539F40709F411C128173907A1F35A
:103850001DE5812E11E0912E712CAD85BE85ED9078
:10386000FD90BE87AD87EB85FC8581919191FC87AA
:10387000EB878E159F0509F48BC09C012E253F25F3
:10388000398B288B2401612CCC24C394D12C8889BA
:1038900099898C219D21892B09F46CC086010E2108
:1038A0001F216E827F8281E00115110509F480E0FD
:1038B00088870E9413048160782F9A8789874E81B8
:1038C0005F8168858A850E942519012B29F0D20124
:1038D0008C918F3F09F003C1212C022D10E08091C3
:1038E0009603800F912F911D09976CF1E8E0AE2EA1
:1038F000B12CA01AB10AB80169567C4FA50187E91D
:1039000093E00E944F1EB80161567C4FA5018FE9DC
:1039100093E00E944F1EA501440F551FB801660F8A
:10392000771F61557C4F8FEA93E00E944F1EB801CC
:1039300069557C4FA50187EA93E00E944F1E88E0FD
:103940008219809396038091960390E0EF85AE2FC5
:10395000B0E09D01220F331F23543E4FAA0FBB1F1F
:10396000BD0162547E4F41E0480F921508F4BBC080
:10397000809396036394CC0CDD1CEFEF4E1A5E0A25
:10398000F0E16F1284CFEB85FC853297F182E08203
:10399000739420E1820E911C36E073125ECF8FB7D4
:1039A000F8944091010550910205609103057091D2
:1039B00004058FBF7DC08091F704843009F439C0BD
:1039C0000E943E0A8091C90381110DC00E94E60544
:1039D00010920D0180910905837080930C010E9463
:1039E0001C0AF09212013092C9031092CC0428E113
:1039F00030E040E40FB6F894A895209360000FBE25
:103A00004093600083B7817F846083BF83B7816008
:103A100083BF7894889583B78E7F83BF0FB6F89461
:103A2000A89580916000886180936000109260008A
:103A30000FBE8091F604882369F00E94530CECE7D6
:103A4000F3E081919191892B09F063C053E0E8384C
:103A5000F507B9F78091F704853009F4ACCF0E94DF
:103A6000C10D0E94AA041092C903DBCE28173907A2
:103A700009F0EECE0E9413048C0180917A0390919C
:103A80007B0308171907A1F08FEF89838A831B82B4
:103A90000E9413048160782F9D838C8349815A8111
:103AA0006B818D810E94251910937B0300937A030B
:103AB0000E943E0A0E94AA0490919503891709F476
:103AC000A7CE809395038FB7F8944091010550914C
:103AD000020560910305709104058FBF99CE8F8711
:103AE00022242394FACE90E0FC01EA56FC4FD9013F
:103AF0005C915183DB015C915187BF85B18B880F4D
:103B0000991FFC01EA56FC4F128E118E91E0842F12
:103B10002ACF09BD19BD09B400FEFDCF8091D800A0
:103B20008F7D8093D8008091E00082608093E000D8
:103B30008091E00081FDFCCF0E94C10D8BCFAA1BBC
:103B4000BB1B51E107C0AA1FBB1FA617B70710F088
:103B5000A61BB70B881F991F5A95A9F780959095BA
:103B6000BC01CD010895EE0FFF1F0590F491E02DEB
:103B700009942F923F924F925F926F927F928F9211
:103B80009F92AF92BF92CF92DF92EF92FF920F93EC
:103B90001F93CF93DF93CDB7DEB7CA1BDB0B0FB6F6
:103BA000F894DEBF0FBECDBF09942A8839884888B3
:103BB0005F846E847D848C849B84AA84B984C88449
:103BC000DF80EE80FD800C811B81AA81B981CE0F40
:103BD000D11D0FB6F894DEBF0FBECDBFED01089525
:103BE000DC01CB01FC01F999FECF06C0F2BDE1BDBD
:103BF000F89A319600B40D9241505040B8F70895AC
:103C0000F999FECF92BD81BDF89A992780B50895A4
:103C1000A8E1B0E042E050E00C94F21DDC01A40FFA
:103C2000B51F4150504048F0CB01840F951F2E9195
:103C30000E941F1E41505040D0F70895262FF99939
:103C4000FECF92BD81BDF89A019700B4021639F0FB
:103C50001FBA20BD0FB6F894FA9AF99A0FBE0895CC
:103C60000396272F0E941F1E0E941E1E252F0E94B2
:103C70001F1E242F0C941F1E0196272F0E941F1E0B
:103C80000C941E1EFB01DC0104C08D910190801973
:103C900021F441505040C8F7881B990B0895FB014F
:103CA000DC0102C001900D9241505040D8F70895B8
:103CB000F894FFCFB60EDE0E7610DE0E7610110FE2
:103CC000320F76102F103C10D214D2140B150B1596
:103CD000AD15391539153915C7154F165E165E160F
:103CE000FF03DC09FE03D709D209FD03FFFF00FF34
:103CF000000103C8FFB4818283E200E900EA00B555
:103D000000B600B700CD008301CC008A0192019477
:103D1000012102230224022502260227022A02B3DD
:103D200000B4006F00700094969734353667C2F780
:103D3000F6F5F4F1F0C630379091929395444546EC
:103D40004748494A4B4C4D4E4F50515253353637E8
:103D500038393A3B3C3D3E3F40414243002627280C
:103D6000292A2B2C2D2E2F30313233340018191ADA
:103D70001B1C1D1E1F20212223242500000A0B0CC2
:103D80000D0E0F101112131415161700000001026A
:103D900003040506070809000000000000004010A9
:103DA000401E402D406840A440B240C140D040E099
:103DB0004010331E332D333B334A33593368337746
:103DC0003385339533A433C133D033E03300261E1B
:103DD000262D263B264A26592668267726852695AF
:103DE00026A426B226C126E026001A1E1A2D1A3B4A
:103DF0001A4A1A591A681A771A851A951AA41AB201
:103E00001AC11AD01AE01A000D100D1E0D2D0D3B0F
:103E10000D4A0D590D680D770D850D950DA40DB248
:103E20000DD00DE00D000010001E002D003B004ADB
:103E30000059006800770085009500A400B200C119
:103E400000D000E000040404040404040404040496
:103E50000404040404040404040404040404040422
:103E60000404040404040404040404040404040412
:103E70000404040404040404040404040404040402
:103E800004040404040404040404040404040404F2
:0A3E90000404040404040404040004
:00000001FF
