:100000000C94A7020C94C4020C94C4020C94C40275
:100010000C94C4020C94C4020C94C4020C94C40248
:100020000C94C4020C94C4020C949F1C0C945B1C92
:100030000C949C1D0C94C4020C94C4020C94C40235
:100040000C94C4020C94C4020C94C4020C94C40218
:100050000C94C4020C94781D0C94C4020C94C40239
:100060000C94C4020C94C4020C94C4020C94C402F8
:100070000C94C4020C94C4020C94C4020C94C402E8
:100080000C94C4020C94C4020C94C4020C94C402D8
:100090000C94C4020C94C4020C94C4020C94C402C8
:1000A0000C94C4020C94C4020C94C402050109808F
:1000B000A101850319012AB700150126B700950192
:1000C00075108100C0050C0901A101850419012AE0
:1000D000A002150126A002950175108100C005013E
:1000E0000906A1018506050719E029E71500250184
:1000F0009508750181020507190029EF15002501F2
:1001000095F075018102050819012905950575010C
:100110009102950175039101C00660FF0961A1017B
:100120000962150026FF00952075088102096315F4
:100130000026FF00952075089102C005010906A15F
:1001400001050719E029E7150025019508750181CA
:10015000029501750881010507190029FF15002680
:10016000FF00950675088100050819012905950508
:1001700075019102950175039101C0000000000016
:10018000000000000000000000000000000000006F
:100190000000000000000000000000000000007EE1
:1001A0000F00D4FFFFFFC700000078000000000030
:1001B0000000002A2B2800000000000000000000C2
:1001C00000000000000029000000002C1E34202147
:1001D0002224342627252E362D3738271E1F20218E
:1001E00022232425263333362E37381F04050607ED
:1001F00008090A0B0C0D0E0F101112131415161707
:1002000018191A1B1C1D2F3130232D350405060724
:1002100008090A0B0C0D0E0F1011121314151617E6
:1002200018191A1B1C1D2F3130354C00010101011A
:1002300001010101010202020202020202020303A1
:100240000303030303030404040404040405050571
:100250000505060606060607070707070808080833
:10026000090909090A0A0A0B0B0B0C0C0C0D0D0DE0
:100270000E0E0E0F0F0F1010111111121213131476
:1002800014151516161717181819191A1A1B1B1CEE
:100290001D1D1E1E1F202021222223242425262648
:1002A000272829292A2B2C2D2D2E2F30313232337D
:1002B0003435363738393A3B3C3D3E3F4041424386
:1002C0004445464748494A4C4D4E4F50515354556A
:1002D0005658595A5B5D5E5F616264656668696B1A
:1002E0006C6D6F7072737577787A7B7D7E80828398
:1002F0008587888A8C8E8F91939596989A9C9EA0DC
:10030000A2A3A5A7A9ABADAFB1B3B5B7BABCBEC0E8
:10031000C2C4C6C9CBCDCFD1D4D6D8DBDDDFE2E4B1
:10032000E7E9EBEEF0F3F5F8FAFDFF29003A003BC0
:10033000003C003D003E003F0040004100420043C1
:100340000044004500615D4C00490035001E001F5F
:100350000020002100220023002400250026002781
:10036000002D002E0000002A004A002B000000147F
:10037000001A000800150017001C0018000C0012DD
:100380000013002F00300031004B00390000000442
:10039000001600070009000A000B000D000E000FF8
:1003A0000033003400280000004E000000E1001D72
:1003B000001B000600190005001100100036003770
:1003C0000038000000E50052004D00E000E200E3CC
:1003D00000E0000000000000002C00000000000011
:1003E000000151E400500051004F00005CDE5C0051
:1003F00000000000000000000000000000000000FD
:10040000000000000000000000AE00A50000000099
:1004100000000000000000000000000000000000DC
:10042000000000000000000000A800000000000024
:10043000000000000000000000000000000000C2FA
:100440005CCA5CC95CC35C000046000000000000A0
:10045000000000000000000000000000000000009C
:1004600000BD00A900000000000000000000000026
:10047000000000000000000000000000000000BEBE
:1004800000AA0000000000000000000000000000C2
:10049000000000000000000000A7000000000000B5
:1004A000000151A60000000000000009025B0003EB
:1004B0000100A0FA09040000010301010009211153
:1004C0000100012240000705810308000109040121
:1004D000000203000000092111010001222200078F
:1004E000058203200001070503032000010904021F
:1004F000000103000000092111010001226D000725
:10050000058403200001120100020000000884336A
:10051000010001000102000124034C006900700089
:100520006B002000730068006900670075006100BF
:100530006E006700200031002E00300000000A032A
:100540004C00690070006B000000040309041124D2
:100550001FBECFEFDAE0DEBFCDBF12E0A0E0B1E01A
:10056000E0E1F6E402C005900D92AC3CB107D9F78A
:1005700025E0ACECB2E001C01D92A331B207E1F777
:100580000E94C31D0C94DD220C940000E8EDF0E005
:1005900080818E7F80831092E2001092DA001092A8
:1005A000E100A0EEB0E08C9181608C9380818F7728
:1005B000808319BCA7EDB0E08C918E7F8C938081F5
:1005C0008F7E80831092DC0408952091E4003091A6
:1005D000E50095E6A9012091EC00822F817020FFB3
:1005E00006C08091E80080FF06C080E00895209159
:1005F000E80022FD1AC080910105882389F085302A
:1006000089F08091EB0085FD0FC02091E4003091CE
:10061000E50042175307F9F29150E1F684E008959E
:1006200082E0089583E0089581E00895EF92FF92BB
:100630000F931F93CF937C018B010E94E502C82F7B
:10064000811117C08091E80085FD0BC08091E80002
:100650008E778093E8000E94E502882399F3C82FE3
:1006600008C0F70181917F018093F10001501109C9
:1006700049F78C2FCF911F910F91FF90EF90089524
:100680008091030587FF13C08091E80082FF06C0B8
:100690008091E8008B778093E80004C08091010589
:1006A0008111F2CF0895809101058823D9F38091BB
:1006B000E80080FFF8CF8091E8008E77ECCF982F8C
:1006C0009093E900242F762F50E0891731F0709134
:1006D000EC002091ED005091F00021FD07C09F5FDC
:1006E000973071F78093E90081E008953091EB0035
:1006F0003E7F3093EB003091ED003D7F3093ED0075
:100700003091EB0031603093EB007093EC0020935C
:10071000ED005093F0002091EE0027FDE0CF80E047
:100720000895B0E0A0E0E7E9F3E00C944822C8EDBA
:10073000D0E088818F7E8883E7EDF0E08081816062
:10074000808384E082BF81E08093DC0488818E7F97
:10075000888302EE10E0F80110821092DA0081EE38
:10076000C82ED12CF601108288818F7788838881EA
:100770008068888388818F7D888319BC10920105E9
:1007800010920205109200051092FF0490EEE92EDF
:10079000F12CF70180818B7F808388818160888341
:1007A00042E060E080E00E945F03F60180818E7F7E
:1007B0008083F8018081816080838081886080836C
:1007C000F70180818E7F8083888180618883CDB7A7
:1007D000DEB7E8E00C946422FC0180910905909159
:1007E0000A0586179707A0F06115710529F4909105
:1007F000E8009E779093E80090E06115710551F450
:10080000911108C08091E80082FF34C080E0089513
:10081000BC01F2CF809101058823C1F18530C1F17F
:100820008091E80083FD30C08091E80082FDEACF2E
:100830008091E80080FFE1CF8091F3002091F200E9
:10084000382F6115710519F02830310558F091E005
:100850002830310509F090E02091E8002E772093B0
:10086000E800CBCF81918093F100615071092F5F37
:100870003F4FE7CF80910105882341F0853041F05B
:100880008091E80083FFBECF81E0089582E0089563
:1008900083E00895089508958091DE04089587E720
:1008A00097E7909301088093000888E19AE00FB6DB
:1008B000F894A895809360000FBE90936000FFCFDE
:1008C0002FB7F89460910B0570910C0580910D0580
:1008D00090910E052FBF08952FB7F89480910B05C6
:1008E00090910C05A0910D05B0910E052FBF0895B4
:1008F000209112012223C9F02091D70427FF15C0AF
:10090000E62FE695E695E695EE31D8F4E80FF92F57
:10091000F11D677021E030E001C0220F6A95EAF70F
:1009200020958281282322830895FC01329608961F
:100930002191621303C0DF0111971C92E817F90798
:10094000B9F70895209112012223C1F02091D70414
:1009500027FF14C0E62FE695E695E695EE31F8F40C
:10096000E80FF92FF11D677021E030E001C0220F80
:100970006A95EAF78281822B82830895FC01329680
:100980002FEF30E04191641751F02F3F19F44111DE
:1009900001C0232F3F5F3630A9F72F3F09F4089598
:1009A000820F911D27FD9A95FC0162830895209185
:1009B000D4043091D5042817390771F09093D504E9
:1009C0008093D404E091D204F091D304309721F0C5
:1009D0000084F185E02D099508952091D00430918F
:1009E000D1042817390771F09093D1048093D00473
:1009F000E091D204F091D304309721F00680F78182
:100A0000E02D09950895E091D204F091D304309738
:100A100029F00190F081E02D0995089580E0089576
:100A2000FA01811101C0FB0109950895E4EDF3E09D
:100A3000818360834283339694E0E03DF907C1F7F8
:100A40000895FC01EE0FFF1FE80FF91FEC52FC4F59
:100A50006183408322830895EEECF3E0248130E14A
:100A6000231B08F420E024838091CD0381608093D0
:100A7000CD030895EEECF3E0248130E1230F08F478
:100A80002FEF24838091CD0381608093CD0308955F
:100A90009091CE03937071F08093CF036093D00355
:100AA000453B08F044EB4093D1038091CD03822B6A
:100AB0008093CD030895EEECF3E0438120E1421BE7
:100AC00008F440E0818121E0628190E00E944805C5
:100AD0000895EEECF3E0438120E1420F08F44FEF7C
:100AE000818121E0628190E00E9448050895EEEC4A
:100AF000F3E0628120E1621B08F460E0818121E083
:100B0000438190E00E9448050895EEECF3E0628195
:100B100020E1620F08F46FEF818121E0438190E0D2
:100B20000E9448050895EEECF3E0818121E04381C5
:100B300062818850990B0E9448050895EEECF3E01D
:100B4000818190E021E04381628108960E944805FE
:100B500008959091CE03937061F081110BC0946061
:100B60009093CE03109211018091CD03862B809338
:100B7000CD030895843010F09C60F2CF880F880F69
:100B8000982BEECF8091CE0386958695815009F4FF
:100B900083E061E00E94A90508958091CE038695C7
:100BA00086958F5F843008F081E061E00E94A9059E
:100BB00008950E94160508950E9421050895AF9298
:100BC000BF92CF92DF92FF920F931F93CF93DF9349
:100BD000362F472FE82FF0E0E55DFD4F71110FC074
:100BE000E4918E2F2E2F6E2F722FDF91CF911F91B8
:100BF0000F91FF90DF90CF90BF90AF900895C72FD7
:100C0000D0E02491F22E022F10E056E0659FC00143
:100C10001124EFEFF0E0BF010E941D22832F90E02E
:100C2000880F991F35E5369FD001379FB00D1124ED
:100C30008A1B9B0B982F990F980F6F01CC1ADD0A16
:100C4000C09ED001C19EB00DD09EB00D11248B2F3F
:100C5000499FA0011124452F55276F01C41AD50AB9
:100C6000C09EA001C19E500DD09E500D11245F0169
:100C7000A91AB108AC9E6001AD9ED00CBC9ED00CF0
:100C80001124CD2CDD24EC19FD09E09FE001E19F4A
:100C9000D00DF09FD00D1124ED2F62307105A1F021
:100CA00050F46115710509F49ECF6130710581F032
:100CB000EB2F852F98CF6430710569F080F0663096
:100CC000710509F490CFF4CFE22F2B2F8D2F8BCF0E
:100CD000E22F252F88CFEB2F822F2D2F84CF2B2F84
:100CE0008F2DE52F80CFB0E0A0E0E9E7F6E00C948F
:100CF0004822182F80910D01811327C09091CE03B7
:100D0000937020910C0130E081E09217130609F4F2
:100D100080E08170809310018091D30390910F0146
:100D2000981739F080930F0140E060E080E00E9466
:100D3000D9051130B1F0112351F0123009F457C028
:100D4000133009F497C080E02AC081E0E2CF80919F
:100D50001001882321F140E060E080E00E94D90585
:100D6000F2CFC0910E0181E1C89FC02D112401E195
:100D70000C0FF02E053510F034E5F32E6091CF0303
:100D80007091D0038091D1030E94DF05E62ED72E0B
:100D9000C82ED0E0CF15D8F081E00435A0F69091B0
:100DA0000E019F5F90930E0181110CC082E0809331
:100DB000110180911001811105C0111103C083E060
:100DC00080931101CDB7DEB7E8E00C946422FE01F8
:100DD000E759FD4F808190910F01892331F02C2D2F
:100DE0004E2D6D2DCE010E94DC052196D3CFC091F2
:100DF0000E0181E1C89FC02D112401E10C0FF02EDE
:100E0000053510F024E5F22E2091D2032695269583
:100E100031E0230F08F42FEF4091C8035091C9032C
:100E200090E080E0429F812D529F800D911D112402
:100E3000E82ED0E0CF1508F0AFCFFE01E759FD4F07
:100E4000808190910F01892399F07091D003FE0168
:100E5000EE0FFF1FEF53FE4F60816E198091D1039B
:100E60000E94DF05462F282F672FCE010E94DC0548
:100E70002196E0CFC0910E0181E1C89FC02D1124C1
:100E800001E10C0FF02E053510F084E5F82ED0E0CE
:100E9000CF1508F081CF20E040E060E0CE010E9455
:100EA000DC052196F5CF80E00895F894E82FE295CF
:100EB000EF70F0E031A1282F2F7081E090E001C0A9
:100EC000880F2A95EAF7982F9095932391A392A1E2
:100ED000892B82A3789408959091D70492FF06C03D
:100EE000282F28712830F9F4877F846093FF06C08B
:100EF000282F28712831F1F4877E84612091D8044D
:100F000020FF06C0382F38713830D9F4877F8160D0
:100F100021FF06C0282F28712831D1F4877E8161F6
:100F200094FD877E0895282F24712430F9F68B7F55
:100F30008860DCCF282F2471243101F78B7E8861F3
:100F4000DDCF382F3171313019F78E7F8860E0CFD7
:100F5000282F2171213121F78E7E8861E1CFCF9337
:100F6000DF93EC0182389105B1F108F040C0813384
:100F7000910509F49DC048F58932910509F48DC0A9
:100F80008A9709F49CC0C11522E5D20708F0BDC0BC
:100F9000C11531E5D30708F024C1C83ED10508F0DA
:100FA000A3C0C13ED10588F5C83AD10508F08EC06E
:100FB000C53AD10508F0F6C0C130D10531F120970E
:100FC00021F1C430D10508F545C08533910509F4F8
:100FD0005FC0C997C1F68091D704837009F036C10C
:100FE0008091D80483FF11C0C9E2D0E00EC0833ED7
:100FF000910599F170F4803E910501F1823E9105D1
:1010000011F68091D70482FD21C0CE01DF91CF91EE
:101010000895863E910561F1873E910571F1843E08
:10102000910509F0B0CF8091D80481FFEECF809177
:10103000D704C7EED0E084FD0DC0E7CF8091D70480
:1010400080FD33C09091D80490FFDFCFC3EED0E095
:1010500084FFDBCFD0E0C0E0D8CF8091D70482FD01
:10106000F2C09091D80490FDF1C084FFCECFF2CFB2
:101070008091D70483FDDDCFC8CF8091D70483FD55
:10108000E8C09091D80491FFF0CFC4EED0E0BDCF7E
:101090008091D70485FFB9CFA7CF8091D70485FD74
:1010A000DBC08091D80483FFB0CFC9E3D0E0ADCFDF
:1010B0008091D70486FFA9CFCAE2D0E0A6CF809165
:1010C000D70486FFA2CFC1E3D0E09FCFCF3BD105AD
:1010D00008F6C85AD0E0CC0FDD1FC75EDE4F09907E
:1010E000D881C02DD46491CFC11540E5D40708F054
:1010F00064C0C11580E4D80708F05CC0CE019A95A1
:1011000081159F4108F481CFA5CFC11536E5D307DE
:1011100018F5C11545E5D40708F07CC0C11584E574
:10112000D80708F072C09E01237033279C2F969534
:101130009695C115D34508F459C0C1E0D0E002C06E
:10114000CC0FDD1F2A95E2F730E2939FC0011124F6
:10115000C82BD92BDA6859CFC1158AE5D80778F49E
:10116000C11529E5D20708F060C0C11538E5D307DD
:1011700008F470CFDC2FCC27C06FD06A46CFCE01E9
:1011800090568115904208F065CF8D2F8F710E9487
:101190006C0790E0982F882788279F719C012C2B43
:1011A000E90141C0C55AD0E0CA5EDE4FC881D0E037
:1011B000D0642BCFDF70D06A28CFCE0183709927FF
:1011C00021E030E002C0220F331F8A95E2F7C69576
:1011D000C69580E2C89FE0011124C22BD32BDD68A5
:1011E00014CFDC2FCC27C16FD06A0FCFC1E0D0E085
:1011F00002C0CC0FDD1F2A95E2F720E2929FC001CA
:101200001124C82BD92BDC6800CFDC2FCC27C46F6E
:10121000D06AFBCE8C2F0E946C07C82FD0E0DC2F49
:10122000CC27CC27DF71D062F0CE8C2F8F700E943C
:101230006C0734E0D695C7953A95E1F7CF709C2FAF
:10124000EC01D069E2CEC2EED0E0DFCEC0EED0E05D
:10125000DCCEC6EED0E0D9CEC5E3D0E0D6CE8091CC
:101260006E03811110926E030895809590916D0325
:10127000982390936D03089580914A0390911903E8
:10128000981301C008958F5F8770FACF963080F56C
:10129000803170F540E1949F90011124820F932FCB
:1012A000911D682F677023E0969587952A95E1F741
:1012B000FC01EE0FFF1FE80FF91FE151FD4F50E059
:1012C00040E080E0219130E0062E02C0369527955F
:1012D0000A94E2F721703327042E01C0220F0A94EA
:1012E000EAF7822B4F5F5F4F4330510559F708955E
:1012F00080E00895963098F5803188F540E1949F1C
:1013000090011124820F932F911D282F277041E007
:1013100001C0440F2A95EAF723E0969587952A9510
:10132000E1F7FC01EE0FFF1FE80FF91FE151FD4F40
:1013300090E080E070E05191DF0111979B01082E51
:1013400002C0369527950A94E2F72170219525274A
:10135000242325272C9301968330910561F7089566
:10136000982F92959F7011F0892F94E0282F269541
:10137000269511F09E5F822F869509F09F5F892F39
:1013800008958093D9047093DB046093DA0480910C
:1013900001058430F9F48093E9008FEF9091E80023
:1013A000815095FD06C09AE69A95F1F700C081112B
:1013B000F5CF8091E80085FF0DC050E040E063E08C
:1013C00070E089ED94E00E9416038091E8008E772A
:1013D0008093E8000895BC0184E00E94C10908954B
:1013E000BC0183E00E94C1090895CF93DF93EC0113
:1013F000809112018823B1F18091D70487FF32C018
:1014000060E284E08093E9008FEF9091E8008150E2
:1014100095FD06C09AE69A95F1F700C08111F5CFC7
:101420008091E80085FF1BC08091120170E050E0C0
:1014300040E0811104C050E040E068E070E0CE017F
:101440000E9416038091E8008E778093E80080E286
:10145000FE01AFEDB4E001900D928A95E1F7DF91C6
:10146000CF91089568E081E0CDCF3E9A38B13F7BBF
:1014700028B120644FB7F89484ED93E0FC015191BA
:10148000CF0168E028B957FF38B9550F000000C0F8
:1014900038B96A95B9F7F4E0803D9F0779F74FBFF7
:1014A0008FE292E00197F1F700C000000895CF931A
:1014B000DF93C7E2D3E060E0CE010E94A322219631
:1014C000C11584E0D807B9F7DF91CF9108951F9334
:1014D000CF93DF93122F8430E0F46630D0F44031A4
:1014E000C0F490E2699FE001112450E0440F551FC1
:1014F000C40FD51F90EC899FC00DD11D1124632FFF
:10150000CE0187960E94A322612FCE0188960E9469
:10151000A322DF91CF911F910895B0E0A0E0E3E90D
:10152000FAE00C9446228BE2C82E83E0D82ED0E05D
:10153000C0E0760110E019C021E030E0C230D105F2
:101540001CF4F50125913491402F612F8C2F0E94BE
:10155000670A82E0A80EB11C0F5F003169F71F5FB8
:1015600080E2E80EF11C163019F0570100E0E4CFDC
:10157000219680ECC80ED11CC430D105D1F6CDB770
:10158000DEB7EAE00C946222CF93C82F6FEF81118F
:1015900062E283E290E00E94A3226FEFC11160E15A
:1015A00084E290E00E94A3226FEFC11168E085E21F
:1015B00090E00E94A322CF91089580E00E94C40A87
:1015C00060E086E290E00E94A3220E948D0A0E94C1
:1015D000570A81E00E94C40A08950F931F93CF9386
:1015E000DF93843030F5663020F5403110F520E28D
:1015F000629F8001112450E0440F551F040F151FF6
:1016000030EC839F000D111D1124C80187960E94A4
:101610008522C82FD0E0DC2FCC27C80188960E94F5
:1016200085229E01282BC901DF91CF911F910F9137
:10163000089590E080E0F8CF462F843040F4763073
:1016400030F4603120F4672F0E94ED0A089590E095
:1016500080E00895CF92DF92FF920F931F93CF9374
:10166000DF936C010091120580916F03082BC7E096
:10167000D0E010E0FC2EC8010C2E02C09595879595
:101680000A94E2F780FD0CC02197A0F7F12C8F2D72
:10169000DF91CF911F910F91FF90DF90CF90089530
:1016A000B6018C2F0E941C0B0E94AF07019761F3BB
:1016B000EECFCF93DF93EC010E942A0BBE010E9474
:1016C0001C0B0E94AF07DF91CF910895FC0183812D
:1016D0009481892B29F08081918189238F3F51F456
:1016E00080E00895843FE1F717C0883EA8F0813F6D
:1016F000B9F712C0808191810E94590B92959F7019
:10170000963099F358F4925F9F70923048F7803F7B
:1017100019F040F7883E20F781E008959A5FF4CFF2
:1017200083E290E00E948522823289F484E290E094
:101730000E948522803159F485E290E00E94852242
:1017400091E0883009F090E0892F8170089580E061
:10175000FCCFCF9384E090E00E948522C82F82E2E4
:1017600090E00E948522982F8C2FCF91089546E01B
:1017700050E06CE170E08EEC93E00E9493221092B6
:10178000CD0308954F925F926F927F928F929F92B6
:10179000AF92BF92CF92DF92EF92FF92CF93DF93FF
:1017A000C090C403D090C503E090C603F090C70377
:1017B0008FB7F89440900B0550900C0560900D0584
:1017C00070900E058FBF530142018C189D08AE0822
:1017D000BF080E9460046093C4037093C5038093A4
:1017E000C6039093C703A0919B03EBE9F3E02A2F74
:1017F00030E04FEFC40ED41EE11CF11CC418D50814
:10180000E608F708A3132AC020939B032091CC037A
:10181000C0E0211108C02091CE03C22FC37019F07F
:10182000C22FC695C695209111012130C1F1222306
:1018300041F1223009F42CC1233009F434C1DF9185
:10184000CF91FF90EF90DF90CF90BF90AF909F909F
:101850008F907F906F905F904F900895418D528D43
:101860002A01712C612CC414D504E604F70420F479
:1018700021503F5F3296C6CF480D591D528F418F80
:10188000F8CF10920E016093C8037093C903809340
:10189000CA039093CB0381E080931101D0CF8C2FAA
:1018A0000E947306CC2359F2D0910E0181E1D89F9A
:1018B000D02D1124CFEECD0F0E94030581FF0BC068
:1018C00088EE8D0F823138F422E442E462E488E14C
:1018D00090E00E94DC05809112050E94B0098130E1
:1018E00009F0ADCFC53408F076C0D43438F022E426
:1018F00042E462E484E490E00E94DC05D53408F020
:101900006DC0C53008F472C0C73008F07EC0D63054
:1019100008F073C0DF3238F022E442E462E48FE280
:1019200090E00E94DC05D03338F022E442E462E427
:1019300080E390E00E94DC05D13338F022E442E4F9
:1019400062E481E390E00E94DC05D23338F022E4C7
:1019500042E462E482E390E00E94DC05D33508F4BF
:101960007FC022E442E462E483E590E00E94DC056B
:10197000C43408F059C022E442E462E483E490E015
:101980000E94DC05C53308F04FC022E442E462E463
:1019900084E390E00E94DC05C33208F471C0C432D5
:1019A00008F042C0D33248F022E442E462E483E229
:1019B00090E00E94DC05D533E0F5C43108F042C068
:1019C000D33108F442C022E442E462E483E190E0CF
:1019D0000E94DC053AC0C53409F08DC022E442E41F
:1019E00062E485E490E00E94DC058BCF22E442E4CF
:1019F00062E484E090E00E94DC0522E442E462E4D8
:101A000086E090E00E94DC0585CFC03308F482CFE9
:101A1000C03309F488CFC13309F48ECFC23309F43F
:101A200094CFC43508F49ACFC63308F008CFD53325
:101A300048F022E442E462E485E390E00E94DC05A1
:101A4000C43108F2C53108F0FACED43108F4F7CE2B
:101A500022E442E462E484E190E00E94DC05EFCEFF
:101A6000C43410F7D33408F086CFC53308F097CFCD
:101A7000D43308F08ACFC332D0F5D23208F492CFF3
:101A800022E442E462E482E290E00E94DC058ACF34
:101A9000C0930D018091CE03837080930C010E944E
:101AA000350A83E0F9CE8091CD0381110E94B70BF6
:101AB0004091C8035091C9036091CA037091CB0350
:101AC0002FB7F89480910B0590910C05A0910D050E
:101AD000B0910E052FBF841B950BA60BB70B40973B
:101AE000A105B10508F4ABCE10921101A8CEC33206
:101AF00009F0A8CF57CFC43508F0A1CE2FCFEEEC18
:101B0000F3E089E080838091130190911401A0910A
:101B1000150181839283A3838FE784838FEF85836D
:101B20000E94B70B0895ACE0B0E0E9E9FDE00C9449
:101B300042228E010F5F1F4F8CE0F80111928A95AF
:101B4000E9F797E4E92E91E0F92E68012DE4622E81
:101B500021E0722E88248394912CF70181917F01DA
:101B60008F3F09F446C0F894E82FE295EF70F0E05B
:101B700021A18F70A40102C0440F551F8A95E2F77E
:101B8000CA01922F982B91A392A18095892382A3B9
:101B9000789400C0EDE4F1E021E030E0B12CA12C1C
:101BA00041914F3F09F471C0A42FA295AF70B0E0EE
:101BB00090968C9190E04F7002C0959587954A95CC
:101BC000E2F780FD62C0C901A82AB92A220F331F9B
:101BD00051E0ED35F50721F7F701319780818F3F0F
:101BE00011F00E94550780E58A95F1F7F601B18260
:101BF000A082F2E0CF0ED11C6E147F0409F0ADCFAD
:101C00004CE050E0B80183E793E00E94C722892BA3
:101C100009F43EC08CE0F801A3E7B3E001900D9217
:101C20008A95E1F781E0809372030E946C0490939F
:101C300071038093700320917003309171034FB74B
:101C4000F89480910B0590910C05A0910D05B09131
:101C50000E054FBF821B930B0597F0F04CE050E050
:101C600063E773E08FE893E00E94C722892BC9F0F5
:101C70008CE0E3E7F3E0AFE8B3E001900D928A95E2
:101C8000E1F781E01092720308C090E080E09CCF01
:101C9000809172038111CFCF80E02C96EEE00C94FE
:101CA0005E2280E0EFCF80916D0390916C03892BD1
:101CB0008093CE0290916E039923A1F0892B80939B
:101CC000CE02809112018823E1F18091D70487FF31
:101CD00038C08EE1E0EDF2E090E08150A0F5911186
:101CE0000E942F0940E250E06CE473E08EEC92E039
:101CF0000E94C722892B21F180E2EEECF2E0ACE4F5
:101D0000B3E001900D928A95E1F7E091D204F09151
:101D1000D3043097A9F080911201882359F0809163
:101D2000D70487FF07C08091CE028093CF0286E060
:101D30008093CE020280F381E02D8EEC92E0099533
:101D4000089586E0C7CF2191222339F29F5FC5CF46
:101D500090E080E00E94ED0490E080E00E94D704D3
:101D600010926C030E94530E0895809312050E94F6
:101D7000A80E089580911205982F9670963021F440
:101D800088600E94B50E0895877FFBCF21E030E088
:101D900001C0220F8A95EAF72095809112058223CF
:101DA0000E94B50E089590914B03809589238093EE
:101DB0004B03282F277091F4282F082E000C330B8B
:101DC0009217130659F09091D80492FF07C0859599
:101DD000859585950E94C60E10924B030895CF936A
:101DE000C091D804C2FB992790F9981791F080FB15
:101DF000C2F9C093D8046091D70484E090E00E94B7
:101E0000A3226C2F82E290E00E94A32282E00E9433
:101E1000D30ECF91089521E030E001C0220F8A95C2
:101E2000EAF780911205822B0E94B50E08958093E7
:101E30006F030E94A80E089510926D038091120105
:101E4000E0EDF2E0882361F08091D70487FF08C0BD
:101E50008EE1DF011D928A95E9F70E94A80E089590
:101E600086E0F7CFAAE2B0E0E8E3FFE00C944D2271
:101E700083E095E02091F100DC012D93CD01B5E0E8
:101E80008B309B07B9F780910405833009F472C049
:101E9000B8F4813009F449C0823009F4B3C08091AC
:101EA000E80083FF8BC280910305909104059A306E
:101EB00008F084C2E92FF0E0E152FD4D0C9431228C
:101EC0008A3009F48EC08B3009F471C0893039F73B
:101ED00080910305813219F78091070590910805DB
:101EE000009711F00297D9F68091E800877F8093E0
:101EF000E8008091E80082FF38C09091F300809163
:101F0000F200029731F48091F100813011F08630B7
:101F100021F48091F1008093DE048091E8008B77BA
:101F20008093E8000E944003BACF80910305813A74
:101F300009F0B5CF8091E800877F8093E800809119
:101F4000070590910805892B61F460E28FED94E01C
:101F500070E00E94EC038091E8008B778093E800AA
:101F60009ECF60E090E080E0F3CF80910105811189
:101F7000C0CF95CF80910305813A09F090CF809131
:101F8000070590910805892B09F089CF8091E80019
:101F9000877F8093E8008091E80080FFFCCF8091EC
:101FA00012018093F1008091E8008E77B9CF809183
:101FB0000305813209F073CF8091070590910805E0
:101FC000892B09F06CCF8091E800877F8093E8002F
:101FD0000E94400380910505809312010E941C0F0E
:101FE0005ECF80910305813209F059CF8091E800DE
:101FF000877F8093E8000E944003809106058093CC
:10200000DD044DCF80910305813A09F048CF8091DE
:10201000E800877F8093E8008091E80080FFFCCF94
:102020008091DD04BECF803899F0823809F0C6C1B6
:10203000809107058F70873008F0C0C18093E90058
:102040008091EB0085FB882780F91092E90006C09B
:102050008091FF0490910005911182609091E800B9
:10206000977F9093E8008093F1001092F1008091A7
:10207000E8008E779FC1882309F48DC1823009F072
:102080009DC180910505811190C1809107058F70D8
:102090002FEF280F263008F091C18093E90020919E
:1020A000EB0020FF82C1933031F48091EB0080621D
:1020B0008093EB007AC19091EB0090619093EB00DC
:1020C00021E030E001C0220F8A95EAF72093EA0070
:1020D0001092EA008091EB008860EACF81116EC116
:1020E000109105051F778091E3008078812B809304
:1020F000E3008091E800877F8093E8000E9440031E
:102100008091E80080FFFCCF8091E300806880939D
:10211000E30082E0111183E0809301054FC18058F4
:10212000823008F04BC120910505309106052C3D09
:10213000E3E03E07A1F583E08A838AE289834FB713
:10214000F894DE01139620E03EE051E2E32FF0E048
:1021500050935700E49120FF03C0E295EF703F5F7A
:10216000EF708E2F90E0EA30C0F0C7968D939D936C
:102170002F5F243159F74FBF8091E800877F80930C
:10218000E8006AE270E0CE0101960E94EC038091C3
:10219000E8008B778093E80011C1C096E7CF80916B
:1021A000070590910805432F55274330510509F441
:1021B0004AC078F54130510509F47AC08BE590E0CA
:1021C000EBEAF4E04230510509F0F8C02091E80054
:1021D000277F2093E8002091090530910A05821796
:1021E000930708F49C0140E02115310509F065C012
:1021F000411163C08091E80082FDC9CF8091010543
:10220000882329F2853019F28091E80083FFF2CF0C
:10221000BECF4132510509F43CC04232510509F0AC
:10222000CDC08330910508F0C9C0FC01EE0FFF1F3F
:10223000E054FD4F0190F081E02D83549D4FDC016F
:102240008C9190E01AC0332721303105D1F021154F
:10225000310561F02230310509F0B0C0E8E1F5E068
:10226000E4918E2F90E0E8E1F5E007C0EAE4F5E0C4
:10227000E4918E2F90E0EAE4F5E0009709F49EC027
:10228000A5CFEEE3F5E0E4918E2F90E0EEE3F5E0EC
:10229000F4CF8330910508F091C0880F991FFC019D
:1022A000EA53FD4F0190F081E02D89E090E08ECF60
:1022B00082E190E0E6E0F5E089CF80910105882396
:1022C00009F465CF853009F462CF8091E80083FD81
:1022D0005ECF8091E80082FD8DCF8091E80080FF85
:1022E00083CF9091F3008091F2002115310519F010
:1022F0008830910550F041E0089709F040E0809166
:10230000E8008E778093E8006FCF44914093F1000E
:102310003196215031090196E8CF803809F04EC03E
:102320008091E800877F8093E80080910205809388
:10233000F1009DCE811142C0109105051230F0F5DB
:102340008091E800877F8093E800109302050E9447
:102350004003112311F084E005C08091E30087FD64
:10236000FACF81E08093010542E061EC81E00E94B8
:102370005F0342E261EC84E00E945F0342E261ECB1
:1023800082E00E945F0342E260EC83E00E945F0310
:102390008091010513C080910505813079F481E0B9
:1023A000933009F080E0809300051092E90080915D
:1023B000E800877F8093E8000E9440038091E80056
:1023C00083FF0AC08091E800877F8093E8008091B6
:1023D000EB0080628093EB00AA96E3E00C94692204
:1023E0000E941C0F2FE78AE196E021508040904028
:1023F000E1F700C0000088E19AE00FB6F894A895D4
:10240000809360000FBE90936000FFCF882321F07F
:102410000E9435090E94530E0895882339F0909147
:102420006D03982B90936D030E94530E089588239B
:1024300051F19CEF980F913A40F4682F8EEC92E0A6
:102440000E9478040E94530E089590E2980F9830ED
:1024500050F4877091E001C0990F8A95EAF7892FAF
:102460000E943509EFCF9BE5980F933028F490E058
:1024700080E00E94ED040895885A873120F490E0AE
:1024800080E00E94D7040895CF93C82F8823D9F104
:102490008CEF8C0F813AC8F580911201882311F1DD
:1024A0008091D70487FF1EC0EC2FE695E695E69550
:1024B000F0E0E253FD4F828190E04C2F477021E025
:1024C00030E002C0220F331F4A95E2F782239323A4
:1024D000892B91F06C2F8EEC92E00E9478040E9480
:1024E000530E0AC0E0EDF2E086ED92E02191C217B2
:1024F00089F38E179F07D1F76C2F8EEC92E00E9424
:10250000A2040E94530ECF91089580E28C0F883070
:1025100068F4C77021E030E001C0220FCA95EAF7E5
:1025200080916D03822B80936D03EBCFEBE5EC0F75
:10253000E33040F4F0E0EA5EFE4F808190E00E94DC
:10254000ED04E1CFC85AC731F0F6EC2FF0E0EE0F02
:10255000FF1FE75EFE4F808191810E94D704D3CF99
:102560001F93CF93DF93182FD0E0C0E0893311F48D
:10257000C0E5D0E0812F0E944412209739F4812FCA
:102580000E941712DF91CF911F9108958FEC97E071
:102590000197F1F700C000002197EFCF0F931F9331
:1025A000CF93DF93C62FD42F022FFC018281882383
:1025B000A9F0609311050E946C049093100580931C
:1025C0000F05C77081E001C0880FCA95EAF70E9425
:1025D0000D12DF91CF911F910F91089580911105F8
:1025E00068133DC020910F05309110054FB7F89446
:1025F00080910B0590910C05A0910D05B0910E05F1
:102600004FBF821B930B883C910548F510E21D0FCC
:102610006D17B9F080E2860F883040F4C77081E012
:1026200001C0880FCA95EAF70E940612183048F4D4
:1026300081E09D2F977001C0880F9A95EAF70E945C
:102640000D12802F0E94B012183018F6D77081E05A
:1026500001C0880FDA95EAF70E940612BACFC77058
:1026600081E001C0880FCA95EAF7F6CF90E080E0DC
:102670000E948D22883E9E4F19F40E94900B08956F
:1026800080E0089568EE7EEF90E080E00E94C12235
:1026900060E082E090E00E94A32260E083E090E0AE
:1026A0000E94A32210926F0360E084E090E00E94F9
:1026B000A32264E082E290E00E94A32260E085E031
:1026C00090E00E94A32260E086E090E00E94A322B6
:1026D0006FEF87E090E00E94A32240E050E0BA0153
:1026E00088E090E00E94B52260E08DE090E00E94DA
:1026F000A32240E050E0BA0188E190E00E94B522B8
:1027000060E087E190E00E94A32240E050E0BA013F
:102710008CE190E00E94B52270E060E080E290E001
:102720000E94C12240E050E0BA0188E190E00E949E
:10273000B52280E00E94C40A0E94DD0A40E050E019
:10274000BA018FE090E00E94B52240E050E0BA016B
:1027500083E190E00E94B5220895A5E0B0E0E3EBAC
:10276000F3E10C943F228C01FC0183819481892B3D
:1027700031F08081918189238F3F09F0B1C5259681
:10278000E1E10C945B220E942A0BF82E682F8981CC
:102790009A810E947A0969817A818F2D0E941C0B8F
:1027A0007C01F8018281882309F48DC597012251AB
:1027B0003F452031310508F059C58FEF93E00E9465
:1027C0008522811128C0FEEEEF0E57E2852E53E0E0
:1027D000952EE11032C01C821B82442443944AE0AF
:1027E000342E74018FEFE81AF80AC4010E94852282
:1027F00089831A82882379F09FEF980F933058F5D8
:102800008A83498292E0890E911CC7010E94852229
:102810008B83811121C080914B03877009F4AFCF66
:10282000F8018281882309F4AACF8091D80482FF1D
:10283000A6CF82E00E94D30EA2CF811424E092069C
:1028400051F3C4010E948522811101C0EA943FEF37
:10285000831A930ABECF4701FE0131967F01F7012B
:102860002081222309F4BDCF213009F047C0918196
:102870008281913031F4F2E0EF0EF11C0E94B0122F
:1028800007C0923049F422E0E20EF11C0E9444128B
:102890003FEFE31AF30AE3CF933031F432E0E30E73
:1028A000F11C0E941712F4CF943021F08FEFE81A38
:1028B000F80AEECF92E0E90EF11C30E020E0B7011B
:1028C0006F5F7F4FF70141818053990B8A309105EB
:1028D00050F021503109E0F28FEC97E00197F1F7C9
:1028E00000C00000F6CF329EF001339EF00D11249F
:1028F0009C012E0F3F1F842F7B01E1CFE22FF0E0E0
:10290000E555FE4F5490822F86958695869590E0EA
:10291000FC01E556FE4F64902770712C022E02C018
:10292000759467940A94E2F7E1E06E227724FC0143
:10293000E557FE4FA490B12C022E02C0B594A79487
:102940000A94E2F7F1E0AF22BB24FC01E558FE4F08
:10295000C490D12C02C0D594C7942A95E2F721E007
:10296000C222DD246114710419F081EE0E94441228
:10297000A114B10419F086EE0E944412852D0E9424
:10298000B012A114B10419F086EE0E94171261145E
:10299000710419F081EE0E941712C114D10409F4D8
:1029A00077CF8CE26BCF81E00E940B0F0E94BA0EB2
:1029B00032CF81E00E94C60EF9CF82E0F5CF95EFCD
:1029C000E9169CE5F90609F46CC008F466C027E234
:1029D00045EE66EEF6EFEF16FCE5FF0609F46FC470
:1029E000882309F48EC41092110523E0E2162DE528
:1029F000F20608F05DC03AEFE3163CE5F30630F46A
:102A0000C70182509C45449708F05FC00E94A90B03
:102A10009093D8048093D704F2E1EF16FCE5FF060B
:102A200009F478C108F0B6C039E0E3163CE5F306D6
:102A300009F44EC108F079C095E0E9169CE5F90665
:102A400009F436C108F05FC0F3E0EF16FCE5FF06BD
:102A500009F426C108F028C18091D704816032E0D2
:102A6000E3163CE5F30609F492C06091D704F090B8
:102A7000D80484E090E00E94A3226F2D82E290E0CF
:102A80000E94A3220E941C0FC6CE27E245EE65EEEF
:102A900016C426E241EE60EE12C427E245EE64EE73
:102AA0000EC426E241EE62EE0AC428E241E0EFCF16
:102AB00085EAE8168DE5F80609F4A8CFF0F4E1E61A
:102AC000EE16EDE5FE0609F4A1CF96E1E9169CE5C8
:102AD000F90609F091C480916D038A7A91E009F4B6
:102AE00090E09093EE0269E2811165E38EEC92E052
:102AF0000E94A2040E94530E8ECEC7018D5A9D459E
:102B0000039718F783CF87E0E8168CE5F80609F4F9
:102B1000DBC08091D704806198E0E9169CE5F90656
:102B2000B0F18091D704806432C0EDE0EE16ECE5A0
:102B3000FE0609F4D7C0A0F48091D7048E7F2BE065
:102B4000E2162CE5F20619F18091D7048C603CE086
:102B5000E3163CE5F306D8F08091D7048D7F17C0CB
:102B60008FE0E8168CE5F80609F4CCC008F4BEC086
:102B7000E0E1EE16ECE5FE0609F4C8C08091D7044A
:102B80008F7BF1E1EF16FCE5FF0609F06ECF809335
:102B9000D7046BCF2FEFE2162CE5F20609F4C4C080
:102BA000D8F58AEFE8168CE5F80609F485C0D0F46C
:102BB000E4E1EE16ECE5FE0609F4C4C008F4B0C08A
:102BC00025E1E2162CE5F20609F04FCF8091D704FB
:102BD00082FB992790F921E0922790FB82F990FBE4
:102BE00083F9D5CF3CEFE3163CE5F30609F482C048
:102BF00008F466C09DEFE9169CE5F90609F47EC06D
:102C00008091D8048360EEEFEE16ECE5FE0609F045
:102C10002CCF8093D80429CFF1E6EF16FDE5FF060F
:102C200009F49BC0A0F431E0E3163DE5F30609F496
:102C300092C008F47DC060E092E0E9169DE5F906D7
:102C400009F013CF8EE090E00E94A3220ECFEDEAB0
:102C5000EE16EDE5FE0601F168F49091D704892F98
:102C60008E7F90FF816025EAE2162DE5F20609F4D9
:102C70008ECFFBCE3EEAE3163DE5F30679F18FEA0F
:102C8000E8168DE5F80609F0F0CE9091D804892F6A
:102C9000877F93FF8860BDCF8091D8048860B9CFCB
:102CA0008091D704826073CF8091D70484606FCF06
:102CB0008091D70488606BCF8091D8048160A9CFC0
:102CC0008091D8048260A5CF8091D70480625FCFC5
:102CD0000E941C0F8091D704806859CF8091D8043E
:102CE000877F97CF8091D7048B7F51CF8091D70476
:102CF000877F4DCF8091D8048E7F8BCF8091D80471
:102D00008D7F87CF8091D7048F7E41CF8091D7046C
:102D10008F7D3DCF0E941C0F8091D7048F7737CFD6
:102D20008091D704837F33CF8091D8048C7F71CF7B
:102D30008091D804982F909591708E7F892B90FB6D
:102D400081F967CF0E941C0F9091D704892F97FBC0
:102D500087F980581CCF61E075CF9091D704892FF7
:102D60008F7E94FF806113CF8091EE0269E2811122
:102D700065E38EEC92E00E947804BCCE42EC55E014
:102D80006DEC75E00E94100546CD4DEC55E062EC0F
:102D900075E0F8CF43E955E06EE975E0F3CF4EE911
:102DA00055E063E975E0EECF47E755E065E875E08B
:102DB000E9CF45E855E067E775E0E4CF49E655E03F
:102DC0006BE575E0DFCF4AE355E06CE275E0DACF02
:102DD0000E941C0FEFE7FAE126E0E150F0402040AE
:102DE000E1F700C000000E944F048091D80482FBEC
:102DF000882780F991E089270E94EF0EF8018281EF
:102E0000E080F180882309F445C0C7010E942A0BA5
:102E1000D82E682FC7010E947A09B7018D2D0E9414
:102E20001C0B0E94AF077C01882EF801D280B58070
:102E3000B2943FE0B32280914B038770C1F0AD2C78
:102E4000DD20B1F08F2D807F803421F080E28E0D67
:102E5000883068F08091D80482FF09C082E00E9427
:102E6000D30E80914B038770AA24A3948111A12CC7
:102E70009F2C92942FE09222FBE0F91508F479C080
:102E8000E92DF0E0E751FD4D0C94312281E0B4CF03
:102E900080E0B2CFC7010E944609D82EBECF2F2DA9
:102EA0002F70C22E8F2D807F19F0C29490EFC9220F
:102EB000DD20B9F0CC2069F080E28E0D883010F072
:102EC000811009C080916D03C82AC0926D030E94D1
:102ED000530E8E2D4CC080916C03C82AC0926C0397
:102EE000F6CF8E2D0E941712CC2009F442C080E24A
:102EF0008E0D883010F0811004C08C2D0E94350991
:102F000006C0C09480916C03C822C0926C030E94DA
:102F1000530E2FC03F2D3F70C32E8F2D807F8032E8
:102F200019F0C29480EFC822882089F081E08816C9
:102F300009F468C0DD2009F472C0BB2009F468C040
:102F4000F801858180FFC5CF8F70858361C0209196
:102F5000D80422FD35C0DD2069F1CC2039F0809104
:102F60006D03C82AC0926D030E94530E80E00E9438
:102F70004412292D2850330B2430310510F40E94BF
:102F80000305AA2009F4FBCB80914B0380FDF7CB0E
:102F9000F80112828595859585950E940B0FC801D1
:102FA0000E94AD1380914B038595859585950E9470
:102FB000C60EE5CB80E00E941712CC20D1F29DCF47
:102FC000DD2099F090916E038C2D892BB11003C0F8
:102FD0000E940D12CECFE1E0BE12FACF22FFC9CF80
:102FE000981739F280936E03C4CFB11006C00E94C7
:102FF0002F098C2D0E940612BCCFF1E0BF1609F4F8
:10300000B8CFF5CFDD2031F025E02B1508F4B1CF96
:103010008C2DDECF34E03B1508F4ABCFEACFBB20DC
:1030200041F3F9E38F1209C02FEF33EF81E0215014
:1030300030408040E1F700C000008E2D0E94171242
:1030400098CF8F2D86958695837061F0813009F039
:1030500090CFC7019370D11002C090E080E00E9431
:10306000D70487CFC7019370D11002C090E080E0F1
:103070000E94ED047ECF8F2D837091F5D11079CF12
:103080004E2D429546954770440F440F8E2D8F70FC
:10309000042E01C0880F0A94EAF72E2D2071E4FE59
:1030A00007C02FE030E001C0220F4A95EAF72095D3
:1030B0003F2D369536953370323069F050F440919B
:1030C0006F03313029F0822B84230E94170F51CFD8
:1030D000842B822BFACF282B80916F038227F5CF88
:1030E0008695DD2011F08F2D8170882309F441CF62
:1030F0004E2D429546954770440F440F8E2D8F708C
:10310000042E01C0880F0A94EAF72E2D2071E4FEE8
:1031100007C02FE030E001C0220F4A95EAF7209562
:103120003F2D369536953370323069F050F440912A
:103130001205313029F0822B84230E94B50E19CF5D
:10314000842B822BFACF282B809112058227F5CF72
:103150009F2D9F70F92EDD2029F0892F0E940B0FE3
:103160008E2D36CF8E2D0E9406128F2D0E94C60EF8
:1031700000CF8E2DE2EF8E16B1F1E81570F0F0EF72
:103180008F16D1F021EF821691F0DD2009F45EC098
:10319000B1109FCE8F2D8F712AC033EF831651F15E
:1031A00094EF8912F2CF8091D80482FD2FC08F2D29
:1031B0008F71DD20D9F21BC0DD2081F0E4E0EB153A
:1031C00008F4D7CE2F2D2F7181E090E001C0880F39
:1031D0002A95EAF7909112058927AFCFF5E0FB1504
:1031E00008F4C7CEEFCF8F2D8F71D110BFCF0E94C3
:1031F0000B0FBFCE80E0DD2009F49FCF9F2D9F7184
:1032000081E001C0880F9A95EAF797CFDD2099F009
:103210002F2D2F71F22E822F0E940B0F8091D80438
:1032200082FF07C038E0F39EC001112483608093C1
:103230004B038F2DDCCF81E00E94D30E81E08B15F4
:1032400008F097CE82E00E94D30E93CEBB2059F0B7
:10325000893309F0F2CE9FEFE3EFF1E09150E040C7
:10326000F040E1F7E8CE8F2D8F7180CFF0E1EF16BF
:10327000FFE5FF0609F497CB21E1E2162FE5F20600
:1032800009F49BCB93EFE9169CE5F90609F401CC10
:1032900008F095CBF8EDEF16FCE5FF0609F4F5CB49
:1032A00029EDE2162CE5F20609F4FFCB37EDE31623
:1032B0003CE5F30609F094CB26E241EE61EEC8014D
:1032C0000E94CE12A8CA30E1E3163FE5F30609F4E6
:1032D00070CB91E1E9169FE5F906A1F682E06ACB91
:1032E00085E0DE01119601900D928A95E1F7F801D3
:1032F000228189819A81211146CA0E944609F82EAD
:103300004ACAF6E1EF16FCE5FF0609F42DCD8091DF
:103310006D0382722AECE2162CE5F20609F44ECD1A
:10332000E0F595ECE9169CE5F90609F433CDE0F4F7
:10333000F3ECEF16FCE5FF0609F420CD08F025CDEF
:1033400032ECE3163CE5F30609F058CD8091CE034C
:1033500091E089278093CE03109211018091CD03D3
:1033600081608093CD0357CA97ECE9169CE5F90676
:1033700009F41ACD08F413CDF8ECEF16FCE5FF06BE
:1033800009F417CD4BE555E069E675E029ECE21646
:103390002CE5F20609F4F6CC31CD3EECE3163CE523
:1033A000F30609F438CAA8F4ECECEE16ECE5FE06D8
:1033B00009F409CD4CE255E06AE375E0FDECEF1647
:1033C000FCE5FF0608F4DECC61E081E00E94A9057F
:1033D00022CA26EDE2162CE5F20640F461E082E016
:1033E00030EDE3163CE5F30688F315CA8DE5E816E3
:1033F000F80609F410CA02CD9AE5E9169DE5F9062A
:1034000009F444CD78F4E114FCE5FF0609F4E0CCBE
:103410002EEDE2162CE5F20609F0F0CC0E944213E4
:103420000E94F0113CE5E3163DE5F30609F4DDCC1E
:1034300008F42ECD97EAE9169DE5F90689F3DECC6E
:103440001F93CF93DF9380911803807F09F049C0C9
:1034500080911503882309F444C080914A03D091D8
:1034600019036091130370911403A0911603B09196
:103470001703C62FC72316E0D81799F190E01097CD
:1034800011F0CF3F19F401968770F6CF189F900185
:10349000199F300D1124F901E65EFC4F418147135D
:1034A000F2CF40814613EFCF42814111ECCF4381EF
:1034B00054814A1B5B0B483C510528F78091180347
:1034C0008F70806180931803F901E15EFC4F808169
:1034D0008F708061808383E193E00E94AD130E942E
:1034E0003C09DF91CF911F910895A1E1B0E0EBE796
:1034F000FAE10C9446228C0185E0F801DE011D966C
:1035000001900D928A95E1F7F801E28083E1A82EFF
:1035100083E0B82E60911603709117036115710551
:1035200009F426C19091130340911403892F842339
:103530008F3F09F41DC120813181C380D480F09078
:103540001503F601E61BF70BFF2009F4DCC08091A0
:103550001803582F507FE83CF10508F09FC0511127
:103560006BC0FE2C431314C0921312C0E11010C0A4
:103570008F70806180931803C5010E94AD13809104
:103580001803F80185838F2D6196EAE00C9462227E
:10359000C114D10429F0822F83238F3F09F003C186
:1035A00080E0F82FF170DF2E80FF3CC080914A034D
:1035B0004091190356E0841315C02D873E878D85F1
:1035C0009E850E94590B292F22952F702230F0F0F2
:1035D000243018F59F70F1F0F8019581907FD1F4B7
:1035E000D12C1EC090E0589FF001599FF00D11247E
:1035F000E65EFC4F6181361306C06081261303C06E
:103600006281E6120FC001968770D5CF9F7011F0CE
:10361000882331F3805E883018F3C8010E94AD130F
:10362000FD2CB1CFEE2009F4AECF8091180381605C
:1036300080931803F12CA7CF431306C0921304C044
:10364000F801EE2009F479C0C8010E94660B8823B6
:1036500009F1EE20F9F080911803803270F020918A
:1036600013033091140338872F831986DB86CA86AB
:103670008C87CE0107960E94AD1386E0F801A3E186
:10368000B3E001900D928A95E1F70E94201AFF2481
:10369000F39479CFC8010E94AD13F9CF51110AC03C
:1036A00083E193E00E94AD1386E0F50111928A95C3
:1036B000E9F7C0CF43130FC092130DC0E1100BC048
:1036C000F8018583C8010E94AD1386E0F5011192CF
:1036D0008A95E9F758CFC8010E94660B8823D1F27A
:1036E000EE20C1F280911803803238F2209113034A
:1036F000309114033A8329831B82DD82CC828E832E
:10370000CE010196B8CFE83CF105F8F6FE2CEE208C
:1037100009F243131FC092131DC08091180380FD4E
:1037200010C0982F907F69F0F8018583903F31F0A9
:10373000982F907F905F8F70892B8583C8010E949E
:10374000AD1386E0F801A3E1B3E001900D928A95F4
:10375000E1F719CFC8010E94660B81118ECF8091CD
:103760001803816080931803C8010E94AD130BCF2A
:10377000EE2009F48FCFC8010E94660BF82E882333
:1037800009F488CF86E0F801A3E1B3E001900D923F
:103790008A95E1F780911303909114030E94590BCD
:1037A0000E94201AF0CE81E08E25FBCEA7E1B0E08A
:1037B000ECEDFBE10C944D224B8B5C8B6D8B7E8B87
:1037C0008F8B611110926C031A8A198A85E0FE01B1
:1037D0007396DE011D9601900D928A95E1F786E0C1
:1037E000FE013D96DE01179601900D928A95E1F754
:1037F000CE0107960E94751A882359F016E0809131
:103800004A0390911903891343C06796E3E00C942F
:10381000692286E0FE013796DE01119601900D9235
:103820008A95E1F78A859B85892B41F38F8198855D
:1038300089238F3F19F32091190330E0C9010196C4
:103840008770992740914A034817190671F40E941E
:103850001C0F1092190310924A0386E0E3E1F3E093
:10386000DF011D928A95E9F7C9CF96E0929FD001BA
:10387000939FB00D1124A65EBC4FFE0131960190BE
:103880000D929A95E1F7809319030E943C09B6CFF7
:10389000819FC0011124865E9C4F0E94751A882367
:1038A00009F4B3CF80914A0390E00196877099277D
:1038B00080934A03A4CF1F920F920FB60F92112448
:1038C0002F933F934F935F936F937F938F939F9328
:1038D000AF93BF93CF93DF93EF93FF93D091E90022
:1038E000DF708091EC00C82FC17080FDC0E810929D
:1038F000E9008091F000877F8093F00078940E9427
:10390000320F1092E9008091F00088608093F000FF
:10391000CD2BCF70C093E900FF91EF91DF91CF9154
:10392000BF91AF919F918F917F916F915F914F91D7
:103930003F912F910F900FBE0F901F9018951F92DF
:103940000F920FB60F9211242F933F934F935F93D3
:103950006F937F938F939F93AF93BF93EF93FF9357
:103960008091E10082FF09C08091E20082FF05C0E2
:103970008091E1008B7F8093E1008091DA0080FFED
:1039800024C08091D80080FF20C08091DA008E7F13
:103990008093DA008091D90080FF9DC080E189BDCD
:1039A00082E189BD09B400FEFDCF81E0809301056D
:1039B0008091DC04811109C00E94C6020E9491031B
:1039C0008091E20084608093E2008091E10080FFBA
:1039D00017C08091E20080FF13C08091E2008E7FCB
:1039E0008093E2008091E20080618093E200809108
:1039F000D80080628093D80019BC85E080930105CF
:103A00008091E10084FF2BC08091E20084FF27C0F9
:103A100080E189BD82E189BD89B5982F917080FFD1
:103A2000FBCF8091D8008F7D8093D8008091E100FA
:103A30008F7E8093E1008091E2008F7E8093E20090
:103A40008091E20081608093E200809102058823EA
:103A500009F447C084E080930105809101058091BD
:103A6000E10083FF27C08091E20083FF23C08091A3
:103A7000E100877F8093E10082E08093010510924E
:103A800002058091E1008E7F8093E1008091E20049
:103A90008E7F8093E2008091E20080618093E2005B
:103AA00042E060E080E00E945F038091F000886067
:103AB0008093F000FF91EF91BF91AF919F918F9113
:103AC0007F916F915F914F913F912F910F900FBE1A
:103AD0000F901F90189519BC109201051092DC04EC
:103AE00074CF8091E30087FD93E090930105B5CFFB
:103AF00078941F921FB61F9211248F939F93AF93B8
:103B0000BF9380910B0590910C05A0910D05B0918C
:103B10000E050196A11DB11D80930B0590930C0518
:103B2000A0930D05B0930E05BF91AF919F918F911A
:103B30001F901FBE1F9018951F921FB61F92112431
:103B40008F939F93AF93BF938091D604811113C03D
:103B500080910B0590910C05A0910D05B0910E057B
:103B60004196A11DB11D80930B0590930C05A09368
:103B70000D05B0930E05BF91AF919F918F911F904E
:103B80001FBE1F901895CDB7DEB7E2970FB6F89419
:103B9000DEBF0FBECDBF85B7806885BF85B78068A3
:103BA00085BF84B7877F84BF0FB6F894A8958091AE
:103BB0006000886180936000109260000FBE80E812
:103BC00091E00FB6F89480936100909361000FBE6E
:103BD00083E597E09093CD028093CC020E94C602C9
:103BE0000E9491038091E20084608093E2007894C7
:103BF000809101058823A1F01091E9001F70909138
:103C0000EC00892F817090FD80E8182B1092E9005C
:103C10008091E80083FD0E94320F1F701093E9002D
:103C200082E084BD93E095BD9DE797BD80936E00D3
:103C30000E94900B811102C00E94DD0A07E411E08E
:103C4000D8018D918D018F3F11F00E945507B1E091
:103C50000D341B07A9F70DE411E0F80181918F01E4
:103C60008F3F11F00E945507F1E00D351F07A9F7AE
:103C70008CE0EFE8F3E0DF01282F1D922A95E9F7A9
:103C8000E3E7F3E0DF011D928A95E9F70E9436131E
:103C9000811102C00E94421382E090E00E948522BE
:103CA000809381030E94A90B9093D8048093D7043A
:103CB0000E94930DEFE1FEE43197F1F700C00000A0
:103CC0000E94930D80918F0380FF08C06FEF7FEFFC
:103CD00090E080E00E94C1220E944F0483E090E0C7
:103CE0000E9485220E94170F10929B038FEF9FEF77
:103CF0009093B5038093B4039093B7038093B60376
:103D00009093B9038093B8039093BB038093BA0355
:103D10009093BD038093BC039093BF038093BE0335
:103D20009093C1038093C0039093C3038093C20315
:103D30000E943613811104C00E9442130E947F0D1D
:103D400046E050E06CE170E08EEC93E00E9475225A
:103D50001092CD038091CE038C7F11F40E947F0DD1
:103D600080E091E09093D3048093D2048091010588
:103D7000853089F480E4F82E93E0E92E00E112E129
:103D800080910105853009F4D1C00E941C0F0E946A
:103D900003051092CC030E94930DA2E8B3E0BCA7E8
:103DA000ABA70FE8E02E03E0F02E4EE853E0D7017A
:103DB000E2E8F3E0219131918D919D914E175F07DB
:103DC00009F406C128173907A9F311E6212E11E0DD
:103DD000312EEFE8F3E0F8ABEFA7712CAFA5B8A94F
:103DE000CD90DD90B8ABAFA7EBA5FCA581919191EB
:103DF000FCA7EBA78C159D0509F48EC09C012C2512
:103E00003D253AAB29AB3EA62DA6612CAA24A3944E
:103E1000B12C89A99AA98A219B21892B09F46CC00C
:103E200086010A211B216EA27FA281E001151105E6
:103E300009F480E088A70E946C048160782F9AA71B
:103E400089A74EA15FA168A58AA50E94D61B012B58
:103E500031F0ADA5BEA58C918F3F09F00FC1412C6B
:103E6000042D10E080919B03800F912F911D0997E5
:103E70006CF1E8E08E2E912C801A910AB8016456FC
:103E80007C4FA4018CE993E00E94D422B8016C55C8
:103E90007C4FA40184EA93E00E94D422A401440F41
:103EA000551FB801660F771F6C547C4F84EB93E06D
:103EB0000E94D422B80164557C4FA4018CEA93E09F
:103EC0000E94D42288E0841980939B0380919B03F5
:103ED00090E0A52DB0E09D01220F331F2F533E4FE0
:103EE000AA0FBB1FBD016E537E4F41E0480F9415D2
:103EF00008F4C8C080939B036394AA0CBB1CEDA577
:103F0000FEA53196FEA7EDA7F0E16F1282CFEBA5DB
:103F1000FCA53297D182C082739420E1220E311C1D
:103F200036E073125BCF0E94600474C0809101057B
:103F3000843009F439C00E94C20B8091CC038111F6
:103F40000DC00E94730610920D018091CE03837004
:103F500080930C010E94350AE0921101F1E0F09388
:103F6000CC031092D60428E130E00FB6F894A8955F
:103F7000209360000FBEF092600083B7817F846061
:103F800083BF83B7816083BF7894889583B78E7F22
:103F900083BF0FB6F894A8958091600088618093E4
:103FA0006000109260000FBE80910005882309F424
:103FB000E7CE0E94930DEFE8F3E081919191892B78
:103FC00009F01CC28BE993E08E179F07B1F7D8CE9A
:103FD0002817390709F0F9CE0E946C048C018091F2
:103FE0007F039091800308171907A1F08FEF89A331
:103FF0008AA31BA20E946C048160782F9DA38CA3CE
:1040000049A15AA16BA18DA10E94D61B10938003D8
:1040100000937F030E94C20B0E94030590918E03C0
:10402000891721F080938E030E946004809101051E
:10403000843009F09BCE83E08093E9008091E80012
:1040400082FF94CE8091E80090E085FF05C00E9439
:10405000E502882361F191E08091E8008B778093FD
:10406000E800992309F482CEE981E150E33108F0B8
:1040700096C0F0E0EB50FD4D0C943122582E4424B4
:104080004394EECE90E0FC01E556FC4FD9015C91E3
:104090005183DB015C915187518A880F991FFC0184
:1040A000E556FC4F128E118E91E0842F1ECF00E258
:1040B00010E0CE0101966C018091E80085FD0AC0F8
:1040C0008091E8008B778093E8000E94E5028823C6
:1040D00099F3C1CF8091F100D6018D936D0101500C
:1040E000110951F7B8CF1A828AE08B8311C08A81F7
:1040F000823009F499C1833091F1813009F04FC0C9
:104100000E9460040E9437226B837C838D839E8390
:1041100080910105843009F029CE1091E9001F70CB
:104120009091EC00892F817090FD80E8182B82E03F
:104130008093E9008091E80080FF0DC050E040E0EE
:1041400060E270E0CE0101960E9416038091E800C3
:104150008E778093E8001F701093E90007CEFE0170
:104160003196D7018C9111969C91B2E0EB0EF11C27
:104170009283838332962BE933E02E153F0589F72E
:10418000C7CF8A81823059F46B817C818D819E8179
:104190000E94372286E290E00E94A322B9CF8FEFDF
:1041A0008983B6CF4C816B818A810E94ED0A982762
:1041B000892798279E838D83ABCF2D813E8132271F
:1041C000232732274C816B818A810E94670AA0CF06
:1041D0000E948D0A9DCF8A818138E9F088F4803869
:1041E00009F096CF4B8124EB429F412D1124809101
:1041F000CF0320E06091D00390E00E94480588CF73
:10420000823819F1833809F083CF8B8120E0409107
:10421000D1036C81F1CF60E08B810E94A9059B8165
:104220008091CE03911109C0982F937011F01092D4
:1042300011018C7F8093CE036BCF982F937011F474
:10424000109211018C7F8160F5CFEB818FE7E43014
:1042500020F4F0E0E35AFE4F80818093D20358CFE0
:104260008A818138E1F078F4803809F051CF80916B
:10427000D1033FEF839FC001112464EB70E00E94E3
:104280001D226B8345CF823879F0833809F040CF07
:104290008091CF038B838091D0038C8339CF809121
:1042A000CE038695869521CF8091D203873230F058
:1042B0008F3530F08E3930F083E017CF80E015CFA6
:1042C00081E013CF82E011CF0E94B70B21CF80E1B4
:1042D0008A831ECF1A8289ED08CFEA80FB80FE24F4
:1042E000EF24FE248E010F5F1F4FCC80C00ED12E15
:1042F000D11CC701895D9C4FC016D10609F408CFB7
:10430000A9EDEA16F10450F40E948522F801848395
:10431000BFEFEB1AFB0A0F5F1F4FEBCFD8011496CC
:104320001C92F6CF0A811B81102701271027FE015E
:1043300031966F01EC80E00EF12EF11CC801895D11
:104340009C4FE016F10609F4E3CE093D110528F46F
:10435000D60114966C910E94A322BFEFCB1ADB0A00
:104360000F5F1F4FEBCF0E94570AD2CE84E0B0CF31
:10437000EA80FB80FE24EF24FE248E010F5F1F4F96
:10438000CC80C00ED12ED11CC70187960C151D05FF
:1043900009F4BECEE114E3E0FE0658F40E94852243
:1043A000D80114968C93FFEFEF1AFF0A0F5F1F4F8F
:1043B000EBCFF8011482F7CF0A811B811027012768
:1043C00010279E012F5F3F4F6901EC80E00EF12E18
:1043D000F11CC80187960E151F0509F499CE011529
:1043E00033E0130728F4D60114966C910E94A3229F
:1043F000BFEFCB1ADB0A0F5F1F4FEBCF09BD19BD13
:1044000009B400FEFDCF8091D8008F7D8093D80045
:104410008091E00082608093E0008091E00081FD67
:10442000FCCF0E941C0FACCC86E290E00E9485225B
:104430001B821C821D828E836BCEAA1BBB1B51E18B
:1044400007C0AA1FBB1FA617B70710F0A61BB70B04
:10445000881F991F5A95A9F780959095BC01CD01A9
:104460000895EE0FFF1F0590F491E02D0994692740
:104470009627692778278727782708952F923F92D4
:104480004F925F926F927F928F929F92AF92BF9264
:10449000CF92DF92EF92FF920F931F93CF93DF9310
:1044A000CDB7DEB7CA1BDB0B0FB6F894DEBF0FBE6D
:1044B000CDBF09942A88398848885F846E847D84BA
:1044C0008C849B84AA84B984C884DF80EE80FD80BC
:1044D0000C811B81AA81B981CE0FD11D0FB6F89432
:1044E000DEBF0FBECDBFED010895DC01CB01FC01A5
:1044F000F999FECF06C0F2BDE1BDF89A319600B43D
:104500000D9241505040B8F70895F999FECF92BDF1
:1045100081BDF89A992780B50895A8E1B0E042E0FE
:1045200050E00C947722DC01A40FB51F415050409D
:1045300048F0CB01840F951F2E910E94A422415078
:104540005040D0F70895262FF999FECF92BD81BD36
:10455000F89A019700B4021639F01FBA20BD0FB6C1
:10456000F894FA9AF99A0FBE08950396272F0E949D
:10457000A4220E94A322252F0E94A422242F0C945F
:10458000A4220196272F0E94A4220C94A322FB01AF
:10459000DC0104C08D910190801921F441505040FC
:1045A000C8F7881B990B0895FB01DC0102C001903C
:1045B0000D9241505040D8F70895F894FFCF131052
:1045C0003B10DE113B10DE116E108F10DE118D11CD
:1045D0009A114F174F178A178A172118B917B91749
:1045E000B9173B18A818B918B91873207720C1203B
:1045F000D220DD20E820EB2030216421CF20CF2005
:1046000067216A216D219221B321B621B821DC21D5
:104610004C04F5094B04F009EB094A04FFFF00FFC5
:10462000000301C8FFB4818283E200E900EA00B51B
:1046300000B600B700CD008301CC008A019201943E
:10464000012102230224022502260227022A02B3A4
:1046500000B4006F00700094969734353667C2F747
:10466000F6F5F4F1F0C6303790919293950F3F7FB5
:10467000BD4445464748494A4B4C4D4E4F50515218
:104680005335363738393A3B3C3D3E3F4041424353
:1046900000262728292A2B2C2D2E2F303132333477
:1046A0000018191A1B1C1D1E1F202122232425005F
:1046B000000A0B0C0D0E0F10111213141516170013
:1046C00000000102030405060708090000000000BD
:1046D00000004010401E402D406840A440B240C140
:1046E00040D040E04010331E332D333B334A335922
:1046F000336833773385339533A433C133D033E014
:104700003300261E262D263B264A26592668267764
:104710002685269526A426B226C126E026001A1E46
:104720001A2D1A3B1A4A1A591A681A771A851A95B5
:104730001AA41AB21AC11AD01AE01A000D100D1ECE
:104740000D2D0D3B0D4A0D590D680D770D850D95FD
:104750000DA40DB20DD00DE00D000010001E002DB7
:10476000003B004A0059006800770085009500A4CE
:1047700000B200C100D000E00004040404040404FA
:1047800004040404040404040404040404040404E9
:1047900004040404040404040404040404040404D9
:1047A00004040404040404040404040404040404C9
:1047B00004040404040404040404040404040404B9
:1047C0000404040404040404040404040440226DE6
:0C47D0003B011901AC00BD04D604F60446
:00000001FF
