:100000000C9432020C9479020C9479020C947902CB
:100010000C9479020C9479020C9479020C94790274
:100020000C9479020C9479020C94D71D0C94931DB6
:100030000C94A0260C9479020C9479020C94790209
:100040000C9479020C9479020C9479020C94790244
:100050000C9479020C947C260C9479020C9479020D
:100060000C9479020C9479020C9479020C94790224
:100070000C9479020C9479020C9479020C94790214
:100080000C9479020C9479020C9479020C94790204
:100090000C9479020C9479020C9479020C947902F4
:1000A0000C9479020C9479020C94790200010101FC
:1000B0000101010101010202020202020202020325
:1000C00003030303030303040404040404040505F5
:1000D00005050506060606060707070707080808B8
:1000E00008090909090A0A0A0B0B0B0C0C0C0D0D67
:1000F0000D0E0E0E0F0F0F101011111112121313FF
:100100001414151516161717181819191A1A1B1B77
:100110001C1D1D1E1E1F20202122222324242526D3
:1001200026272829292A2B2C2D2D2E2F303132320B
:10013000333435363738393A3B3C3D3E3F40414217
:10014000434445464748494A4C4D4E4F50515354FD
:10015000555658595A5B5D5E5F61626465666869B1
:100160006B6C6D6F7072737577787A7B7D7E808231
:10017000838587888A8C8E8F91939596989A9C9E7A
:10018000A0A2A3A5A7A9ABADAFB1B3B5B7BABCBE8A
:10019000C0C2C4C6C9CBCDCFD1D4D6D8DBDDDFE257
:1001A000E4E7E9EBEEF0F3F5F8FAFDFF29003A0099
:1001B0003B003C003D003E003F004000410042004B
:1001C0004300440045004C0000004A0035001E007A
:1001D0001F0020002100220023002400250026000B
:1001E00027002D002E002A0000004B002B000000ED
:1001F00014001A000800150017001C0018000C005D
:10020000120013002F00300031004E0000003900B2
:1002100004001600070009000A000B000D000E0084
:100220000F0033003400280000004D000000E10002
:100230001D001B000600190005001100100036000B
:10024000370038000000E500520000000000E00028
:10025000E200E300E0002C0000002C000000E600BB
:100260000151E4000000500051004F00005C01000B
:100270000100010001000100010001000100010076
:1002800001000100010001000000AE00A500010016
:100290000100010001000100010001000100010056
:1002A000C35CCB5CCA5CC45C0000A8000100000019
:1002B0000100010001000100010001000100010036
:1002C00001000100010001000100490000000100DF
:1002D0000100010001000100010001000100010016
:1002E000BD00A9000100010000004600000001005F
:1002F0000100010001000100010001000100BE0039
:10030000AA0001000000010001000000000001003F
:1003100001000100010001000000A7000000A6008C
:100320000100010000000100010001000501098039
:10033000A101850319012AB700150126B70095010F
:1003400075108100C0050C0901A101850419012A5D
:10035000A002150126A002950175108100C00501BB
:100360000906A1018505050719E029E71500250102
:100370009508750181020507190029EF150025016F
:1003800095F075018102050819012905950575018A
:100390009102950175039101C005010906A10105AE
:1003A0000719E029E71500250195087501810295D7
:1003B00001750881010507190029FF150026FF00B6
:1003C000950675088100050819012905950575012F
:1003D0009102950175039101C009023B00020100E1
:1003E000A0FA090400000103010100092111010024
:1003F000012240000705810308000A0904010001E9
:1004000003000000092111010001226D000705828F
:100410000320000A1201100100000008EDFE1D99E2
:1004200001000102000124034C00690070006B0010
:1004300020004B006500790062006F0061007200CF
:100440006400200031002E003100000012036C0017
:10045000690070006B002E006F00720067000000E2
:100460000403090411241FBECFEFDAE0DEBFCDBFC5
:1004700004B603FE27C080918F0590919005A0914E
:100480009105B09192058730904BA740B04BD1F4C5
:1004900010928F051092900510929105109292057E
:1004A00014BE84B7877F84BF0FB6F894A895809157
:1004B0006000886180936000109260000FBEE0E0F1
:1004C000F8E3099525E0A4ECB2E001C01D92AF3835
:1004D000B207E1F712E0A0E0B1E0E0EEF0E502C023
:1004E00005900D92A43CB107D9F70E94AE1E0C9462
:1004F0000F280C940000E8EDF0E080818E7F80836F
:100500001092E2001092DA001092E100A0EEB0E04A
:100510008C9181608C9380818F77808319BCA7ED4B
:10052000B0E08C918E7F8C9380818F7E808310923F
:100530002B0508952091E4003091E50095E6A9018E
:100540002091EC00822F817020FF06C08091E8008E
:1005500080FF06C080E008952091E80022FD1AC0C7
:1005600080915005882389F0853089F08091EB00D7
:1005700085FD0FC02091E4003091E500421753073C
:10058000F9F29150E1F684E0089582E0089583E065
:10059000089581E00895EF92FF920F931F93CF93F8
:1005A0007C018B010E949A02C82F811117C0809193
:1005B000E80085FD0BC08091E8008E778093E8000D
:1005C0000E949A02882399F3C82F08C0F7018191ED
:1005D0007F018093F1000150110949F78C2FCF91D1
:1005E0001F910F91FF90EF9008958091520587FF22
:1005F00013C08091E80082FF06C08091E8008B77ED
:100600008093E80004C0809150058111F2CF0895D5
:10061000809150058823D9F38091E80080FFF8CFBE
:100620008091E8008E77ECCF982F9093E900242FEB
:10063000762F50E0891731F07091EC002091ED0099
:100640005091F00021FD07C09F5F973071F78093B4
:10065000E90081E008953091EB003E7F3093EB009C
:100660003091ED003D7F3093ED003091EB00316033
:100670003093EB007093EC002093ED005093F0006A
:100680002091EE0027FDE0CF80E00895CF92DF9229
:10069000EF92FF920F931F93CF93DF93C8EDD0E0BB
:1006A00088818F7E8883E7EDF0E0808181608083A0
:1006B00084E082BF81E080932B0588818E7F8883D0
:1006C00002EE10E0F80110821092DA0081EEC82EDE
:1006D000D12CF601108288818F7788838881806889
:1006E000888388818F7D888319BC10925005109271
:1006F000510510924F0510924E0590EEE92EF12C07
:10070000F70180818B7F808388818160888342E0CC
:1007100060E080E00E941403F60180818E7F808378
:10072000F801808181608083808188608083F70107
:1007300080818E7F8083888180618883DF91CF91E3
:100740001F910F91FF90EF90DF90CF900895FC01E3
:10075000809158059091590586179707A0F061156B
:10076000710529F49091E8009E779093E80090E05D
:100770006115710551F4911108C08091E80082FF64
:1007800034C080E00895BC01F2CF809150058823E9
:10079000C1F18530C1F18091E80083FD30C08091C6
:1007A000E80082FDEACF8091E80080FFE1CF8091F0
:1007B000F3002091F200382F6115710519F02830EF
:1007C000310558F091E02830310509F090E0209192
:1007D000E8002E772093E800CBCF81918093F10041
:1007E000615071092F5F3F4FE7CF809150058823FB
:1007F00041F0853041F08091E80083FFBECF81E079
:10080000089582E0089583E00895EF92FF920F9398
:100810009701201B31092F3F310519F010F02FEF00
:1008200030E02095382F320F08F43FEF832F0F91DF
:10083000FF90EF900895EF92FF920F939701201B86
:1008400031092F3F310519F010F02FEF30E0322F32
:100850003095482F430F08F44FEF842F620F0F910C
:10086000FF90EF900895EF92FF920F93972F093426
:1008700038F4B701601B71096F3F710519F010F072
:100880006FEF70E0485F5F4F4131510540F0A901C3
:10089000485F5F4F4131510510F06FEF70E0609598
:1008A000482F460F08F44FEF842F37FF02C02D5F0B
:1008B0003F4F359527953595279560918B05620FAC
:1008C000792F0F91FF90EF900895EF92FF920F9381
:1008D0001F930E0D1F2D111DF90137FF03C0F19558
:1008E000E195F10924E0EE0FFF1F2A95E1F7EF3FB4
:1008F000F10519F014F0EFEFF0E09A0157FF03C093
:1009000031952195310994E0220F331F9A95E1F733
:100910002E173F070CF4F901E00FF11FEF3FF1052F
:1009200019F010F0EFEFF0E0E095282F3E2F230FA5
:1009300008F42FEF822F1F910F91FF90EF900895F1
:10094000EF92FF920F93970195E0099F200D311DC3
:1009500011242F3F310519F010F02FEF30E02095D2
:10096000382F320F08F43FEF832F0F91FF90EF9055
:10097000089522E8241B08F420E0620F08954095B2
:10098000282F429F412D1124842F08950F931F93E8
:1009900010E0F801EE0FFF1FE953FE4F90819955CB
:1009A00097FD9195000F111FF801E853FE4F00814C
:1009B0000652110B2003F001219FF00D112408E3D2
:1009C00010E0091B110997FD139540039001419F09
:1009D000300D1124E20FF31F9F01220F331F2E0F42
:1009E0003F1F37FF02C021583F4F220F232F221FE6
:1009F000330B620F1F910F9108950F931F93522F86
:100A000010E0F801EE0FFF1FE853FE4FA081A65241
:100A1000BB0B9D015203F001539FF00D1124000FF9
:100A2000111FD801A953BE4F0C910955110B40035A
:100A30009001419F300D11242E0F3F1F37FF02C040
:100A4000215C3F4F96E0359527959A95E1F7620F27
:100A50001F910F9108950F931F93522F10E0F801EB
:100A6000EE0FFF1FE853FE4FA081A652BB0B9D0166
:100A70005203F001539FF00D1124000F111FD801F4
:100A8000A953BE4F0C910955110B40039001419F92
:100A9000300D11242E0F3F1F37FF02C021583F4F4A
:100AA000220F232F221F330B620F1F910F910895E6
:100AB000EF920F93972F23E0029FB00111247595B9
:100AC00067956E0D792F0F91EF900895322F50E0BA
:100AD000FA01EE0FFF1FE853FE4F9081965297FDEB
:100AE0009195440F551FFA01E953FE4F2081231BB6
:100AF000330B290F311D97FD3A95620F0895E42FAE
:100B0000F0E0EE0FFF1FE853FE4F6081621B089577
:100B1000E42FF0E0EE0FFF1FE953FE4F6081621BF0
:100B20000895622F0895E42FF0E0EE0FFF1FE953C0
:100B3000FE4F408134EE439F412D1124E82FF0E019
:100B400050E0445E5F4FDA01A21BB1099D01B7FF7F
:100B500003C031952195310993E0220F331F9A95F7
:100B6000E1F7AF01421B530B9A0157FD20E0582FCC
:100B7000259F212D1124822F0895E42FF0E0EE0F00
:100B8000FF1FE953FE4F408134EE439F412D112456
:100B9000E72FF0E050E0445E5F4FDA01A21BB1099D
:100BA0009D01B7FF03C031952195310993E0220FD4
:100BB000331F9A95E1F7AF01421B530B9A0157FD82
:100BC00020E0279F212D1124722F089580E00895A1
:100BD000089580912D0508959C014FB7F894809158
:100BE000190590911A05A0911B05B0911C054FBFE6
:100BF000821B930B08952FB7F8948091190590915B
:100C00001A05A0911B05B0911C052FBF08952091D6
:100C100010012223C9F02091730427FF15C0E62F8D
:100C2000E695E695E695EE31D8F4E80FF92FF11D3B
:100C3000677021E030E001C0220F6A95EAF7209545
:100C40008281282322830895FC01329608962191FF
:100C5000621303C0DF0111971C92E817F907B9F777
:100C60000895209110012223C1F02091730427FFE1
:100C700014C0E62FE695E695E695EE31F8F4E80F18
:100C8000F92FF11D677021E030E001C0220F6A9555
:100C9000EAF78281822B82830895FC0132962FEF3E
:100CA00030E04191641751F02F3F19F4411101C018
:100CB000232F3F5F3630A9F72F3F09F40895820FA5
:100CC000911D27FD9A95FC0162830895809162042D
:100CD00081111092620408958091610490916004E2
:100CE000892B90915F04892B8093C60290916204B6
:100CF0009923A1F0892B8093C6028091100188234B
:100D000041F18091730487FF24C08EE1E8ECF2E0AA
:100D100090E0815000F591110E946606E091130564
:100D2000F09114053097E1F080911001882359F07B
:100D30008091730487FF07C08091C6028093C70229
:100D400085E08093C6020280F381E02D86EC92E07C
:100D5000099486E0DBCF21912223D9F29F5FD9CF7E
:100D600008959295907F890F982F97708695869514
:100D7000869525E0829FF0011124EE5DFB4F50E047
:100D800040E080E0219130E0092E02C036952795A1
:100D90000A94E2F721703327042E01C0220F0A942F
:100DA000EAF7822B4F5F5F4F4530510559F70895A1
:100DB0009295907F890F982F977041E001C0440F62
:100DC0009A95EAF786958695869595E0899FF00134
:100DD0001124EE5DFB4F30E020E070E05191DF0127
:100DE0001197CB01022E02C0969587950A94E2F7DF
:100DF000817081958527842385278C932F5F3F4FB2
:100E00002530310559F70895809121049091F00320
:100E1000981301C008958F5F8770FACF882341F03F
:100E20008095909161048923809361040C946C06F1
:100E30000895882339F090916104982B9093610470
:100E40000C946C0608952091E7033091E80328176D
:100E5000390771F09093E8038093E703E09113055D
:100E6000F0911405309721F00084F185E02D09946C
:100E700008952091E5033091E6032817390771F0B2
:100E80009093E6038093E503E0911305F091140538
:100E9000309721F00680F781E02D0994089590E0C5
:100EA00080E00E94390790E080E00E9423071092C2
:100EB000600410925F040C946C06609315057093A7
:100EC000160580931705909318050C944F070F9300
:100ED0001F9341E050E060E070E004C0440F551FF4
:100EE000661F771F8A95D2F7CB01BA01609570957E
:100EF0008095909500911505109116052091170584
:100F00003091180560237123822393231F910F9141
:100F10000C945D0790915E048095892380935E0414
:100F2000282F277071F4282F082E000C330B9217EE
:100F3000130639F08595859585950E94670710926F
:100F40005E0408950F931F9341E050E060E070E06D
:100F500004C0440F551F661F771F8A95D2F78091F2
:100F6000150590911605A0911705B09118058A01F5
:100F70009B01082B192B2A2B3B2BC901B8011F9170
:100F80000F910C945D0760936304709364048093E5
:100F90006504909366040C944F07882379F19CEFC5
:100FA000980F913A38F4682F86EC92E00E94070679
:100FB0000C946C0690E2980F983088F4877021E0CA
:100FC00030E0A90102C0440F551F8A95E2F7CA011B
:100FD000809590916104892380936104E9CF9BE51A
:100FE000980F933020F490E080E00C943907885AF1
:100FF000873120F490E080E00C9423070895CF938C
:10100000C82F882309F467C08CEF8C0F813AC0F594
:1010100080911001882311F18091730487FF1EC015
:10102000EC2FE695E695E695F0E0EA53FD4F8281D8
:1010300090E04C2F477021E030E002C0220F331FB8
:101040004A95E2F782239323892B91F06C2F86EC4B
:1010500092E00E9407060E946C060AC0E8ECF2E0EB
:101060008EEC92E02191C21789F38E179F07D1F77A
:101070006C2F86EC92E00E943106CF910C946C06A6
:1010800080E28C0F883068F4C77021E030E001C046
:10109000220FCA95EAF780916104822B8093610444
:1010A000ECCFEBE5EC0FE33040F4F0E0E05EFE4F18
:1010B000808190E0CF910C943907C85AC73158F419
:1010C000EC2FF0E0EE0FFF1FED5DFE4F8081918170
:1010D000CF910C942307CF910895E0911305F091DF
:1010E0001405309721F00190F081E02D099480E003
:1010F0000895FA01811101C0FB010994E9EEF2E0C3
:10110000818360834283339693E0E53EF907C1F71C
:101110000895FC01EE0FFF1FE80FF91FE751FD4F87
:1011200061834083228308950C947E080C9489087F
:10113000FC019B01009729F480E077FF2BC080E839
:101140000895AC0197FF04C044275527481B590B4D
:10115000B901640F751F37FD10C0241B350BC90181
:10116000A5E0880F991FAA95E1F70E94DB2680E28F
:10117000861BF7FF0FC081950895CB0165E0880FAE
:10118000991F6A95E1F7BA01621B730B0E94DB2677
:1011900080E6EECF0895EF920F93CF93DF93D72F92
:1011A000C82FC9010E19BA010E949808602F681B48
:1011B0007D2F8C2FDF91CF910F91EF9008950F939A
:1011C000CF93DF93D72FC82FC901BA010E94980887
:1011D000682F600F7D2F8C2FDF91CF910F91089595
:1011E000EF920F931F93CF93DF93D62FC72F182F14
:1011F000C9010E19010FBA010E949808081B202F7F
:10120000219F212D1124822F6D2F7C2FDF91CF91D3
:101210001F910F91EF900895EF920F931F93CF932B
:10122000DF93D62F172FC82FC9010E19070FBA0148
:101230000E949808702F781B719F712D11246D2FBB
:101240008C2FDF91CF911F910F91EF9008950F9305
:101250001F93CF93DF93D62FC72F182FC901212FAC
:10126000201B022FBA010E949808982F990F990FFE
:10127000891B800F282F219F212D1124822F6D2F54
:101280007C2FDF91CF911F910F9108950F931F93A2
:10129000CF93DF93D62F172FC82FC901272F201BDD
:1012A000022FBA010E949808982F990F990F782F52
:1012B000791B700F719F712D11246D2F8C2FDF9171
:1012C000CF911F910F910895E82F86FDE0952E2F65
:1012D0002F7086FD2F5FE695E695E695E670F0E0C7
:1012E000E85EFE4F9181929F902D212D11249295C1
:1012F0009F702295207F922B2081920F87FD9195E0
:1013000080E8890F0895AC018230910508F40895B2
:101310009FEF413E8EE1580740F49A0195E03695E3
:1013200027959A95E1F798E0920F61E0E62FE90F93
:10133000FF27FF1F9F0135952795822F229FF001E0
:10134000239FF00DF00D11244E175F0738F49FEF27
:10135000920F961758F78FEF860F08952F3FE9F3F6
:1013600061E0620FF6CF0F93CF93DF93D72FC82F93
:1013700047FD41958CE290E0841B910947FD9395D0
:10138000889FB001899F700D700D1124229FC001AC
:10139000239F900D900D1124860F971F0E948309A3
:1013A000982F990F890F682F600F7D2F8C2FDF9159
:1013B000CF910F91089530E020E0869F212D969FD8
:1013C000200D311D1124C9010895AF92BF92CF9213
:1013D000DF92FF920F931F93CF93DF93362F472F08
:1013E000E82FF0E0E455FF4F71110FC0E4918E2F0C
:1013F0002E2F6E2F722FDF91CF911F910F91FF90A3
:10140000DF90CF90BF90AF900895C72FD0E0249188
:10141000F22E022F10E056E0659FC0011124EFEF7D
:10142000F0E0BF010E94C726832F90E0880F991F2C
:1014300035E5369FD001379FB00D11248A1B9B0BD9
:10144000982F990F980F6F01CC1ADD0AC09ED0011A
:10145000C19EB00DD09EB00D11248B2F499FA001CD
:101460001124452F55276F01C41AD50AC09EA0012B
:10147000C19E500DD09E500D11245F01A91AB108D4
:10148000AC9E6001AD9ED00CBC9ED00C1124CD2C26
:10149000DD24EC19FD09E09FE001E19FD00DF09FF4
:1014A000D00D1124ED2F62307105A1F050F46115BB
:1014B000710509F49ECF6130710581F0EB2F852F06
:1014C00098CF6430710569F080F06630710509F4D9
:1014D00090CFF4CFE22F2B2F8D2F8BCFE22F252F04
:1014E00088CFEB2F822F2D2F84CF2B2F8F2DE52F01
:1014F00080CF7F928F929F92AF92BF92CF92DF92D6
:10150000EF92FF920F931F93CF93DF935C01C091F3
:10151000110181E1C89FC02D112411E11C0FF12E92
:10152000153510F034E5F32E60918E0566958091A7
:101530008305909184050E94DB09782ED0E0CF15B9
:1015400090F081E0143508F080E0DF91CF911F9199
:101550000F91FF90EF90DF90CF90BF90AF909F9052
:101560008F907F900895FE01E159FD4F8081909109
:1015700012018923C9F1CE01880F991F89599E4F05
:10158000FC01E05AFF4F2081422F4955550B6A015B
:101590008F599F4FFC018081282F2652330B490120
:1015A000449F9001459F300D300D1124889CC0014F
:1015B000899C900D900D1124820F931F0E94830926
:1015C000082F60918B0570918C0580918D05E72C1B
:1015D0009401A601F50109950E94E509462F282FDF
:1015E000672FCE010E9496082196A9CFCF92DF9255
:1015F000EF92FF920F931F93CF93DF937C01C091E3
:10160000110181E1C89FC02D112411E11C0FD12EC1
:10161000153510F034E5D32E60918E0566958091D6
:101620008305909184050E94DB09C82ED0E0CD157A
:1016300068F081E0143508F080E0DF91CF911F91D0
:101640000F91FF90EF90DF90CF900895FE01E15948
:10165000FD4F808190911201892311F1CE01880FF5
:10166000991F89599E4FFC01EF59FF4F2081265247
:10167000330B805A9F4FFC0140814955550B6091B7
:101680008B0570918C0580918D050C2DF7010995C6
:101690000E94E509462F282F672FCE010E94960849
:1016A0002196C5CFDF92EF92FF920F931F93CF93B6
:1016B000DF937C01C091110181E1C89FC02D1124ED
:1016C00011E11C0F012F153508F004E560918E051E
:1016D0006695669580918305909184050E94DB094B
:1016E000D82ED0E0C01760F081E0143508F080E01B
:1016F000DF91CF911F910F91FF90EF90DF900895B0
:10170000FE01E159FD4F808190911201892391F0F2
:1017100060918B0570918C0580918D052D2D4C2F3E
:10172000F70109950E94E509462F282F672FCE0162
:101730000E9496082196D6CF9F92AF92BF92CF92E9
:10174000DF92EF92FF920F931F93CF93DF936C0181
:10175000C091110181E1C89FC02D112411E11C0F1E
:10176000B12E153510F034E5B32E60918E056695D7
:10177000669580918305909184050E94DB09F82E7F
:1017800080E48F0D0E94640990E8A92EA80E8F2D89
:101790000E94640920E8922E980ED0E0CB1580F0CC
:1017A00081E0143508F080E0DF91CF911F910F9117
:1017B000FF90EF90DF90CF90BF90AF909F900895F3
:1017C000FE01E159FD4F8081909112018923A1F022
:1017D00060918B0570918C0580918D05EF2C0C2FFD
:1017E000292D4A2DF60109950E94E509462F282F3B
:1017F000672FCE010E9496082196D0CFCF92DF921C
:10180000EF92FF920F931F93CF93DF937C01C091D0
:10181000110181E1C89FC02D112421E1D22EDC0EDF
:10182000CD2C84E58D1510F494E5C92E20918E05FC
:1018300030E050E040E06FEF7FEF80E090E00E940A
:10184000AC278901D0E02C2FCC1570F081E0F3E5B6
:10185000FD1508F480E0DF91CF911F910F91FF906B
:10186000EF90DF90CF900895FE01E159FD4F808108
:10187000909112018923F1F040915A054150042EB4
:10188000000C550B47FF18C0C80160918E050E94DF
:10189000DB09AC0160918B0570918C0580918D0501
:1018A000F70109950E94E509462F282F672FCE01E1
:1018B0000E9496082196C7CFFA01E65AFA4F81890D
:1018C00082130AC0FA01EE0FFF1FE65AFA4F818D0C
:1018D000928D80179107C8F241505109D3CF2F92B2
:1018E0003F925F926F927F928F929F92AF92BF9240
:1018F000CF92DF92EF92FF920F931F93CF93DF93DC
:10190000CDB7DEB72A970FB6F894DEBF0FBECDBFB6
:101910008B837E836D832091110181E1289F802D2F
:1019200011248F838F5E89838A83853510F034E597
:101930003A8380915A058C83FF81EF2FF0E0FA877C
:10194000E987CF01880F991F9C0129533E4F6901F8
:101950003B81832F90E0FC013196F887EF838A81E9
:1019600099859817E8F081E0E981E43508F080E096
:101970002A960FB6F894DEBF0FBECDBFDF91CF9190
:101980001F910F91FF90EF90DF90CF90BF90AF909D
:101990009F908F907F906F905F903F902F900895D1
:1019A000E985FA85E159FD4F8081909112018923E3
:1019B000F1F020908B0530908C052F813885265AC8
:1019C0003A4F39015B8010E0FC815F16D0F0209126
:1019D0008D05129F112D1124B101812F0E94E5095F
:1019E000462F282F672F89859A850E94960829857A
:1019F0003A852F5F3F4F3A87298732E0C30ED11CCB
:101A0000AECFF30181913F01F601A080A81ABB0877
:101A10008180F3018781881A9908AA9C9001AB9C68
:101A2000300D300D1124889CC001899C900D900DC3
:101A30001124820F931F0E948309082FF301EE0FD8
:101A4000FF1FEA55F54060918E05858996890E94B1
:101A5000DB097C019401A501B101812FED81FE819B
:101A600009951B015394182FAFCFF894E82FE295F6
:101A7000EF70F0E031A1282F2F7081E090E001C0DD
:101A8000880F2A95EAF7982F9095932391A392A116
:101A9000892B82A3789408959091730492FF06C0D5
:101AA000282F28712830F9F4877F846093FF06C0BF
:101AB000282F28712831F1F4877E846120917404E5
:101AC00020FF06C0382F38713830D9F4877F816005
:101AD00021FF06C0282F28712831D1F4877E81612B
:101AE00094FD877E0895282F24712430F9F68B7F8A
:101AF0008860DCCF282F2471243101F78B7E886128
:101B0000DDCF382F3171313019F78E7F8860E0CF0B
:101B1000282F2171213121F78E7E8861E1CFCF936B
:101B2000DF9326E0829FC0011124FC01E70FF11D25
:101B3000A4E0EE0FFF1FAA95E1F7E60FF11DEE0FEF
:101B4000FF1FE455FE4FC591D491CE01C238D10597
:101B5000B9F1E8F5C133D10509F499C050F5C9329E
:101B6000D10509F48DC0CA32D10509F497C0C11559
:101B700032E5D30708F0B6C0C11541E5D40708F037
:101B800024C1C83ED10508F09DC0C13ED10568F50D
:101B9000C83AD10508F089C0C53AD10508F0EDC0B2
:101BA000C130D10511F1209709F443C02497E8F41E
:101BB00040C0C533D10509F45CC0C933D105B9F6BD
:101BC00020917304237089F080EE90E00EC0C33E34
:101BD000D10591F168F4C03ED105F9F0C23ED105BE
:101BE00031F62091730422FD20C0DF91CF9108953A
:101BF000C63ED10561F1C73ED10581F1C43ED10594
:101C000009F0B5CF2091740421FFEFCF80917304C8
:101C100084FD0FC087EE90E0E8CF2091730420FD93
:101C200001C13091740430FFE0CF83EE90E024FFD7
:101C3000DCCF90E080E0D9CF2091730422FDF5C085
:101C40003091740430FDC0CF24FFCFCFF2CF20916C
:101C5000730423FFCACF24FDECCFDCCF20917304A3
:101C600023FDE6C03091740431FFEECF84EE90E0A6
:101C7000BCCF2091730425FFB8CF89E290E0B5CFA7
:101C80002091730425FFB1CF85E390E0AECF209182
:101C9000730426FFAACF8AE290E0A7CF20917304B5
:101CA00026FFA3CF81E390E0A0CFCF3BD10508F67C
:101CB000C85AD0E0CC0FDD1FCD5DDE4F8881998101
:101CC000946493CFC11520E5D20708F062C0C11516
:101CD00030E4D30708F059C0DA95C115DF4108F4A4
:101CE00084CFA7CFC11586E5D80718F5C11525E51E
:101CF000D20708F080C0C11534E5D30708F076C0DC
:101D00009C2F96959695AE0143705527C115D345E6
:101D100008F460C021E030E002C0220F331F4A9572
:101D2000E2F740E2949FC0011124822B932B9A6822
:101D30005CCFC1152AE5D20778F4C11539E5D30780
:101D400008F063C0C11548E5D40708F472CF9C2F92
:101D50008827806F906A49CFCE01905681159042B6
:101D600008F067CF8D2F8F710E944C0D90E0982F57
:101D7000882788279F718C2B46C0C55AD0E0C05E4B
:101D8000DE4F888190E0906430CFCE019F70906AE2
:101D90002CCF9E01E4E036952795EA95E1F7237074
:101DA0008C2F86958695837030E2839FC001112425
:101DB000922BC37021E030E002C0220F331FCA957E
:101DC000E2F7822B932B9C6810CF9C2F8827816F82
:101DD000906A0BCF21E030E002C0220F331F4A95FA
:101DE000E2F740E2949FC0011124EBCF9C2F88279B
:101DF000846F906AFACE8C2F0E944C0D90E0982F41
:101E0000882788279F719062F0CE8C2F8F700E9458
:101E10004C0D34E0D695C7953A95E1F7CF709C2FDD
:101E20009069E3CE89E390E0E0CE82EE90E0DDCEF3
:101E300086EE90E0DACEBF92CF92DF92EF92FF92E1
:101E40000F931F93CF93DF938C01C0901505D09013
:101E50001605E0901705F0901805809163049091A5
:101E60006404A0916504B0916604C82AD92AEA2ABC
:101E7000FB2ACFE1D0E0BC2ED701C6010C2E04C056
:101E8000B695A795979587950A94D2F780FD0EC0D1
:101E9000219788F7B12C8B2DDF91CF911F910F9156
:101EA000FF90EF90DF90CF90BF900895B8018C2FF6
:101EB0000E948F0D019761F3EECFCF93DF93EC017A
:101EC0000E941B0FBE01DF91CF910C948F0D0E94D9
:101ED0005D0F292F2F7092959F7092509E3078F44D
:101EE000E92FF0E0EF5EF74D0C94EF26803F19F0FC
:101EF00020F4883E20F481E00895843FE1F380E0FF
:101F00000895883EC0F3813FD1F7F5CF822F8695A3
:101F1000869586950895CF92DF92EF92FF926C019D
:101F2000EE24FF2420E0C114D104E104F10419F0EF
:101F3000C701B60120E1C72ED82EE92EFF24C11417
:101F4000D104E104F10419F0285FC701B6016B0167
:101F50007C0154E0F694E794D794C7945A95D1F74E
:101F6000C114D104E104F10419F02C5FC701B601DA
:101F70006B017C0142E0F694E794D794C7944A95AC
:101F8000D1F7C114D104E104F10419F02E5FC701A7
:101F9000B6019695879577956795672B682B692B82
:101FA00009F02F5F822FFF90EF90DF90CF90089580
:101FB0000F931F93CF93DF93C62FD42F022FFC01D3
:101FC00082818823A1F0609389050E94FB0590938C
:101FD000880580938705C77081E001C0880FCA9586
:101FE000EAF7DF91CF911F910F910C94190780911F
:101FF0008905681338C080918705909188050E94F3
:10200000EC05883C910578F510E21D0FCD17B9F06D
:1020100080E28C0F883040F4C77081E001C0880FE7
:10202000CA95EAF70E940E07183048F481E09D2F08
:10203000977001C0880F9A95EAF70E941907802FC0
:102040000E94FF07802F0E94CD07183098F4D770A8
:1020500081E001C0880FDA95EAF7DF91CF911F91F7
:102060000F910C940E07C77081E001C0880FCA95CC
:10207000EAF7F3CFDF91CF911F910F910895CF939E
:10208000DF9300D00F92CDB7DEB79091500594301A
:1020900019F589837B836A8382E08093E9008FEF5F
:1020A0009091E800815095FD06C095ED9A95F1F765
:1020B00000008111F5CF8091E80085FF0DC050E050
:1020C00040E063E070E0CE0101960E94CB02809177
:1020D000E8008E778093E8000F900F900F90DF91CB
:1020E000CF910895BC0184E00C943F10BC0183E0C3
:1020F0000C943F10CF93DF93EC0180911001882363
:10210000B1F18091730487FF32C060E282E0809376
:10211000E9008FEF9091E800815095FD06C095EDA4
:102120009A95F1F700008111F5CF8091E80085FFC5
:102130001BC08091100170E050E040E0811104C0AC
:1021400050E040E068E070E0CE010E94CB02809158
:10215000E8008E778093E80080E2FE01AEE2B5E011
:1021600001900D928A95E1F7DF91CF91089568E093
:1021700081E0CDCF209A35B13E7F25B121604FB7A8
:10218000F89489EE92E0FC015191CF0168E025B905
:10219000000000C057FF35B9550F000000C000C057
:1021A00000C035B900C06A9591F7F3E0853E9F07FE
:1021B00051F74FBF8FE594E00197F1F700C00000A1
:1021C0000895AF92BF92CF92DF92EF92FF920F935A
:1021D0001F93CF93DF9301E511E0C7E6D4E0C12C54
:1021E000D12CEE24E394F12CF80181918F01F89425
:1021F000E82FE295EF70F0E021A18F70A70102C0F7
:10220000440F551F8A95E2F7CA01922F982B91A38C
:1022100092A18095892382A3789400C0E7E5F1E03C
:1022200030E020E0B12CA12C4191A42FA295AF70F9
:10223000B0E090968C9190E04F7002C09595879594
:102240004A95E2F780FD6FC0C701022E02C0880FD9
:10225000991F0A94E2F7A82AB92A2F5F3F4F20312D
:10226000310511F7F801319780810E94350D55E055
:10227000C51619F080EA8A95F1F788819981A81628
:10228000B90609F453C0B982A88281E0D82AC39460
:102290002296E6E0CE12A8CFDD2009F449C081E005
:1022A0008093E8020E94FB059093E7028093E60288
:1022B0008091E6029091E7020E94EC050697E0F11A
:1022C00080916704909168049093770480937604DA
:1022D0008091690490916A049093790480937804C2
:1022E00080916B0490916C0490937B0480937A04AA
:1022F00080916D0490916E0490937D0480937C0492
:1023000080916F049091700490937F0480937E0479
:102310008091710490917204909381048093800461
:102320001092E80209C090E080E095CF80E0AECF47
:102330008091E8028111BCCF8D2DDF91CF911F914B
:102340000F91FF90EF90DF90CF90BF90AF900895E6
:102350001092610480911001E8ECF2E0882359F0BA
:102360008091730487FF07C08EE1DF011D928A957B
:10237000E9F70C944F0786E0F8CF1F93CF93DF93D4
:10238000CDB7DEB7AA970FB6F894DEBF0FBECDBFAC
:1023900082E595E02091F100FC012193CF01F5E069
:1023A0008A359F07B9F780915305833009F46FC0D0
:1023B000B8F4813009F446C0823009F4B0C080918D
:1023C000E80083FF7BC280915205909153059A30BB
:1023D00008F074C2E92FF0E0E15EF74D0C94EF26AF
:1023E0008A3009F48BC08B3009F46EC0893039F71C
:1023F00080915205813219F78091560590915705C9
:102400000297E8F68091E800877F8093E80080914A
:10241000E80082FF37C09091F3008091F2000297AC
:1024200029F48091F1008B7F813021F48091F100BB
:1024300080932D058091E8008B778093E8000E94BF
:10244000F502BDCF80915205813A09F0B8CF809155
:10245000E800877F8093E8008091560590915705AA
:10246000892B61F460E28EE295E070E00E94A703A0
:102470008091E8008B778093E800A1CF60E090E046
:1024800080E0F3CF809150058111C1CF98CF80912A
:102490005205813A09F093CF8091560590915705E6
:1024A000892B09F08CCF8091E800877F8093E8002A
:1024B0008091E80080FFFCCF809110018093F100B3
:1024C0008091E8008E77B9CF80915205813209F072
:1024D00076CF8091560590915705892B09F06FCFE3
:1024E0008091E800877F8093E8000E94F502809148
:1024F0005405809310010E94A81161CF809152056C
:10250000813209F05CCF8091E800877F8093E800FA
:102510000E94F5028091550580932C0550CF809143
:102520005205813A09F04BCF8091E800877F809374
:10253000E8008091E80080FFFCCF80912C05BECFA1
:10254000803899F0823809F0B9C1809156058F70B2
:10255000873008F0B3C18093E9008091EB0085FBE0
:10256000882780F91092E90006C080914E0590916D
:102570004F05911182609091E800977F9093E80059
:102580008093F1001092F1008091E8008E7792C163
:10259000882309F480C1823009F090C180915405EC
:1025A000811183C1809156058F702FEF280F26303F
:1025B00008F084C18093E9002091EB0020FF75C1F1
:1025C000933031F48091EB0080628093EB006DC119
:1025D0009091EB0090619093EB0021E030E001C01E
:1025E000220F8A95EAF72093EA001092EA00809180
:1025F000EB008860EACF811161C1109154051F770B
:102600008091E3008078812B8093E3008091E80043
:10261000877F8093E8000E94F5028091E80080FFA8
:10262000FCCF8091E30080688093E30082E0111189
:1026300083E08093500542C18058823008F03EC14B
:1026400080915405909155058C3D23E09207A1F5AA
:1026500083E08A838AE289834FB7F894DE01139678
:1026600020E03EE051E2E32FF0E050935700E49188
:1026700020FF03C0E295EF703F5FEF708E2F90E078
:10268000EA30C0F0C7968D939D932F5F243159F7A0
:102690004FBF8091E800877F8093E8006AE270E096
:1026A000CE0101960E94A7038091E8008B7780936A
:1026B000E80004C1C096E7CF4091560550915705F8
:1026C000292F33272330310509F444C078F5213010
:1026D000310509F46FC08BE390E0E9EDF3E02230BF
:1026E000310509F0EBC02091E800277F2093E80036
:1026F00020915805309159058217930708F49C01E1
:1027000040E02115310509F064C0411162C080919B
:10271000E80082FDC9CF80915005882329F28530D9
:1027200019F28091E80083FFF2CFBECF213231054C
:10273000A9F12232310509F0C1C04115510509F452
:1027400043C04130510509F0B9C08DE690E0ECE29C
:10275000F3E0C9CF992781309105C1F0009759F076
:10276000029709F0ABC0E6E2F4E0E4918E2F90E02E
:10277000E6E2F4E007C0E0E6F4E0E4918E2F90E0BA
:10278000E0E6F4E0009709F499C0ADCFECE4F4E0A2
:10279000E4918E2F90E0ECE4F4E0F4CF4115510584
:1027A00071F04130510509F089C089E090E0E4E022
:1027B000F4E099CF82E190E0E4E1F4E094CF89E0A5
:1027C00090E0EBEEF3E08FCF80E490E0E9E9F3E016
:1027D0008ACF80915005882309F466CF853009F4AB
:1027E00063CF8091E80083FD5FCF8091E80082FD98
:1027F0008ECF8091E80080FF84CF9091F30080918C
:10280000F2002115310519F08830910550F041E0B2
:10281000089709F040E08091E8008E778093E80007
:1028200070CF44914093F1003196215031090196C7
:10283000E8CF803809F042C08091E800877F80931C
:10284000E800809151058093F1009ECE811136C041
:1028500010915405123090F58091E800877F8093A5
:10286000E800109351050E94F502112311F084E055
:1028700005C08091E30087FDFACF81E08093500589
:1028800042E061EC81E00E94140342E261EC82E0EC
:102890000E94140313C080915405813079F481E0C3
:1028A000933009F080E080934F051092E900809109
:1028B000E800877F8093E8000E94F5028091E8009D
:1028C00083FF0AC08091E800877F8093E8008091B1
:1028D000EB0080628093EB00AA960FB6F894DEBFFF
:1028E0000FBECDBFDF91CF911F9108951F93CF935E
:1028F000DF93EC01FC01E159FD4F80816823A1F0D9
:102900000E944127182F0E944127612F782F809124
:102910008D050E94E509462F282F672FCE01DF91F4
:10292000CF911F910C949608DF91CF911F9108953C
:10293000DF92EF92FF920F931F93CF93DF938C015F
:10294000FC01E159FD4F8081682381F1D0908C0515
:10295000D0918D05C0918B05EC2EF12C0E94412762
:10296000282FC7018C549F4F68E671E00E94DB2638
:102970008E199F0997FD039695958795959587954F
:1029800023706C2F289F600D11247D2D8D2F0E94A8
:10299000E509462F282F672FC801DF91CF911F919E
:1029A0000F91FF90EF90DF900C949608DF91CF91FC
:1029B0001F910F91FF90EF90DF900895CF9384E0E7
:1029C00090E00E946A27C82F81E290E00E946A2767
:1029D000982F8C2FCF9108956BEE7EEF90E080E0E2
:1029E0000E94A62760E082E090E00E94882760E0D5
:1029F00083E090E00E9488271092630410926404A0
:102A0000109265041092660460E084E090E00E94F9
:102A1000882760E081E290E00E94882760E085E0FE
:102A200090E00E94882760E086E090E00E9488277E
:102A30006FEF87E090E00E94882740E050E0BA0105
:102A400088E090E00E949A2760E08DE090E00E948C
:102A5000882740E050E0BA0188E190E00E949A2780
:102A600060E087E190E00E94882740E050E0BA01F2
:102A70008CE190E00E949A2760E080E290E00E9462
:102A8000882740E050E0BA0188E190E00E949A2750
:102A900040E050E0BA018FE090E00E949A2740E0C9
:102AA00050E0BA0183E190E00C949A2745E050E0B1
:102AB0006CE170E08AE895E00C94782790918A05A3
:102AC000937089F0811107C0946090938A051092E9
:102AD00014010C945615873210F09869F6CF880FC0
:102AE000880F982BF2CF089580918A058695869558
:102AF000815009F486E20C945E1580918A058695D2
:102B000086958F5F873208F081E00C945E15909176
:102B10008A05937041F080938B0560938C054093F8
:102B20008D050C9456150895EAE8F5E0438120E1FF
:102B3000421B08F440E08181628190E00C9487158B
:102B4000EAE8F5E0438120E1420F08F44FEF81818C
:102B5000628190E00C948715EAE8F5E0628120E15B
:102B6000621B08F460E08181438190E00C9487153A
:102B7000EAE8F5E0628120E1620F08F46FEF8181FD
:102B8000438190E00C948715EAE8F5E08181438168
:102B900062818850990B0C948715EAE8F5E08181F1
:102BA00090E04381628108960C9487154F925F9262
:102BB0006F927F928F929F92AF92BF92CF92DF924D
:102BC000EF92FF920F931F93CF93DF9300D000D02B
:102BD0000F92CDB7DEB77C01FC0183819481892BF4
:102BE00039F010810181812F80238F3F09F0DBC4F0
:102BF0000F900F900F900F900F90DF91CF911F913A
:102C00000F91FF90EF90DF90CF90BF90AF909F908B
:102C10008F907F906F905F904F9008950E941B0F50
:102C2000D82E682F89819A810E94D806E02FF0E083
:102C300026E0D29EE00DF11D1124A4E0EE0FFF1F4F
:102C4000AA95E1F7E10FF11DEE0FFF1FE455FE4FCE
:102C500005911491043F3CE5130709F493C0B0F5C6
:102C6000093D9CE5190709F489C00A3DECE51E07FA
:102C700009F494C0083DFCE51F07B1F526E241EEDA
:102C800061EEC7010E94D80F80915E04877009F43D
:102C9000AFCFF7018281882309F4AACF82E00F9099
:102CA0000F900F900F900F90DF91CF911F910F9188
:102CB000FF90EF90DF90CF90BF90AF909F908F905C
:102CC0007F906F905F904F900C948A07063F2CE5A1
:102CD000120709F45FC008F459C027E245EE66EE1A
:102CE000073F8CE5180769F2F7019281992309F4EF
:102CF0006BC4109289050230FCE51F0708F42FC150
:102D000006312CE5120738F098012B5F3C4529303D
:102D1000310508F024C10E94DE149093740480935E
:102D2000730400313CE5130709F4E8C008F076C0ED
:102D300008309CE5190709F4D7C008F045C00430F5
:102D4000FCE51F0709F4C8C060F502303CE5130735
:102D500009F4B8C003301C4509F4BAC0609173048B
:102D60001091740484E090E00E948827612F81E232
:102D700090E00E9488270E94A81186CF27E245EEA6
:102D800065EE7FCF26E241EE60EE7BCF27E245EE97
:102D900064EE77CF26E241EE62EE73CF28E241E0A7
:102DA000EFCF80917304806106309CE5190709F428
:102DB0008CC080917304886007301C4508F485C07E
:102DC00080917304806281C0809173048D7F0C3088
:102DD000FCE51F0709F479C070F4809173048C60DE
:102DE0000A303CE5130709F470C008F481C08091F3
:102DF00073048E7F6AC080917304877F0E309CE5D8
:102E0000190709F462C0809173048B7F0F301C4551
:102E100008F45BC0809173048F7E57C00C3FFCE5C3
:102E20001F0709F45DC030F503313CE5130709F4D1
:102E30006DC078F401319CE5190709F463C00231D3
:102E40001C4509F08BCF0E94A811809173048F77E5
:102E50003CC00531FCE51F0709F460C008F474C0EC
:102E60008091740481600B3F1C4509F077CF8093FB
:102E7000740474CF01158DE5180709F44BC088F46C
:102E8000809174048D7F0E3FECE51E0781F38091E5
:102E900074048E7F0F3F1C4550F38091740483604F
:102EA000E6CF02302DE5120709F457C008F442C0FE
:102EB00060E003301D4509F051CF8EE090E00E94A4
:102EC00088274CCF8091730481608093730446CF30
:102ED000809173048260F9CF809173048460F5CF90
:102EE000809174048260C3CF809173048064EDCFBD
:102EF0000E94A811809173048068E7CF80917304C9
:102F00008F7DE3CF809173048F7BDFCF809173043B
:102F1000837FDBCF809174048C7FA9CF8091730471
:102F200082FB992790F921E0922790FB82F990FB90
:102F300083F9CBCF80917404982F909591708E7FF8
:102F4000892B90FB81F993CF0E94A8119091730473
:102F5000892F97FB87F98058B8CF61E0AECF809179
:102F600061040631ECE51E0709F03CC38A7A91E062
:102F700009F490E09093E90369E2811165E386EC3E
:102F800092E00E9431060E946C067ECE80918A05F6
:102F900091E0892780938A05109214010E945615AA
:102FA00073CE44E755E16DE775E10E9479086CCE78
:102FB0004DE755E164E775E1F8CF44EC55E16DEC80
:102FC00075E1F3CF4DEC55E164EC75E1EECF4CEAE1
:102FD00055E168EB75E1E9CF48EB55E16CEA75E145
:102FE000E4CF44E955E160EA75E1DFCF40EA55E11D
:102FF00064E975E1DACF48E75DE16EE67DE1D5CFC2
:103000004EE65DE168E77DE1D0CF81E00E945E158C
:103010003BCE85E0FBCF8DE0F9CF82E1F7CF011504
:10302000FCE51F0709F445C00F3D1C4509F45DC0D0
:10303000F70100811181992309F45AC0C8010E9447
:103040001B0FD82E682FC8010E94D806B8018D2DFD
:103050000E948F0D8C01882EF701D280A580A2944A
:103060007FE0A72280915E048770A1F0CD2CDD2047
:1030700091F0812F807F803421F080E2800F8830B2
:1030800048F082E00E948A0780915E048770CC2419
:10309000C3948111C12CB12EB2946FE0B622FBE033
:1030A000FB1508F45FC0EB2DF0E0E75DF74D0C94E5
:1030B000EF260E94A8113FEF84E39CE0315080404E
:1030C0009040E1F700C0000087E797E79093010880
:1030D0008093000888E19AE00FB6F894A895809351
:1030E00060000FBE90936000FFCF0E94EC14CCCD27
:1030F000C8010E94B106D82EA9CF212F2F70A22E71
:10310000107F19F0A29450EFA522DD20C9F0AA206B
:1031100069F080E2800F883010F081100BC0809140
:103120006104A82AA09261040E946C06802F0E946C
:10313000FF0718C080916004A82AA0926004F4CF11
:10314000802F0E94CD07AA2069F0A094005E08306D
:1031500010F0811049C080916104A822A0926104FE
:103160000E946C06EB2DE850FF0B349710F40E9480
:103170006D08CC20A9F080915E0480FD11C0F7019C
:1031800012828595859585950E94A207C7010E94A8
:10319000D61580915E048595859585950E94670773
:1031A00085E0F701DE01119601900D928A95E1F715
:1031B00089819A810E94B106EA81F0E026E0829F2F
:1031C000E00DF11D1124CF0124E0880F991F2A95ED
:1031D000E1F7E981E80FF92FF11DEE0FFF1FE4552C
:1031E000FE4F8591949104CD80916004A822A09215
:1031F0006004B6CF312F3F70932E107F103219F03C
:10320000929440EF9422882071F081E0881661F159
:10321000DD20B9F1AA2071F1F701858180FF86CF09
:103220008F70858327C0DD2091F090916204892DF5
:10323000892BA11003C00E94190794CFE1E0AE12C0
:10324000FACF981709F48ECF809362048BCFA11028
:1032500006C00E946606892D0E940E0783CFF1E00A
:10326000AF1609F47FCFF5CFDD2031F025E02A1528
:1032700008F478CF892DDFCF34E03A1508F472CF07
:10328000EACFAA2041F3F9E38F1286C12FEF37EE80
:1032900083E0215030408040E1F700C000007CC155
:1032A000812F86958695837061F0813009F05ACF21
:1032B000C8019370D11002C090E080E00E94230703
:1032C00051CFC8019370D11002C090E080E00E94FD
:1032D000390748CF812F837009F066C0D11042CFE3
:1032E000802F829586958770880F880F602F6F706A
:1032F000462E512C712C612C082E04C0440C551CF8
:10330000661C771C0A94D2F740E050E0BA0104FF33
:103310000FC04FE050E060E070E004C0440F551F64
:10332000661F771F8A95D2F74095509560957095E6
:10333000812F869586958370823019F1D8F400919B
:103340006304109164042091650430916604813017
:1033500069F04429552966297729CB01BA016023F0
:103360007123822393230E94C307FCCE402A512A53
:10337000622A732ACB01BA01642975298629972903
:10338000F2CF4429552966297729009163041091C9
:1033900064042091650430916604CB01BA01602772
:1033A000712782279327DFCF8695DD2011F0812FAB
:1033B0008170882309F4D6CE802F829586958770F8
:1033C000880F880F602F6F70462E512C712C612C46
:1033D000082E04C0440C551C661C771C0A94D2F7B6
:1033E00040E050E0BA0104FF0FC04FE050E060E061
:1033F00070E004C0440F551F661F771F8A95D2F7EF
:103400004095509560957095812F8695869583702F
:10341000823019F1D8F4009115051091160520910C
:10342000170530911805813069F04429552966291E
:103430007729CB01BA0160237123822393230E9451
:103440005D0790CE402A512A622A732ACB01BA0125
:103450006429752986299729F2CF44295529662997
:1034600077290091150510911605209117053091C7
:103470001805CB01BA016027712782279327DFCF78
:103480001F70DD2029F0812F0E94A207802FD3CE4C
:10349000802F0E940E07812F0E94670763CE802F26
:1034A00092EF891609F450C0981578F0E0EF8E1667
:1034B00019F1F1EF8F1609F43FC0DD2009F467C060
:1034C000A11034CE812F8F713CC023EF821609F4F6
:1034D00040C034EF8312F1CFDD2009F44DC01F71DD
:1034E000812F0E94A207E8E01E9FC0011124836083
:1034F00080935E04812F25C0DD20C9F084E08A1509
:1035000008F430CE1F7161E070E080E090E004C00C
:10351000660F771F881F991F1A95D2F7009115051E
:10352000109116052091170530911805A4CF95E04C
:103530009A1508F417CEE6CF812F8F71DD2009F49C
:10354000ABCF0E94A2070ECE812F8F71DD20C9F371
:10355000A3CF60E070E0CB01DD2009F470CF1F71D4
:1035600061E070E080E090E004C0660F771F881F84
:10357000991F1A95D2F763CF81E00E948A07F1E084
:10358000FA1508F0EFCD82E00E948A07EBCDAA2061
:1035900039F0893309F47ACE802F0E94CD07E2CD2D
:1035A000812F8F7179CF85E0DE01119601900D9208
:1035B0008A95E1F7F701228189819A8121112ECB29
:1035C0000E94B106D82E32CB06311C4509F030CD11
:1035D0008091E90369E2811165E386EC92E00E9443
:1035E0000706D1CC8272F801E35CFC45E431F105B9
:1035F00008F015CDEB5CF74D0C94EF261F93CF939D
:10360000DF938091EF03807FA9F48091EC038823FE
:1036100089F080912104D091F0036091EA037091C8
:10362000EB03A091ED03B091EE03C62FC72316E084
:10363000D81304C0DF91CF911F91089590E01097A7
:1036400011F0CF3F19F401968770F2CF189F9001C7
:10365000199F300D1124F901EF50FC4F41814713A0
:10366000F2CF40814613EFCF42814111ECCF43812D
:1036700054814A1B5B0B483C510528F78091EF03AE
:103680008F7080618093EF03F901EA50FC4F8081D5
:103690008F70806180838AEE93E00E94D615DF915F
:1036A000CF911F910C940407AF92BF92CF92DF92FB
:1036B000EF92FF920F931F93CF93DF93CDB7DEB7B7
:1036C00061970FB6F894DEBF0FBECDBF8C0185E0C9
:1036D000F801DE011D9601900D928A95E1F7F8013F
:1036E00080819181E2802AEEA22E23E0B22E6091A9
:1036F000ED037091EE036115710509F43EC130913F
:10370000EA034091EB03232F24232F3F09F435C113
:10371000C380D480F090EC03F601E61BF70BFF208A
:1037200009F4FBC02091EF03522F507FE83CF105D4
:1037300008F0BBC0511178C0FE2C491321C03813CA
:103740001FC0E1101DC02F7020612093EF03C50141
:103750000E94D6158091EF03F80185838F2D619625
:103760000FB6F894DEBF0FBECDBFDF91CF911F9192
:103770000F91FF90EF90DF90CF90BF90AF900895A2
:10378000CD2829F0282F29232F3F09F014C120E04C
:10379000F22FF170DF2E20FF3DC0209121044091D7
:1037A000F00356E0241315C08D879E878D859E8576
:1037B0000E945D0F292F22952F702230F8F02430BF
:1037C00020F59F70F9F0F8019581907FD9F4D12C04
:1037D0001FC030E0529FF001539FF00D1124EF50B5
:1037E000FC4F6181961306C06081861303C062811D
:1037F000E61210C02F5F3F4F2770D4CF9F7011F09B
:10380000882329F3805E883010F3C8010E94D61502
:10381000FD2CA4CFEE2009F4A1CF8091EF038160AD
:103820008093EF03F12C9ACF491312C0381310C0C4
:10383000E1100EC0F8012583C8010E94D61586E06C
:10384000F801AAEEB3E001900D928A95E1F786CFD8
:103850008D879E878D859E850E94670F882309F13D
:10386000EE20F9F08091EF03803270F02091EA03AE
:103870003091EB0338872F831986DB86CA868C87C5
:10388000CE0107960E94D61586E0F801AAEEB3E0B5
:1038900001900D928A95E1F70E94FE1AFF24F3949D
:1038A0005DCFC8010E94D615F9CF51110AC08AEE2A
:1038B00093E00E94D61586E0F50111928A95E9F70A
:1038C000B1CF49130FC038130DC0E1100BC0F80180
:1038D0002583C8010E94D61586E0F50111928A95CC
:1038E000E9F73CCF8D879E878D859E850E94670F67
:1038F0008823B9F2EE20A9F28091EF03803220F202
:103900002091EA033091EB033A8329831B82DD8205
:10391000CC828E83CE010196B5CFE83CF105E0F66E
:10392000FE2CEE2009F4BDCF491316C0381314C085
:103930008091EF0380FD83CF982F907F09F47FCF94
:10394000F8018583903F09F477CF982F907F905F9F
:103950008F70892B858370CF8D879E878D859E85FF
:103960000E94670F811190CF8091EF038160809357
:10397000EF03C8010E94D615F1CEEE2009F491CFD5
:103980008D879E878D859E850E94670FF82E8823E0
:1039900009F487CF86E0F801AAEEB3E001900D921A
:1039A0008A95E1F78091EA039091EB030E945D0F05
:1039B0000E94FE1AD3CE21E02E25EACE1F93CF938C
:1039C000DF93CDB7DEB767970FB6F894DEBF0FBEB3
:1039D000CDBF342F4B8B252F5C8B6D8B7E8B8F8BCC
:1039E0008E899F896111109260041A8A198A3D8715
:1039F0002E876F87998B888B86E0FE013D96DE01CE
:103A0000179601900D928A95E1F7CE0107960E94D4
:103A1000541B882389F016E0809121049091F003D3
:103A2000891349C067960FB6F894DEBF0FBECDBFAD
:103A3000DF91CF911F91089586E0FE013796DE0158
:103A4000119601900D928A95E1F78A859B85892BC5
:103A500011F38F81988589238F3FE9F22091F0033C
:103A600030E0C901019687709927409121044817D9
:103A7000190671F40E94A8111092F003109221040B
:103A800086E0EAEEF3E0DF011D928A95E9F7C3CF05
:103A900096E0929FD001939FB00D1124AF50BC4F80
:103AA000FE01319601900D929A95E1F78093F00313
:103AB0000E940407B0CF819FC00111248F509C4FFA
:103AC0000E94541B882309F4ADCF8091210490E01B
:103AD000019687709927809321049ECFEAE8F5E04C
:103AE000248130E1230F08F42FEF24830C94561522
:103AF000EAE8F5E0248130E1231B08F420E0248388
:103B00000C945615EAE8F5E08DE380838091150169
:103B100090911601A091170181839283A3838FE76F
:103B200084830C9456151F920F920FB60F92112496
:103B30002F933F934F935F936F937F938F939F93B5
:103B4000AF93BF93CF93DF93EF93FF93D091E900AF
:103B5000DF708091EC00C82FC17080FDC0E810922A
:103B6000E9008091F000877F8093F00078940E94B4
:103B7000BD111092E9008091F00088608093F00000
:103B8000CD2BCF70C093E900FF91EF91DF91CF91E2
:103B9000BF91AF919F918F917F916F915F914F9165
:103BA0003F912F910F900FBE0F901F9018951F926D
:103BB0000F920FB60F9211242F933F934F935F9361
:103BC0006F937F938F939F93AF93BF93EF93FF93E5
:103BD0008091E10082FF09C08091E20082FF05C070
:103BE0008091E1008B7F8093E1008091DA0080FF7B
:103BF00024C08091D80080FF20C08091DA008E7FA1
:103C00008093DA008091D90080FF9BC080E189BD5C
:103C100082E189BD09B400FEFDCF81E080935005AB
:103C200080912B05811109C00E947B020E944603EE
:103C30008091E20084608093E2008091E10080FF47
:103C400017C08091E20080FF13C08091E2008E7F58
:103C50008093E2008091E20080618093E200809195
:103C6000D80080628093D80019BC85E0809350050D
:103C70008091E10084FF29C08091E20084FF25C08B
:103C800080E189BD82E189BD89B5982F917080FF5F
:103C9000FBCF8091D8008F7D8093D8008091E10088
:103CA0008F7E8093E1008091E2008F7E8093E2001E
:103CB0008091E20081608093E20080915105882329
:103CC00009F445C084E0809350058091E10083FFB2
:103CD00027C08091E20083FF23C08091E100877FAD
:103CE0008093E10082E0809350051092510580910D
:103CF000E1008E7F8093E1008091E2008E7F8093CF
:103D0000E2008091E20080618093E20042E060E0A6
:103D100080E00E9414038091F00088608093F0009E
:103D2000FF91EF91BF91AF919F918F917F916F9193
:103D30005F914F913F912F910F900FBE0F901F9069
:103D4000189519BC1092500510922B0576CF8091D2
:103D5000E30087FD93E090935005B7CFCDB7DEB772
:103D60002B970FB6F894DEBF0FBECDBF84B7877F09
:103D700084BF0FB6F894A895809160008861809305
:103D80006000109260000FBE80E890E00FB6F894DB
:103D900080936100909361000FBE85B7806885BFF6
:103DA00085B7806885BF86EE95E09093C5028093C5
:103DB000C4020E947B020E9446038091E20084605C
:103DC0008093E2007894809150058823A1F01091AF
:103DD000E9001F709091EC00892F817090FD80E8C0
:103DE000182B1092E9008091E80083FD0E94BD111C
:103DF0001F701093E90082E084BD93E095BD9AEFB7
:103E000097BD80936E0087E30E94350D80E90E9484
:103E1000350D81E90E94350D82E90E94350D83E957
:103E20000E94350D85E90E94350D07E511E0D801A6
:103E30008D918D010E94350DB1E007361B07B9F752
:103E4000E7E6F4E0A6E7B4E0119211921D921D920C
:103E500024E0E337F207C1F790E080E00E94722788
:103E60008B3E9E4F11F00E94EC1410925A058FEF7A
:103E70009FEF9093740580937305909376058093DC
:103E80007505909378058093770590937A058093D4
:103E9000790590937C0580937B0590937E058093B4
:103EA0007D059093800580937F0590938205809394
:103EB00081051092820490939C0480939B049093BC
:103EC0009E0480939D049093A00480939F049093FC
:103ED000A2048093A1049093A4048093A3049093DC
:103EE000A6048093A5049093A8048093A7049093BC
:103EF000AA048093A90490E080E00E9472278B3E80
:103F00009E4F21F00E94EC140E94821D45E050E07B
:103F10006CE170E08AE895E00E945A2780918A055A
:103F20008C7F11F40E94821D90E080E00E94722735
:103F30008B3E9E4F11F00E94EC1482E090E00E94B4
:103F40006A2780931E050E94DE1490937404809368
:103F5000730483E090E00E946A27682F70E090E08D
:103F600080E00E94C30760917304606860937304EB
:103F70001091740484E090E00E948827612F81E210
:103F800090E00E94882786E091E09093140580934A
:103F900013058091500520E4F22E00E112E18530F6
:103FA00009F4DAC00E94E110882359F08FB7F89421
:103FB0004091190550911A0560911B0570911C05DF
:103FC0008FBFEFE1F5E0A6E7B4E010E000E0E02EFF
:103FD000CD90DD90219131912C153D0509F4DDC185
:103FE0002C253D25F12CAA24A394B12CA9014A210A
:103FF0005B21452B09F4CBC1F982EA82CA20DB2080
:1040000081E0C114D10409F480E08B830E94FB0598
:104010008160782F9D838C8349815A816B818D814A
:104020000E94DE1CF801EE0FFF1FE15EFA4F808157
:104030009181A826B926B182A082CD2871F0F8011D
:10404000B4E0EE0FFF1FBA95E1F7E959FE4FEF0D0F
:10405000F11D80818F3F09F089C0912C80908204EE
:10406000C92CD12CC601880D911D099764F188E0F7
:1040700090E05C01AC18BD08B6016D577B4FA501FF
:1040800083E894E00E945127B60165577B4FA50154
:104090008BE894E00E945127A501440F551FB601FB
:1040A000660F771F65567B4F8BE994E00E9451277E
:1040B000B6016D567B4FA50183E994E00E9451271C
:1040C0008A94809282048091820490E0A62DB0E0D0
:1040D0009D01220F331F29533E4FAA0FBB1FBD0165
:1040E00068537E4F5BC080915005843019F1109267
:1040F000750488E190E00FB6F894A895809360006D
:104100000FBEF092600083B7817F846083BF83B766
:10411000816083BF7894889583B78E7F83BF0FB605
:10412000F894A89580916000886180936000109257
:1041300060000FBE80914F05882371F00E94E1104E
:10414000E6E7F4E081919191892B09F0B7C5A2E8E7
:10415000B4E0AE17BF07B1F780915005853009F480
:10416000C2CF0E94A8110E946D081CCF682E99240E
:10417000939474CF90E0FC01EE57FB4FD9015C9112
:104180005183DB015C915187618A880F991FFC0183
:10419000EE57FB4F128E118E91E0842F41E0480FB5
:1041A000991540F38093820480918A058C7F843630
:1041B00009F08DC08FEF8E0D21E02E0D9FEF9F0D2A
:1041C00061E06F0D34E0000F111F3A95E1F79F1584
:1041D00058F4F801ED54FB4FE90FF11D308140E137
:1041E000340F08F43FEF3083AF2DB0E00D541B4F78
:1041F000F801EA0FFB1F308170E2370F08F43FEF40
:104200003083603109F474C5F801E60FF11D308187
:1042100070E1370F08F43FEF3083263051F59F15DA
:1042200070F420E1829FF0011124ED54FB4FE90F5F
:10423000F11D20813DE0230F08F42FEF208330E1B2
:10424000839FF0011124ED54FB4FAE0FBF1F2C9143
:1042500030E1230F08F42FEF2C93603109F437C0BD
:10426000E60FF11D20813DE0230F08F42FEF20839E
:104270002EC09F1570F430E1239FF0011124ED54FE
:10428000FB4FE90FF11D30817DE0370F08F43FEF60
:10429000308340E1249F900111242D543B4FF901BC
:1042A000EA0FFB1F708110E1710F08F47FEF70833C
:1042B000603109F419C5F901E60FF11D20813DE0D7
:1042C000230F08F42FEF20838E1508F4A8CF8091D8
:1042D000AB049091AC04A091AD04B091AE044FB783
:1042E000F8940091190510911A0520911B05309141
:1042F0001C054FBF68017901C81AD90AEA0AFB0AEE
:104300004FB7F8948090190590901A05A0901B055E
:10431000B0901C054FBF8092AB049092AC04A09269
:10432000AD04B092AE0460918204E2E8F4E0462F5E
:1043300050E00197AF4FBF4F801B910BA20BB30B07
:10434000651342C04093820480918A05682F637090
:10435000D62E19F0D82ED694D6949091140191307F
:1043600009F45CC0992309F442C0923009F47EC478
:10437000933009F484C40E946D0890911D0589173B
:1043800009F407CE0E946D0880931D0502CEF394B8
:10439000AA0CBB1C40E1F41229CE0F5F1F4F063060
:1043A000110509F014CE8FEF8E838F8318860E943B
:1043B000FB058160782F9A8789874E815F816885A8
:1043C0008A850E94DE1C83CF218D328D1901512CEC
:1043D000412C82159305A405B50520F441505F5F7B
:1043E0003296AECF2C0D3D1D328F218FF8CF10921B
:1043F00011018092830590928405A0928505B09268
:10440000860589E2E2E8F4E0AAE5B5E001900D92C4
:104410008A95E1F781E080931401ADCF9091050179
:1044200011E0D91209C083702091040130E011E03D
:104430008217130609F410E011701093130186E23D
:104440008D1540F0ED2DF0E0E75BF74D0C94EF2675
:10445000111102C010E028C040E060E080E00E943E
:104460009408F8CF0091110181E1089F002D1124DB
:1044700081E1F82EF00EEF2C94E59F1510F414E571
:10448000E12E60918B0570918C0580918D050E94C5
:10449000E509C62EB72EA82E10E00E1508F46BC045
:1044A00011E0A3E5AF15B0F29090110193949092B2
:1044B00011011111C9C382E080931401809113018D
:1044C0008111C2C3DD2009F4D8C3E0911305F09136
:1044D0001405309709F0BCC360911505709116055D
:1044E00080911705909118050E948B0F882309F47D
:1044F00042CF91E1999E902C11244FEE842E890C8D
:1045000064E5691510F434E5932E90EC899F8001E1
:10451000112404551E4F27E6C22E21E0D22E56014B
:10452000F12CE12CD5018D915D01881590F0981644
:1045300080F0F701EE0FFF1FE00FF11F259134917E
:104540002230310530F02FEF4FEF6FEF90E00E94F7
:104550009608BFEFEB1AFB0AE0E1EE16F10411F743
:10456000005E1F4FF0E1CF0ED11C27ECC21621E0F8
:10457000D206A9F600CFF801E159FD4F8081909154
:104580001201892331F02A2D4C2D6B2DC8010E9478
:1045900096080F5F1F4F81CF0091110181E1089FA5
:1045A000002D1124B1E1FB2EF00EEF2CB4E5BF1568
:1045B00010F4A4E5EA2E80908C0590908D05109162
:1045C0008B05612F782D892D0E94E509C62EB72E07
:1045D000A82E60918E05610F782D892D0E94E50926
:1045E000962E872E782E10E00E1530F011E0E3E5C0
:1045F000EF1508F059CF2ECFF801E159FD4F90810A
:1046000080911201892359F0272D492D682D90FDA5
:1046100003C02A2D4C2D6B2DC8010E9496080F5FF8
:104620001F4FE2CF0091110181E1089F002D11245D
:10463000F1E1FF2EF00ECF2CF4E5FF1510F4E4E5C8
:10464000CE2EB0908C05A0908D0520918E0570E443
:10465000E72E3E2D329F312D1124E32E10E00C1554
:1046600030F011E043E54F1508F01ECFF3CEF8010E
:10467000E159FD4F8081909112018923B9F0F80131
:10468000EE0FFF1FE853FE4F808182958F7060917F
:104690008B058E9D600D11247B2D8A2D0E94E509CE
:1046A000462F282F672FC8010E9496080F5F1F4FC3
:1046B000D6CF0091110181E1089F002D112451E115
:1046C000F52EF00ECF2C64E56F1510F444E5C42EE2
:1046D000B0908C05A0908D0520918E0530E4E32EDE
:1046E0003E2D329F312D1124E32E10E00C1508F0E1
:1046F000B8CFF801E159FD4F8081909112018923D3
:10470000D9F0F801EE0FFF1FE953FE4F6081E69EDE
:10471000B001112425E0759567952A95E1F7809100
:104720008B05680F7B2D8A2D0E94E509462F282FC7
:10473000672FC8010E9496080F5F1F4FD7CF0091C7
:10474000110181E1089F002D112481E1F82EF00E66
:10475000EF2C64E56F1510F414E5E12EC0908B0585
:1047600010918C05B0908D0560918E0566956695CB
:10477000669580918305909184050E94DB090E94D3
:104780006409805887FD8195880F282F3B2D239F32
:10479000212D1124822F6C2D712F0E94E509C62E28
:1047A000B72EA82E10E00E1508F05BCFF801E159E6
:1047B000FD4F808190911201892331F02A2D4C2DDB
:1047C0006B2DC8010E9496080F5F1F4FECCF8DEB39
:1047D00095E00E94520B182F67CE83E995E0F9CF40
:1047E00086E499E00E94F60AF6CF87E299E0FACFD4
:1047F0008CE099E00E94790AEECF80EF98E0FACF42
:1048000081E995E0E6CF88E895E0E3CF8FE795E092
:10481000E0CF86E695E0DDCF88E595E0EBCF83EB52
:1048200099E0E0CF8FED98E0DDCF8BEC98E0E2CF20
:104830008BE295E00E949C0BCECF8DEF94E0FACFF7
:1048400086EC94E0F7CF11111EC060918E0520E137
:10485000620F08F46FEF80918305909184050E94A8
:10486000DB096AE070E00E94C726892B09F0F2CDCF
:104870000E94412764E570E00E94DB2660911201EE
:104880000E94981411CE0091110181E1089F002D22
:104890001124B1E1CB2EC00E8C2D64E56C1508F40B
:1048A00084E510E0E82EF12C0E151F0534F011E020
:1048B00083E58C1508F0F8CDCDCD60911201C801CB
:1048C0000E9498140F5F1F4FEFCF11111EC060910F
:1048D0008E0520E1620F08F46FEF809183059091BF
:1048E00084050E94DB0965E070E00E94C726892BE1
:1048F00009F0B0CD0E94412764E570E00E94DB26FC
:10490000609112010E947614CFCD0091110181E1D6
:10491000089F002D1124A1E1CA2EC00E8C2D94E514
:104920009C1508F484E510E0E82EF12C0E151F0507
:1049300034F011E0A3E5AC1508F0B6CD8BCD609155
:104940001201C8010E9476140F5F1F4FEFCF009134
:10495000110181E1089F002D1124B1E1B00FBB8747
:104960004B2EB13610F0F0E64F2E112361F040E0EF
:1049700060E080E00E949408E3EBF4E080E6DF0171
:104980001D928A95E9F780911101811115C08091DE
:10499000B0049091B1040E94EC0521E089319105A9
:1049A00008F420E02093AF04499730F00E94FB0503
:1049B0009093B1048093B00410E0512C76E0272E40
:1049C000312CEAEA7E2E0415150534F011E0BB8582
:1049D000B03608F469CD3ECDC801B1010E94DB2696
:1049E0004B017C0164E0EE0CFF1C6A95E1F7F701D6
:1049F000ED54FB4FE80DF91DC080F701E959FE4F5A
:104A0000E80DF91D80818F3F59F1A82EB12CF501D9
:104A1000E159FD4F808190911201892309F13C2DCC
:104A200025E5321B08F430E070918C05272D4C2DC4
:104A3000240F08F42FEF40918D05822F880F820FED
:104A40008E5F682F649F612D1124862F672D631B55
:104A50000E94E509462F282F672FC5010E9496085E
:104A60008091AF04882361F02C2D31E0231B08F4E2
:104A700020E0C7018D549B4F880E991ED4012C93C2
:104A80000F5F1F4FA0CF112371F040E060E080E086
:104A90000E949408E3EBF4E080E6DF011D928A9522
:104AA000E9F71092B20410E000E099249A9450ECD7
:104AB000852E7801C12CC8018D549B4F5C018091DB
:104AC000B2048C29C1F50E944127853595409CF59B
:104AD000F5019082F701E959FE4FE081EF3FB9F00F
:104AE000D701AD54BB4F2C91F0E0213D68F1205D22
:104AF000330B829EC001839E900D11246FE270E003
:104B00000E94C726262F4FEFCF010E949608C3941C
:104B1000F0E1EF0EF11C26E0C212D1CF0F5F1F4F64
:104B20000031110531F68091B2048F5F8D31B8F4F8
:104B30008093B2048FCCF701ED54FB4F80818150FC
:104B40008E3F40F68083C6CF299DC001112460EDC1
:104B500070E00E94C726462F20E060E0D5CF10927B
:104B6000B20423EF34E045E05EEF83EB94E0F9011B
:104B7000453039F4DC01A05BBF4F6C916F3F09F405
:104B80005C9361916F3F21F4DF0111975C9367871C
:104B90000196A4E0833C9A0759F74150205131090E
:104BA0004111E3CF57CC8FEB94E00E94FE0B13CE64
:104BB00089EB94E0FACF80915A0521E0382F321B1F
:104BC00008F430E0832F60EA74E00E946F0C03CE9B
:104BD00060EA74E080E0F9CF80915A0521E0482F27
:104BE000421B08F440E0842F65E674E0EECF65E6F2
:104BF00074E0F0CF80915A0521E0682F621B08F421
:104C000060E0862F63E374E0E0CF63E374E0E2CF1B
:104C100080915A0521E0382F321B08F430E0832FB1
:104C20006BE174E0D2CF6BE174E0D4CF80915A0590
:104C300021E0482F421B08F440E0842F65E074E037
:104C4000C4CF65E074E0C6CFDD2009F494CB3DCC41
:104C50000190F081E02D099581FF3ECC2FEF4FEFC1
:104C60006FEF8DE290E00E94960836CCD09205015D
:104C70008370809304010E94BA1083E0CCCB4091F2
:104C800083055091840560918505709186052FB745
:104C9000F8948091190590911A05A0911B05B09187
:104CA0001C052FBF841B950BA60BB70B4097A105C6
:104CB000B10508F460CB109214015DCB09BD19BD9C
:104CC00009B400FEFDCF8091D8008F7D8093D8007D
:104CD0008091E00082608093E0008091E00081FD9F
:104CE000FCCF0E94A81138CA8E1508F0F0CA99CAE4
:104CF000263009F0C0CA95CA78941F921FB61F9239
:104D000011248F939F93AF93BF9380911905909136
:104D10001A05A0911B05B0911C050196A11DB11D9E
:104D20008093190590931A05A0931B05B0931C0559
:104D3000BF91AF919F918F911F901FBE1F901895AB
:104D40001F921FB61F9211248F939F93AF93BF930F
:104D500080917504811113C08091190590911A05F5
:104D6000A0911B05B0911C054196A11DB11D80931A
:104D7000190590931A05A0931B05B0931C05BF91CC
:104D8000AF919F918F911F901FBE1F901895AA1BE6
:104D9000BB1B51E107C0AA1FBB1FA617B70710F026
:104DA000A61BB70B881F991F5A95A9F78095909558
:104DB000BC01CD01089597FB072E16F4009407D08F
:104DC00077FD09D00E94C72607FC05D03EF49095D8
:104DD00081959F4F0895709561957F4F0895EE0FCF
:104DE000FF1F0590F491E02D09948F929F92AF924E
:104DF000BF92CF92DF92EF92FF92CF93DF93EC01BD
:104E0000688179818A819B81611571058105910590
:104E100021F464E279ED8BE597E02DE133EF41E099
:104E200050E00E94AC2749015A019B01AC01A7EA5E
:104E3000B1E40E94CB276B017C01ACEEB4EFA5017D
:104E400094010E94D927DC01CB018C0D9D1DAE1D64
:104E5000BF1DB7FF03C00197A109B048888399839C
:104E6000AA83BB839F77DF91CF91FF90EF90DF9074
:104E7000CF90BF90AF909F908F9008950E94F5269D
:104E8000089580E091E00E94F5260895B0E0A0E04A
:104E90008093000190930101A0930201B09303015C
:104EA0000895FB01DC0102C001900D924150504079
:104EB000D8F70895DC01CB01FC01F999FECF06C0BB
:104EC000F2BDE1BDF89A319600B40D9241505040C8
:104ED000B8F70895F999FECF92BD81BDF89A992748
:104EE00080B50895A8E1B0E042E050E00C945C2762
:104EF000DC01A40FB51F4150504048F0CB01840F96
:104F0000951F2E910E94892741505040D0F7089557
:104F1000262FF999FECF92BD81BDF89A019700B472
:104F2000021639F01FBA20BD0FB6F894FA9AF99A12
:104F30000FBE08950396272F0E9489270E94882775
:104F4000252F0E948927242F0C9489270196272F2B
:104F50000E9489270C948827052E97FB1EF4009445
:104F60000E94C32757FD07D00E94DE2707FC03D00D
:104F70004EF40C94C32750954095309521953F4FA2
:104F80004F4F5F4F089590958095709561957F4F35
:104F90008F4F9F4F08950E940028A59F900DB49FAA
:104FA000900DA49F800D911D11240895B7FF0C94BE
:104FB000CB270E94CB27821B930B0895A1E21A2EC8
:104FC000AA1BBB1BFD010DC0AA1FBB1FEE1FFF1FAD
:104FD000A217B307E407F50720F0A21BB30BE40BFD
:104FE000F50B661F771F881F991F1A9469F7609544
:104FF0007095809590959B01AC01BD01CF010895FE
:10500000A29FB001B39FC001A39F700D811D112409
:10501000911DB29F700D811D1124911D0895F8946A
:10502000FFCF760F760F7F0F7F0F810F7F0F7F0FE0
:105030007F0F760F760F860F7F0F7F0F860FA012E0
:10504000C8125E14C8125E14FB121C135E141914ED
:1050500026147D187D18FA18FA185019B218B218CB
:10506000B2186A19401A4F1A4F1AC617D117D81713
:10507000DD17E217E717EC17F117F617FB17001803
:10508000051809180B180D18441644164416441632
:10509000441628223222CC22122359239F23E723AD
:1050A000ED23F023F523F823FD2300240324062415
:1050B00009240C240F241224152418241D24202430
:1050C00023246524A7244325D325D825DB25E825DB
:1050D000EC25F725FA25052608261326162621266F
:1050E00001000000FFFFE9057A10E8057610721054
:1050F0000100FF00038EFFFF003131295A1B750AA2
:10510000818283E200E900EA00B500B600B700CD75
:10511000008301CC008A0192019401210223022420
:10512000022502260227022A02B300B4006F007093
:1051300000379091929395C6F0F1F4F5F6F7C267B7
:10514000663635349697940E0D0C0B0A090807063F
:10515000050403020100000F101112131415161795
:1051600018191A1B1C001D2C002B2A29282726255C
:1051700024232221201F1E002D2E2F3031323334C4
:105180003536373839003A004746454443424140B6
:105190003F3E3D003C3B000048494A4B4C004D001F
:1051A0004E4F5000515253E000C100B200A4009590
:1051B0000085007700680059004A003B002D001E62
:1051C0000010000000000D100D1E0D2D0D3B0D4AAE
:1051D0000D590D680D770D850D950DA40DB20DC1FE
:1051E0000DE00DE01AD01AC11AB21AA41A951A8548
:1051F0001A771A681A591A4A1A3B1A2D1A1E1A00D7
:105200001A10261E262D263B264A26592668267762
:105210002685269526A426B226C126E026D033C1AF
:1052200033A433953385337733683359334A333B6B
:10523000332D331E33103310401E402D403B405958
:1052400040774085409540A440C140D040E04004B4
:10525000040404040404040404040404040404040E
:1052600004040404040404040404040404040404FE
:1052700004040404040404040404040404040404EE
:1052800004040404040404040404040404040404DE
:1052900004040404040404040404040404040404CE
:0452A00004040400FE
:00000001FF
