:100000000C947C020C9499020C9499020C94990221
:100010000C9499020C9499020C9499020C949902F4
:100020000C9499020C9499020C94B11D0C946D1DC2
:100030000C94AE1E0C9499020C9499020C949902A3
:100040000C9499020C9499020C9499020C949902C4
:100050000C9499020C948A1E0C9499020C949902A7
:100060000C9499020C9499020C9499020C949902A4
:100070000C9499020C9499020C9499020C94990294
:100080000C9499020C9499020C9499020C94990284
:100090000C9499020C9499020C9499020C94990274
:1000A0000C9499020C9499020C9499020501098010
:1000B000A101850319012AB700150126B700950192
:1000C00075108100C0050C0901A101850419012AE0
:1000D000A002150126A002950175108100C005013E
:1000E0000906A1018506050719E029E71500250184
:1000F0009508750181020507190029EF15002501F2
:1001000095F075018102050819012905950575010C
:100110009102950175039101C00660FF0961A1017B
:100120000962150026FF00952075088102096315F4
:100130000026FF00952075089102C005010906A15F
:1001400001050719E029E7150025019508750181CA
:10015000029501750881010507190029FF15002680
:10016000FF00950675088100050819012905950508
:1001700075019102950175039101C0000000000016
:10018000000000000000000000000000000000006F
:100190000000000000000000000000000000007EE1
:1001A0000F00D4FFFFFFC700000078000000000030
:1001B0000000002A2B2800000000000000000000C2
:1001C00000000000000029000000002C1E34202147
:1001D0002224342627252E362D3738271E1F20218E
:1001E00022232425263333362E37381F04050607ED
:1001F00008090A0B0C0D0E0F101112131415161707
:1002000018191A1B1C1D2F3130232D350405060724
:1002100008090A0B0C0D0E0F1011121314151617E6
:1002200018191A1B1C1D2F3130354C00010101011A
:1002300001010101010202020202020202020303A1
:100240000303030303030404040404040405050571
:100250000505060606060607070707070808080833
:10026000090909090A0A0A0B0B0B0C0C0C0D0D0DE0
:100270000E0E0E0F0F0F1010111111121213131476
:1002800014151516161717181819191A1A1B1B1CEE
:100290001D1D1E1E1F202021222223242425262648
:1002A000272829292A2B2C2D2D2E2F30313232337D
:1002B0003435363738393A3B3C3D3E3F4041424386
:1002C0004445464748494A4C4D4E4F50515354556A
:1002D0005658595A5B5D5E5F616264656668696B1A
:1002E0006C6D6F7072737577787A7B7D7E80828398
:1002F0008587888A8C8E8F91939596989A9C9EA0DC
:10030000A2A3A5A7A9ABADAFB1B3B5B7BABCBEC0E8
:10031000C2C4C6C9CBCDCFD1D4D6D8DBDDDFE2E4B1
:10032000E7E9EBEEF0F3F5F8FAFDFF29001E001FF8
:1003300000200021002200230024002500260027A1
:10034000002D002E0000002A002B00000014001ACF
:10035000000800150017001C0018000C0012001304
:10036000002F0030003100390000000400160007A3
:100370000009000A000B000D000E000F00330034CE
:1003800000280000000000E1001D001B000600190D
:10039000000500110010003600370038000000E5AD
:1003A000000000E000E3000000E200000000002C7C
:1003B000000000000000000151E6000000E4000120
:1003C0005035003A003B003C003D003E003F0040FD
:1003D000004100420043004400450000004C000082
:1003E0000000000000520000000000005CDE5C0025
:1003F0000000004A004D004B004E00460000000087
:1004000000500051004F000000000000000000C23A
:100410005CCA5CC95CC35CAE000000000000000068
:10042000000000A500A600A7000000BD00BE00A9B6
:1004300000AA000000000000000000000000000012
:1004400000000000000000000000000000000000AC
:100450000000000000005009025B00030100A0FA48
:10046000090400000103010100092111010001221A
:100470004000070581030800010904010002030090
:10048000000009211101000122220007058203203A
:100490000001070503032000010904020001030015
:1004A0000000092111010001226D000705840320CD
:1004B0000001120100020000000885330100010064
:1004C0000102000122034C00690070006B00200053
:1004D0007300680069006700750061006E006700C6
:1004E00020003600310000000A034C006900700053
:1004F0006B0000000403090411241FBECFEFDAE0F3
:10050000DEBFCDBF12E0A0E0B1E0EEE6F8E402C04D
:1005100005900D92A037B107D9F724E0A0E7B2E02B
:1005200001C01D92A636B207E1F70E94D51E0C94B9
:100530000C240C940000E8EDF0E080818E7F808335
:100540001092E2001092DA001092E100A0EEB0E00A
:100550008C9181608C9380818F77808319BCA7ED0B
:10056000B0E08C918E7F8C9380818F7E80831092FF
:100570002F0408952091E4003091E50095E6A9014B
:100580002091EC00822F817020FF06C08091E8004E
:1005900080FF06C080E008952091E80022FD1AC087
:1005A00080915404882389F0853089F08091EB0094
:1005B00085FD0FC02091E4003091E50042175307FC
:1005C000F9F29150E1F684E0089582E0089583E025
:1005D000089581E00895EF92FF920F931F93CF93B8
:1005E0007C018B010E94BA02C82F811117C0809133
:1005F000E80085FD0BC08091E8008E778093E800CD
:100600000E94BA02882399F3C82F08C0F70181918C
:100610007F018093F1000150110949F78C2FCF9190
:100620001F910F91FF90EF9008958091560487FFDE
:1006300013C08091E80082FF06C08091E8008B77AC
:100640008093E80004C0809154048111F2CF089592
:10065000809154048823D9F38091E80080FFF8CF7B
:100660008091E8008E77ECCF982F9093E900242FAB
:10067000762F50E0891731F07091EC002091ED0059
:100680005091F00021FD07C09F5F973071F7809374
:10069000E90081E008953091EB003E7F3093EB005C
:1006A0003091ED003D7F3093ED003091EB003160F3
:1006B0003093EB007093EC002093ED005093F0002A
:1006C0002091EE0027FDE0CF80E00895B0E0A0E0AB
:1006D000ECE6F3E00C947723C8EDD0E088818F7EC0
:1006E0008883E7EDF0E080818160808384E082BFD1
:1006F00081E080932F0488818E7F888302EE10E052
:10070000F80110821092DA0081EEC82ED12CF60189
:10071000108288818F778883888180688883888128
:100720008F7D888319BC1092540410925504109246
:1007300053041092520490EEE92EF12CF7018081BF
:100740008B7F808388818160888342E060E080E0E5
:100750000E943403F60180818E7F8083F8018081BE
:1007600081608083808188608083F70180818E7FB3
:100770008083888180618883CDB7DEB7E8E00C9400
:100780009323FC0180915C0490915D048617970788
:10079000A0F06115710529F49091E8009E7790937F
:1007A000E80090E06115710551F4911108C0809145
:1007B000E80082FF34C080E00895BC01F2CF809150
:1007C00054048823C1F18530C1F18091E80083FD94
:1007D00030C08091E80082FDEACF8091E80080FF80
:1007E000E1CF8091F3002091F200382F611571055F
:1007F00019F02830310558F091E02830310509F022
:1008000090E02091E8002E772093E800CBCF8191F3
:100810008093F100615071092F5F3F4FE7CF8091C6
:100820005404882341F0853041F08091E80083FF33
:10083000BECF81E0089582E0089583E00895089591
:10084000089580913104089587E797E79093010810
:100850008093000888E19AE00FB6F894A8958093F9
:1008600060000FBE90936000FFCF2FB7F8946091A7
:100870005E0470915F0480916004909161042FBFC9
:1008800008952FB7F89480915E0490915F04A09131
:100890006004B09161042FBF0895209112012223BA
:1008A000C9F020912A0427FF15C0E62FE695E695AA
:1008B000E695EE31D8F4E80FF92FF11D677021E0CD
:1008C00030E001C0220F6A95EAF720958281282343
:1008D00022830895FC01329608962191621303C089
:1008E000DF0111971C92E817F907B9F708952091D5
:1008F00012012223C1F020912A0427FF14C0E62F01
:10090000E695E695E695EE31F8F4E80FF92FF11D3E
:10091000677021E030E001C0220F6A95EAF782811A
:10092000822B82830895FC0132962FEF30E04191B3
:10093000641751F02F3F19F4411101C0232F3F5F7D
:100940003630A9F72F3F09F40895820F911D27FD36
:100950009A95FC0162830895209127043091280420
:100960002817390771F09093280480932704E091A9
:100970002504F0912604309721F00084F185E02DC4
:1009800009950895209123043091240428173907EC
:1009900071F09093240480932304E0912504F09156
:1009A0002604309721F00680F781E02D09950895FF
:1009B000E0912504F0912604309729F00190F08110
:1009C000E02D0995089580E00895FA01811101C094
:1009D000FB0109950895ECE6F3E08183608342838F
:1009E000339694E0E332F907C1F70895FC01EE0F66
:1009F000FF1FE80FF91FE459FC4F618340832283F6
:100A00000895E6E6F3E0248130E1231B08F420E0BA
:100A10002483809165038160809365030895E6E6F1
:100A2000F3E0248130E1230F08F42FEF2483809139
:100A300065038160809365030895909166039370C8
:100A400071F08093670360936803453B08F044EBC3
:100A50004093690380916503822B80936503089519
:100A6000E6E6F3E0438120E1421B08F440E08181A7
:100A700021E0628190E00E941D050895E6E6F3E022
:100A8000438120E1420F08F44FEF818121E0628130
:100A900090E00E941D050895E6E6F3E0628120E102
:100AA000621B08F460E0818121E0438190E00E94B4
:100AB0001D050895E6E6F3E0628120E1620F08F487
:100AC0006FEF818121E0438190E00E941D05089530
:100AD000E6E6F3E0818121E0438162818850990B51
:100AE0000E941D050895E6E6F3E0818190E021E093
:100AF0004381628108960E941D05089590916603C6
:100B0000937061F081110BC0946090936603109212
:100B1000110180916503862B8093650308958430CD
:100B200010F09C60F2CF880F880F982BEECF809149
:100B3000660386958695815009F483E061E00E9402
:100B40007E05089580916603869586958F5F843033
:100B500008F081E061E00E947E0508950E94EB04A8
:100B600008950E94F6040895AF92BF92CF92DF924B
:100B7000FF920F931F93CF93DF93362F472FE82FCA
:100B8000F0E0E55DFD4F71110FC0E4918E2F2E2F27
:100B90006E2F722FDF91CF911F910F91FF90DF90F9
:100BA000CF90BF90AF900895C72FD0E02491F22E40
:100BB000022F10E056E0659FC0011124EFEFF0E036
:100BC000BF010E944C23832F90E0880F991F35E5C9
:100BD000369FD001379FB00D11248A1B9B0B982F95
:100BE000990F980F6F01CC1ADD0AC09ED001C19EEB
:100BF000B00DD09EB00D11248B2F499FA001112460
:100C0000452F55276F01C41AD50AC09EA001C19E69
:100C1000500DD09E500D11245F01A91AB108AC9E51
:100C20006001AD9ED00CBC9ED00C1124CD2CDD24D7
:100C3000EC19FD09E09FE001E19FD00DF09FD00D80
:100C40001124ED2F62307105A1F050F4611571058A
:100C500009F49ECF6130710581F0EB2F852F98CF7D
:100C60006430710569F080F06630710509F490CF49
:100C7000F4CFE22F2B2F8D2F8BCFE22F252F88CF74
:100C8000EB2F822F2D2F84CF2B2F8F2DE52F80CF71
:100C9000B0E0A0E0EEE4F6E00C947723182F80910A
:100CA0000D01811327C090916603937020910C0170
:100CB00030E081E09217130609F480E081708093A0
:100CC000100180916B0390910F01981739F0809378
:100CD0000F0140E060E080E00E94AE051130B1F00D
:100CE000112351F0123009F457C0133009F497C0A2
:100CF00080E02AC081E0E2CF80911001882321F1B9
:100D000040E060E080E00E94AE05F2CFC0910E01AD
:100D10008DE0C89FC02D11240DE00C0FF02E0E3376
:100D200010F03DE3F32E60916703709168038091AA
:100D300069030E94B405E62ED72EC82ED0E0CF1549
:100D4000D8F081E00D33A0F690910E019F5F909353
:100D50000E0181110CC082E080931101809110017D
:100D6000811105C0111103C083E080931101CDB73B
:100D7000DEB7E8E00C949323FE01EC5DFD4F80812B
:100D800090910F01892331F02C2D4E2D6D2DCE0128
:100D90000E94B1052196D3CFC0910E018DE0C89F6E
:100DA000C02D11240DE00C0FF02E0E3310F02DE3AA
:100DB000F22E20916A032695269531E0230F08F440
:100DC0002FEF409160035091610390E080E0429FDB
:100DD000812D529F800D911D1124E82ED0E0CF155A
:100DE00008F0AFCFFE01EC5DFD4F808190910F01C7
:100DF000892399F070916803FE01EE0FFF1FE655FD
:100E0000FE4F60816E19809169030E94B405462FE0
:100E1000282F672FCE010E94B1052196E0CFC09107
:100E20000E018DE0C89FC02D11240DE00C0FF02E97
:100E30000E3310F08DE3F82ED0E0CF1508F081CFFF
:100E400020E040E060E0CE010E94B1052196F5CFA0
:100E500080E00895F894E82FE295EF70F0E031A17A
:100E6000282F2F7081E090E001C0880F2A95EAF7C3
:100E7000982F9095932391A392A1892B82A3789484
:100E8000089590912A0492FF06C0282F28712830D7
:100E9000F9F4877F846093FF06C0282F28712831DA
:100EA000F1F4877E846120912B0420FF06C0382F47
:100EB00038713830D9F4877F816021FF06C0282F30
:100EC00028712831D1F4877E816194FD877E089551
:100ED000282F24712430F9F68B7F8860DCCF282FEF
:100EE0002471243101F78B7E8861DDCF382F317179
:100EF000313019F78E7F8860E0CF282F21712131A2
:100F000021F78E7E8861E1CFCF93DF93EC018238A9
:100F10009105B1F108F040C08133910509F49DC0FD
:100F200048F58932910509F48DC08A9709F49CC06F
:100F3000C11522E5D20708F0BDC0C11531E5D307C0
:100F400008F024C1C83ED10508F0A3C0C13ED105B8
:100F500088F5C83AD10508F08EC0C53AD10508F029
:100F6000F6C0C130D10531F1209721F1C430D1054F
:100F700008F545C08533910509F45FC0C997C1F6EE
:100F800080912A04837009F036C180912B0483FF7D
:100F900011C0C9E2D0E00EC0833E910599F170F412
:100FA000803E910501F1823E910511F680912A045F
:100FB00082FD21C0CE01DF91CF910895863E91053B
:100FC00061F1873E910571F1843E910509F0B0CF42
:100FD00080912B0481FFEECF80912A04C7EED0E0F0
:100FE00084FD0DC0E7CF80912A0480FD33C090912D
:100FF0002B0490FFDFCFC3EED0E084FFDBCFD0E047
:10100000C0E0D8CF80912A0482FDF2C090912B04D9
:1010100090FDF1C084FFCECFF2CF80912A0483FDF2
:10102000DDCFC8CF80912A0483FDE8C090912B04C6
:1010300091FFF0CFC4EED0E0BDCF80912A0485FFB0
:10104000B9CFA7CF80912A0485FDDBC080912B0406
:1010500083FFB0CFC9E3D0E0ADCF80912A0486FFF3
:10106000A9CFCAE2D0E0A6CF80912A0486FFA2CF02
:10107000C1E3D0E09FCFCF3BD10508F6C85AD0E0FE
:10108000CC0FDD1FC75EDE4F0990D881C02DD46420
:1010900091CFC11540E5D40708F064C0C11580E4C4
:1010A000D80708F05CC0CE019A9581159F4108F4DD
:1010B00081CFA5CFC11536E5D30718F5C11545E594
:1010C000D40708F07CC0C11584E5D80708F072C0C9
:1010D0009E01237033279C2F96959695C115D34575
:1010E00008F459C0C1E0D0E002C0CC0FDD1F2A9542
:1010F000E2F730E2939FC0011124C82BD92BDA68A4
:1011000059CFC1158AE5D80778F4C11529E5D2076A
:1011100008F060C0C11538E5D30708F470CFDC2FA4
:10112000CC27C06FD06A46CFCE0190568115904231
:1011300008F065CF8D2F8F710E94410790E0982FA6
:10114000882788279F719C012C2BE90141C0C55A33
:10115000D0E0CA5EDE4FC881D0E0D0642BCFDF7014
:10116000D06A28CFCE018370992721E030E002C0F9
:10117000220F331F8A95E2F7C695C69580E2C89F75
:10118000E0011124C22BD32BDD6814CFDC2FCC2738
:10119000C16FD06A0FCFC1E0D0E002C0CC0FDD1F1D
:1011A0002A95E2F720E2929FC0011124C82BD92B87
:1011B000DC6800CFDC2FCC27C46FD06AFBCE8C2F2D
:1011C0000E944107C82FD0E0DC2FCC27CC27DF714D
:1011D000D062F0CE8C2F8F700E94410734E0D695FC
:1011E000C7953A95E1F7CF709C2FEC01D069E2CE1C
:1011F000C2EED0E0DFCEC0EED0E0DCCEC6EED0E076
:10120000D9CEC5E3D0E0D6CE80910C0381111092E7
:101210000C030895809590910B03982390930B03F2
:1012200008958091E8029091B702981301C0089543
:101230008F5F8770FACF292F953078F58F3068F55A
:1012400090E03FE0239F800D911D1124682F67706F
:1012500023E0969587952A95E1F7FC01EE0FFF1F95
:10126000E80FF91FED56FD4F50E040E080E021917E
:1012700030E0062E02C0369527950A94E2F72170D9
:101280003327042E01C0220F0A94EAF7822B4F5F06
:101290005F4F4330510559F7089580E00895292F95
:1012A000953098F58F3088F590E03FE0239F800DD2
:1012B000911D1124282F277041E001C0440F2A9569
:1012C000EAF723E0969587952A95E1F7FC01EE0F62
:1012D000FF1FE80FF91FED56FD4F30E020E070E0F2
:1012E0005191DF011197CB01022E02C0969587958F
:1012F0000A94E2F7817081958527842385278C9352
:101300002F5F3F4F2330310559F70895982F92955D
:101310009F7011F0892F94E0282F2695269511F0C3
:101320009E5F822F869509F09F5F892F0895809395
:101330002C0470932E0460932D0480915404843007
:10134000F9F48093E9008FEF9091E800815095FDCA
:1013500006C09AE69A95F1F700C08111F5CF809109
:10136000E80085FF0DC050E040E063E070E08CE2F3
:1013700094E00E94EB028091E8008E778093E80071
:101380000895BC0184E00E9497090895BC0183E0A0
:101390000E9497090895CF93DF93EC018091120189
:1013A0008823B1F180912A0487FF32C060E284E093
:1013B0008093E9008FEF9091E800815095FD06C081
:1013C0009AE69A95F1F700C08111F5CF8091E80077
:1013D00085FF1BC08091120170E050E040E0811158
:1013E00004C050E040E068E070E0CE010E94EB02F3
:1013F0008091E8008E778093E80080E2FE01A2E30E
:10140000B4E001900D928A95E1F7DF91CF910895B4
:1014100068E081E0CDCF6E9A3EB13F7B2EB1206473
:101420004FB7F8948CE693E0FC015191CF0168E04E
:101430002EB957FF3EB9550F000000C03EB96A955E
:10144000B9F7F4E083329F0779F74FBF8FE292E05C
:101450000197F1F700C000000895CF93DF93CFE725
:10146000D2E060E0CE010E94D2232196C11584E033
:10147000D807B9F7DF91CF9108951F93CF93DF93EA
:10148000122F8430E0F46530D0F44F30C0F4C42F14
:10149000D0E0CC0FDD1F9EE1699FC00DD11D11244E
:1014A00096E9899FC00DD11D1124632FCE01879627
:1014B0000E94D223612FCE0188960E94D223DF9111
:1014C000CF911F910895B0E0A0E0E9E6FAE00C9416
:1014D00075238BE2C82E83E0D82ED0E0C0E07601E1
:1014E00010E019C021E030E0C230D1051CF4F50154
:1014F00025913491402F612F8C2F0E943D0A82E06C
:10150000A80EB11C0F5F0F3069F71F5F8EE1E80E68
:10151000F11C153019F0570100E0E4CF219686E95F
:10152000C80ED11CC430D105D1F6CDB7DEB7EAE084
:101530000C949123CF93C82F6FEF811162E283E265
:1015400090E00E94D2236FEFC11161E184E290E04C
:101550000E94D2236FEFC11168E085E290E00E9403
:10156000D223CF91089580E00E949A0A60E086E23B
:1015700090E00E94D2230E94630A0E942D0A81E01B
:101580000E949A0A08950F931F93CF93DF9384309C
:1015900030F5653020F54F3010F5C42FD0E0CC0F7A
:1015A000DD1F2EE1629FC00DD11D112436E9839FFE
:1015B000C00DD11D1124CE0187960E94B423082F9F
:1015C00010E0102F0027CE0188960E94B4239801C6
:1015D000282BC901DF91CF911F910F91089590E0C1
:1015E00080E0F8CF462F843040F4753030F46F300F
:1015F00020F4672F0E94C30A089590E080E00895C8
:10160000CF92DF92FF920F931F93CF93DF936C01E2
:101610000091650480910D03082BC7E0D0E010E035
:10162000FC2EC8010C2E02C0959587950A94E2F70E
:1016300080FD0CC02197A0F7F12C8F2DDF91CF9169
:101640001F910F91FF90DF90CF900895B6018C2FDE
:101650000E94F20A0E948407019761F3EECFCF93B4
:10166000DF93EC010E94000BBE010E94F20A0E946F
:101670008407DF91CF910895FC0183819481892BA8
:1016800029F08081918189238F3F51F480E0089572
:10169000843FE1F717C0883EA8F0813FB9F712C038
:1016A000808191810E942F0B92959F70963099F3C3
:1016B00058F4925F9F70923048F7803F19F040F7DE
:1016C000883E20F781E008959A5FF4CF83E290E0AE
:1016D0000E94B423823289F484E290E00E94B42311
:1016E000813159F485E290E00E94B42391E0883082
:1016F00009F090E0892F8170089580E0FCCFCF93AE
:1017000084E090E00E94B423C82F82E290E00E941F
:10171000B423982F8C2FCF91089546E050E06CE1D0
:1017200070E086E693E00E94C2231092650308955C
:101730004F925F926F927F928F929F92AF92BF92E1
:10174000CF92DF92EF92FF92CF93DF93C0905C0332
:10175000D0905D03E0905E03F0905F038FB7F89444
:1017600040905E0450905F0460906004709061044B
:101770008FBF530142018C189D08AE08BF080E941C
:10178000350460935C0370935D0380935E039093D4
:101790005F03A0913303E3E3F3E02A2F30E04FEF40
:1017A000C40ED41EE11CF11CC418D508E608F708C5
:1017B000A3132AC02093330320916403C0E02111B6
:1017C00008C020916603C22FC37019F0C22FC695BE
:1017D000C695209111012130C1F1222341F122301F
:1017E00009F470C2233009F478C2DF91CF91FF90E1
:1017F000EF90DF90CF90BF90AF909F908F907F90B1
:101800006F905F904F900895418D528D2A01712CF9
:10181000612CC414D504E604F70420F421503F5F82
:101820003296C6CF480D591D528F418FF8CF109276
:101830000E01609360037093610380936203909341
:10184000630381E080931101D0CF8C2F0E94480662
:10185000CC2359F2D0910E018DE0D89FD02D1124C8
:10186000C3EFCD0F0E94D80481FF0BC080EE8D0F17
:101870008E3038F422E442E462E480E290E00E9498
:10188000B105809165040E948609813009F0ADCFD1
:10189000CD3308F44EC0C73209F46EC0CB3208F421
:1018A00074C0CB3209F47AC0CC3209F480C0CD3296
:1018B00009F486C0CE3209F098CF22E442E462E413
:1018C0008EE290E00E94B105C03208F48BC0C930AE
:1018D00009F0EBC1D93038F022E442E462E489E057
:1018E00090E00E94B105DB3038F022E442E462E48B
:1018F0008BE090E00E94B105DC3038F022E442E455
:1019000062E48CE090E00E94B105DD3038F022E422
:1019100042E462E48DE090E00E94B105DE3008F41C
:1019200064CF22E442E462E48EE090E00E94B105DC
:101930005CCFDC3308F4B1C022E442E462E48CE31F
:1019400090E00E94B105CC3309F44FCF22E442E489
:1019500062E48BE390E00E94B105CB3308F4A9C0A8
:10196000C73208F098CFD63238F022E442E462E47D
:1019700086E290E00E94B105D73238F022E442E4DA
:1019800062E487E290E00E94B105DA3238F022E4A6
:1019900042E462E48AE290E00E94B105DB3238F072
:1019A00022E442E462E48BE290E00E94B105DC3282
:1019B00038F022E442E462E48CE290E00E94B10557
:1019C000DD3250F022E442E462E48DE290E00E94D5
:1019D000B105DE3208F071CFC03208F078CFDF31C8
:1019E00008F430C122E442E462E48FE190E00E9416
:1019F000B105CF3108F06BCF22E442E462E48EE11E
:101A000090E00E94B105CE3108F061CF22E442E4BB
:101A100062E48DE190E00E94B105C93108F057CF32
:101A200022E442E462E488E190E00E94B105C8311A
:101A300008F04DCF22E442E462E487E190E00E94A6
:101A4000B105C73108F043CF22E442E462E486E105
:101A500090E00E94B105C63108F039CF22E442E49B
:101A600062E485E190E00E94B105C53108F02FCF16
:101A700022E442E462E484E190E00E94B105C830CF
:101A800008F40BC1C93008F022CF22E442E462E43A
:101A900088E090E00E94B1051DCFCC3309F4A5CEBB
:101AA000DB3309F453CFCB3309F49FCEDA3309F09B
:101AB00080C022E442E462E48AE390E00E94B1053F
:101AC000CA3308F04DCF22E442E462E489E390E0B7
:101AD0000E94B105C93308F043CF22E442E462E436
:101AE00088E390E00E94B105C83308F039CF22E4C2
:101AF00042E462E487E390E00E94B105C73308F056
:101B00002FCF22E442E462E486E390E00E94B10534
:101B1000C63308F025CF22E442E462E485E390E096
:101B20000E94B105C53308F01BCF22E442E462E411
:101B300084E390E00E94B105C43308F011CF22E4A1
:101B400042E462E483E390E00E94B105C33308F00D
:101B500007CF22E442E462E482E390E00E94B10510
:101B6000C23308F0FDCE22E442E462E481E390E077
:101B70000E94B105C13308F0F3CE22E442E462E4EE
:101B800080E390E00E94B105C03308F0E9CE22E482
:101B900042E462E48FE290E00E94B105C43208F0B2
:101BA000DFCE22E442E462E483E290E00E94B105E9
:101BB000DACECA3309F419CED93309F484CFC93344
:101BC00009F413CED83309F488CFC83309F40DCE05
:101BD000D73309F48CCFC73309F407CED63309F4D1
:101BE00090CFC63309F401CED53309F494CFC53371
:101BF00009F4FBCDD43309F498CFC43309F4F5CDFF
:101C0000D33309F49CCFC33309F4EFCDD23309F4B5
:101C1000A0CFC23309F4E9CDD13309F4A4CFC13345
:101C200009F4E3CDD03309F4A8CFC03309F4DDCDF6
:101C3000DF3209F4ACCFC43208F092CED33208F4CC
:101C400092CEAFCFCF3109F4D0CDDE3109F4D4CE6E
:101C5000CE3109F4CACDDD3109F4D8CEC93108F04E
:101C600011CFD83108F0DCCEC83109F4BECDD73160
:101C700009F4E0CEC73109F4B8CDD63109F4E4CE89
:101C8000C63109F4B2CDD53109F4E8CEC53109F435
:101C9000ACCDD43109F0F3CEEBCE22E442E462E4E1
:101CA00087E090E00E94B105F0CECC3008F41BCE66
:101CB000CC3009F421CECD3009F427CECE3009F056
:101CC00094CD2CCEC0930D018091660383708093D8
:101CD0000C010E940B0A83E0B5CD80916503811150
:101CE0000E948D0B409160035091610360916203EB
:101CF000709163032FB7F89480915E0490915F0414
:101D0000A0916004B09161042FBF841B950BA60BBA
:101D1000B70B4097A105B10508F467CD10921101EA
:101D200064CDE6E6F3E089E0808380911301909131
:101D30001401A091150181839283A3838FE784838B
:101D40008FEF85830E948D0B0895AAE0B0E0EBEA47
:101D5000FEE00C9471238E010F5F1F4F8AE0F801A3
:101D600011928A95E9F797E4E92E91E0F92E68013E
:101D70002CE4622E21E0722E88248394912CF701AA
:101D800081917F018F3F09F446C0F894E82FE295D6
:101D9000EF70F0E021A18F70A40102C0440F551F25
:101DA0008A95E2F7CA01922F982B91A392A1809570
:101DB000892382A3789400C0ECE4F1E021E030E0D4
:101DC000B12CA12C41914F3F09F471C0A42FA295D1
:101DD000AF70B0E090968C9190E04F7002C09595F6
:101DE00087954A95E2F780FD62C0C901A82AB92A01
:101DF000220F331F51E0EB35F50721F7F70131973B
:101E000080818F3F11F00E942A0780E58A95F1F7C3
:101E1000F601B182A082F2E0CF0ED11C6E147F04D5
:101E200009F0ADCF4AE050E0B80181E193E00E94B3
:101E3000F623892B09F43EC08AE0F801A1E1B3E062
:101E400001900D928A95E1F781E0809310030E9442
:101E5000410490930F0380930E0320910E03309161
:101E60000F034FB7F89480915E0490915F04A091A6
:101E70006004B09161044FBF821B930B0597F0F093
:101E80004AE050E061E173E089E293E00E94F623CA
:101E9000892BC9F08AE0E1E1F3E0A9E2B3E0019027
:101EA0000D928A95E1F781E01092100308C090E04E
:101EB00080E09CCF809110038111CFCF80E02A96E3
:101EC000EEE00C948D2380E0EFCF80910B03909196
:101ED0000A03892B8093720290910C039923A1F03D
:101EE000892B80937202809112018823E1F1809105
:101EF0002A0487FF38C08EE1E4E7F2E090E08150E9
:101F0000A0F591110E94040940E250E06AEE72E0EF
:101F100082E792E00E94F623892B21F180E2E2E73A
:101F2000F2E0AAEEB2E001900D928A95E1F7E0911D
:101F30002504F09126043097A9F08091120188239E
:101F400059F080912A0487FF07C080917202809324
:101F5000730286E0809372020280F381E02D82E7B3
:101F600092E00995089586E0C7CF2191222339F2A6
:101F70009F5FC5CF90E080E00E94C20490E080E0C7
:101F80000E94AC0410920A030E94650F089580938A
:101F900065040E94BA0F089580916504982F967089
:101FA000963021F488600E94C70F0895877FFBCF89
:101FB00021E030E001C0220F8A95EAF72095809158
:101FC000650482230E94C70F08959091E9028095CD
:101FD00089238093E902282F277091F4282F082E57
:101FE000000C330B9217130659F090912B0492FFBB
:101FF00007C08595859585950E94D80F1092E902B6
:102000000895CF93C0912B04C2FB992790F998179C
:1020100091F080FBC2F9C0932B0460912A0484E004
:1020200090E00E94D2236C2F82E290E00E94D223A3
:1020300082E00E94E50FCF91089521E030E001C0D9
:10204000220F8A95EAF780916504822B0E94C70FC0
:10205000089580930D030E94BA0F089510920B0308
:1020600080911201E4E7F2E0882361F080912A0474
:1020700087FF08C08EE1DF011D928A95E9F70E9473
:10208000BA0F089586E0F7CFAAE2B0E0EAE4F0E103
:102090000C947C2386E594E02091F100DC012D93E3
:1020A000CD01B4E08E359B07B9F78091570483309A
:1020B00009F472C0B8F4813009F449C0823009F4DF
:1020C000B3C08091E80083FF8BC280915604909149
:1020D00057049A3008F084C2E92FF0E0E25FFB4D2C
:1020E0000C9460238A3009F48EC08B3009F471C0DF
:1020F000893039F780915604813219F780915A045A
:1021000090915B04009711F00297D9F68091E80056
:10211000877F8093E8008091E80082FF38C090912B
:10212000F3008091F200029731F48091F100813048
:1021300011F0863021F48091F10080933104809178
:10214000E8008B778093E8000E941503BACF809156
:102150005604813A09F0B5CF8091E800877F8093DB
:10216000E80080915A0490915B04892B61F460E24D
:1021700082E394E070E00E94C1038091E8008B77D5
:102180008093E8009ECF60E090E080E0F3CF809104
:1021900054048111C0CF95CF80915604813A09F043
:1021A00090CF80915A0490915B04892B09F089CFDC
:1021B0008091E800877F8093E8008091E80080FFAD
:1021C000FCCF809112018093F1008091E8008E771E
:1021D000B9CF80915604813209F073CF80915A04AF
:1021E00090915B04892B09F06CCF8091E800877F88
:1021F0008093E8000E941503809158048093120197
:102200000E942E105ECF80915604813209F059CF82
:102210008091E800877F8093E8000E9415038091F9
:102220005904809330044DCF80915604813A09F0CF
:1022300048CF8091E800877F8093E8008091E80094
:1022400080FFFCCF80913004BECF803899F0823877
:1022500009F0C6C180915A048F70873008F0C0C160
:102260008093E9008091EB0085FB882780F910922C
:10227000E90006C08091520490915304911182604C
:102280009091E800977F9093E8008093F10010927E
:10229000F1008091E8008E779FC1882309F48DC1F9
:1022A000823009F09DC180915804811190C18091C4
:1022B0005A048F702FEF280F263008F091C18093B9
:1022C000E9002091EB0020FF82C1933031F480912E
:1022D000EB0080628093EB007AC19091EB009061FB
:1022E0009093EB0021E030E001C0220F8A95EAF7DD
:1022F0002093EA001092EA008091EB008860EACF18
:1023000081116EC1109158041F778091E30080788D
:10231000812B8093E3008091E800877F8093E80021
:102320000E9415038091E80080FFFCCF8091E300BC
:1023300080688093E30082E0111183E0809354046D
:102340004FC18058823008F04BC120915804309121
:1023500059042C3DE3E03E07A1F583E08A838AE23D
:1023600089834FB7F894DE01139620E03EE051E2F6
:10237000E32FF0E050935700E49120FF03C0E29573
:10238000EF703F5FEF708E2F90E0EA30C0F0C7969D
:102390008D939D932F5F243159F74FBF8091E800B3
:1023A000877F8093E8006AE270E0CE0101960E9488
:1023B000C1038091E8008B778093E80011C1C0963B
:1023C000E7CF80915A0490915B04432F5527433007
:1023D000510509F44AC078F54130510509F47AC035
:1023E0008BE590E0E7E5F4E04230510509F0F8C0F4
:1023F0002091E800277F2093E80020915C04309131
:102400005D048217930708F49C0140E02115310513
:1024100009F065C0411163C08091E80082FDC9CF19
:1024200080915404882329F2853019F28091E800C4
:1024300083FFF2CFBECF4132510509F43CC0423296
:10244000510509F0CDC08330910508F0C9C0FC01E9
:10245000EE0FFF1FEC59FD4F0190F081E02D8F59D9
:102460009D4FDC018C9190E01AC03327213031055B
:10247000D1F02115310561F02230310509F0B0C0ED
:10248000E4ECF4E0E4918E2F90E0E4ECF4E007C09B
:10249000E4EFF4E0E4918E2F90E0E4EFF4E00097B5
:1024A00009F49EC0A5CFE8EEF4E0E4918E2F90E011
:1024B000E8EEF4E0F4CF8330910508F091C0880F86
:1024C000991FFC01E659FD4F0190F081E02D89E054
:1024D00090E08ECF82E190E0E2EBF4E089CF809152
:1024E0005404882309F465CF853009F462CF8091C4
:1024F000E80083FD5ECF8091E80082FD8DCF809162
:10250000E80080FF83CF9091F3008091F2002115C5
:10251000310519F08830910550F041E0089709F035
:1025200040E08091E8008E778093E8006FCF44917F
:102530004093F1003196215031090196E8CF80385F
:1025400009F04EC08091E800877F8093E800809179
:1025500055048093F1009DCE811142C01091580422
:102560001230F0F58091E800877F8093E8001093A7
:1025700055040E941503112311F084E005C08091D9
:10258000E30087FDFACF81E08093540442E061ECE0
:1025900081E00E94340342E261EC84E00E94340353
:1025A00042E261EC82E00E94340342E260EC83E0AC
:1025B0000E9434038091540413C0809158048130E8
:1025C00079F481E0933009F080E080935304109215
:1025D000E9008091E800877F8093E8000E9415035E
:1025E0008091E80083FF0AC08091E800877F809394
:1025F000E8008091EB0080628093EB00AA96E3E014
:102600000C9498230E942E102FE78AE196E0215027
:1026100080409040E1F700C0000088E19AE00FB6EA
:10262000F894A895809360000FBE90936000FFCF50
:10263000882321F00E940A090E94650F08958823CB
:1026400039F090910B03982B90930B030E94650F28
:102650000895882351F19CEF980F913A40F4682F28
:1026600082E792E00E944D040E94650F089590E277
:10267000980F983050F4877091E001C0990F8A95B7
:10268000EAF7892F0E940A09EFCF9BE5980F933054
:1026900028F490E080E00E94C2040895885A8731AF
:1026A00020F490E080E00E94AC040895CF93C82FFE
:1026B0008823D9F18CEF8C0F813AC8F580911201F3
:1026C000882311F180912A0487FF1EC0EC2FE69524
:1026D000E695E695F0E0EE58FD4F828190E04C2FB4
:1026E000477021E030E002C0220F331F4A95E2F725
:1026F00082239323892B91F06C2F82E792E00E9432
:102700004D040E94650F0AC0E4E7F2E08AE792E018
:102710002191C21789F38E179F07D1F76C2F82E79B
:1027200092E00E9477040E94650FCF91089580E2A5
:102730008C0F883068F4C77021E030E001C0220FB0
:10274000CA95EAF780910B03822B80930B03EBCFA2
:10275000EBE5EC0FE33040F4F0E0EA5EFE4F808101
:1027600090E00E94C204E1CFC85AC731F0F6EC2FC6
:10277000F0E0EE0FFF1FE75EFE4F808191810E9427
:10278000AC04D3CF1F93CF93DF93182FD0E0C0E0DA
:10279000893311F4C0E5D0E0812F0E9456132097B1
:1027A00039F4812F0E942913DF91CF911F91089551
:1027B0008FEC97E00197F1F700C000002197EFCF71
:1027C0000F931F93CF93DF93C62FD42F022FFC01BB
:1027D00082818823A9F0609364040E94410490934D
:1027E000630480936204C77081E001C0880FCA95BA
:1027F000EAF70E941F13DF91CF911F910F91089567
:102800008091640468133DC0209162043091630498
:102810004FB7F89480915E0490915F04A09160049A
:10282000B09161044FBF821B930B883C910548F522
:1028300010E21D0F6D17B9F080E2860F883040F46A
:10284000C77081E001C0880FCA95EAF70E9418138B
:10285000183048F481E09D2F977001C0880F9A9539
:10286000EAF70E941F13802F0E94C213183018F637
:10287000D77081E001C0880FDA95EAF70E9418133B
:10288000BACFC77081E001C0880FCA95EAF7F6CFCA
:1028900090E080E00E94BC23883E9E4F19F40E9485
:1028A000660B089580E0089568EE7EEF90E080E08A
:1028B0000E94F02360E082E090E00E94D22360E07A
:1028C00083E090E00E94D22310920D0360E084E048
:1028D00090E00E94D22364E082E290E00E94D22342
:1028E00060E085E090E00E94D22360E086E090E026
:1028F0000E94D2236FEF87E090E00E94D22340E055
:1029000050E0BA0188E090E00E94E42360E08DE0AE
:1029100090E00E94D22340E050E0BA0188E190E0CC
:102920000E94E42360E087E190E00E94D22340E02F
:1029300050E0BA018CE190E00E94E42370E060E096
:1029400080E290E00E94F02340E050E0BA0188E18C
:1029500090E00E94E42380E00E949A0A0E94B30A59
:1029600040E050E0BA018FE090E00E94E42340E0B4
:1029700050E0BA0183E190E00E94E4230895A5E0CD
:10298000B0E0E5ECF4E10C946E238C01FC01838152
:102990009481892B31F08081918189238F3F09F0C7
:1029A000B1C52596E1E10C948A230E94000BF82E14
:1029B000682F89819A810E944F0969817A818F2DC0
:1029C0000E94F20A7C01F8018281882309F48DC5F6
:1029D000970122513F452031310508F059C58FEF4D
:1029E00093E00E94B423811128C0FEEEEF0E5FE752
:1029F000852E52E0952EE11032C01C821B824424A9
:102A000043944AE0342E74018FEFE81AF80AC401A7
:102A10000E94B42389831A82882379F09FEF980F4C
:102A2000933058F58A83498292E0890E911CC70140
:102A30000E94B4238B83811121C08091E9028770A9
:102A400009F4AFCFF8018281882309F4AACF8091DD
:102A50002B0482FFA6CF82E00E94E50FA2CF811453
:102A600024E0920651F3C4010E94B423811101C0F5
:102A7000EA943FEF831A930ABECF4701FE013196D5
:102A80007F01F7012081222309F4BDCF213009F015
:102A900047C091818281913031F4F2E0EF0EF11C58
:102AA0000E94C21307C0923049F422E0E20EF11CEA
:102AB0000E9456133FEFE31AF30AE3CF933031F449
:102AC00032E0E30EF11C0E942913F4CF943021F080
:102AD0008FEFE81AF80AEECF92E0E90EF11C30E031
:102AE00020E0B7016F5F7F4FF70141818053990B61
:102AF0008A30910550F021503109E0F28FEC97E0D7
:102B00000197F1F700C00000F6CF329EF001339E2E
:102B1000F00D11249C012E0F3F1F842F7B01E1CF6C
:102B2000E22FF0E0E555FE4F5490822F8695869572
:102B3000869590E0FC01E556FE4F64902770712C5D
:102B4000022E02C0759467940A94E2F7E1E06E22C7
:102B50007724FC01E557FE4FA490B12C022E02C051
:102B6000B594A7940A94E2F7F1E0AF22BB24FC01EC
:102B7000E558FE4FC490D12C02C0D594C7942A9535
:102B8000E2F721E0C222DD246114710419F081EE24
:102B90000E945613A114B10419F086EE0E94561338
:102BA000852D0E94C213A114B10419F086EE0E9473
:102BB00029136114710419F081EE0E942913C114C4
:102BC000D10409F477CF8CE26BCF81E00E941D1015
:102BD0000E94CC0F32CF81E00E94D80FF9CF82E063
:102BE000F5CF95EFE9169CE5F90609F46CC008F4F9
:102BF00066C027E245EE66EEF6EFEF16FCE5FF064F
:102C000009F46FC4882309F48EC41092640423E08D
:102C1000E2162DE5F20608F05DC03AEFE3163CE55A
:102C2000F30630F4C70182509C45449708F05FC01A
:102C30000E947F0B90932B0480932A04F2E1EF16FD
:102C4000FCE5FF0609F478C108F0B6C039E0E316E8
:102C50003CE5F30609F44EC108F079C095E0E916A9
:102C60009CE5F90609F436C108F05FC0F3E0EF1601
:102C7000FCE5FF0609F426C108F028C180912A046A
:102C8000816032E0E3163CE5F30609F492C06091FE
:102C90002A04F0902B0484E090E00E94D2236F2D50
:102CA00082E290E00E94D2230E942E10C6CE27E23C
:102CB00045EE65EE16C426E241EE60EE12C427E250
:102CC00045EE64EE0EC426E241EE62EE0AC428E24E
:102CD00041E0EFCF85EAE8168DE5F80609F4A8CFC4
:102CE000F0F4E1E6EE16EDE5FE0609F4A1CF96E17B
:102CF000E9169CE5F90609F091C480910B038A7AE4
:102D000091E009F490E09093920269E2811165E309
:102D100082E792E00E9477040E94650F8ECEC70181
:102D20008D5A9D45039718F783CF87E0E8168CE509
:102D3000F80609F4DBC080912A04806198E0E91666
:102D40009CE5F906B0F180912A04806432C0EDE080
:102D5000EE16ECE5FE0609F4D7C0A0F480912A0433
:102D60008E7F2BE0E2162CE5F20619F180912A0401
:102D70008C603CE0E3163CE5F306D8F080912A0431
:102D80008D7F17C08FE0E8168CE5F80609F4CCC0FB
:102D900008F4BEC0E0E1EE16ECE5FE0609F4C8C09A
:102DA00080912A048F7BF1E1EF16FCE5FF0609F024
:102DB0006ECF80932A046BCF2FEFE2162CE5F2063C
:102DC00009F4C4C0D8F58AEFE8168CE5F80609F4D2
:102DD00085C0D0F4E4E1EE16ECE5FE0609F4C4C0CB
:102DE00008F4B0C025E1E2162CE5F20609F04FCF59
:102DF00080912A0482FB992790F921E0922790FB89
:102E000082F990FB83F9D5CF3CEFE3163CE5F3065E
:102E100009F482C008F466C09DEFE9169CE5F90646
:102E200009F47EC080912B048360EEEFEE16ECE592
:102E3000FE0609F02CCF80932B0429CFF1E6EF1684
:102E4000FDE5FF0609F49BC0A0F431E0E3163DE583
:102E5000F30609F492C008F47DC060E092E0E91640
:102E60009DE5F90609F013CF8EE090E00E94D22391
:102E70000ECFEDEAEE16EDE5FE0601F168F4909155
:102E80002A04892F8E7F90FF816025EAE2162DE5C6
:102E9000F20609F48ECFFBCE3EEAE3163DE5F306DB
:102EA00079F18FEAE8168DE5F80609F0F0CE9091F9
:102EB0002B04892F877F93FF8860BDCF80912B04DF
:102EC0008860B9CF80912A04826073CF80912A04F0
:102ED00084606FCF80912A0488606BCF80912B042F
:102EE0008160A9CF80912B048260A5CF80912A04B4
:102EF00080625FCF0E942E1080912A04806859CF93
:102F000080912B04877F97CF80912A048B7F51CFAC
:102F100080912A04877F4DCF80912B048E7F8BCFA9
:102F200080912B048D7F87CF80912A048F7E41CFA3
:102F300080912A048F7D3DCF0E942E1080912A041B
:102F40008F7737CF80912A04837F33CF80912B04F2
:102F50008C7F71CF80912B04982F909591708E7FEC
:102F6000892B90FB81F967CF0E942E1090912A0443
:102F7000892F97FB87F980581CCF61E075CF90911E
:102F80002A04892F8F7E94FF806113CF8091920253
:102F900069E2811165E382E792E00E944D04BCCEB4
:102FA00047E955E062EA75E00E94E50446CD42EA51
:102FB00055E067E975E0F8CF48E655E063E775E06E
:102FC000F3CF43E755E068E675E0EECF4CE455E01B
:102FD0006AE575E0E9CF4AE555E06CE475E0E4CFD9
:102FE0004EE355E060E375E0DFCF4FE055E061E090
:102FF00075E0DACF0E942E10EFE7FAE126E0E1500B
:10300000F0402040E1F700C000000E9424048091BD
:103010002B0482FB882780F991E089270E94011008
:10302000F8018281E080F180882309F445C0C7015E
:103030000E94000BD82E682FC7010E944F09B701CC
:103040008D2D0E94F20A0E9484077C01882EF801CF
:10305000D280B580B2943FE0B3228091E9028770BC
:10306000C1F0AD2CDD20B1F08F2D807F803421F0B8
:1030700080E28E0D883068F080912B0482FF09C0B9
:1030800082E00E94E50F8091E9028770AA24A39450
:103090008111A12C9F2C92942FE09222FBE0F91534
:1030A00008F479C0E92DF0E0E85EFB4D0C94602354
:1030B00081E0B4CF80E0B2CFC7010E941B09D82EB7
:1030C000BECF2F2D2F70C22E8F2D807F19F0C2946E
:1030D00090EFC922DD20B9F0CC2069F080E28E0D9E
:1030E000883010F0811009C080910B03C82AC0926B
:1030F0000B030E94650F8E2D4CC080910A03C82AD5
:10310000C0920A03F6CF8E2D0E942913CC2009F419
:1031100042C080E28E0D883010F0811004C08C2DEA
:103120000E940A0906C0C09480910A03C822C09276
:103130000A030E94650F2FC03F2D3F70C32E8F2DB5
:10314000807F803219F0C29480EFC822882089F0F5
:1031500081E0881609F468C0DD2009F472C0BB2044
:1031600009F468C0F801858180FFC5CF8F70858321
:1031700061C020912B0422FD35C0DD2069F1CC20F7
:1031800039F080910B03C82AC0920B030E94650F8F
:1031900080E00E945613292D2850330B243031052E
:1031A00010F40E94D804AA2009F4FBCB8091E90214
:1031B00080FDF7CBF80112828595859585950E9453
:1031C0001D10C8010E94BF148091E9028595859564
:1031D00085950E94D80FE5CB80E00E942913CC2072
:1031E000D1F29DCFDD2099F090910C038C2D892B8D
:1031F000B11003C00E941F13CECFE1E0BE12FACF80
:1032000022FFC9CF981739F280930C03C4CFB110B5
:1032100006C00E9404098C2D0E941813BCCFF1E057
:10322000BF1609F4B8CFF5CFDD2031F025E02B151E
:1032300008F4B1CF8C2DDECF34E03B1508F4ABCFD2
:10324000EACFBB2041F3F9E38F1209C02FEF33EF30
:1032500081E0215030408040E1F700C000008E2D19
:103260000E94291398CF8F2D86958695837061F0E3
:10327000813009F090CFC7019370D11002C090E067
:1032800080E00E94AC0487CFC7019370D11002C0C8
:1032900090E080E00E94C2047ECF8F2D837091F574
:1032A000D11079CF4E2D429546954770440F440F6B
:1032B0008E2D8F70042E01C0880F0A94EAF72E2DF0
:1032C0002071E4FE07C02FE030E001C0220F4A95D4
:1032D000EAF720953F2D369536953370323069F0F8
:1032E00050F440910D03313029F0822B84230E9449
:1032F000291051CF842B822BFACF282B80910D03DC
:103300008227F5CF8695DD2011F08F2D81708823DF
:1033100009F441CF4E2D429546954770440F440F16
:103320008E2D8F70042E01C0880F0A94EAF72E2D7F
:103330002071E4FE07C02FE030E001C0220F4A9563
:10334000EAF720953F2D369536953370323069F087
:1033500050F440916504313029F0822B84230E947F
:10336000C70F19CF842B822BFACF282B80916504AD
:103370008227F5CF9F2D9F70F92EDD2029F0892F10
:103380000E941D108E2D36CF8E2D0E9418138F2D6A
:103390000E94D80F00CF8E2DE2EF8E16B1F1E81506
:1033A00070F0F0EF8F16D1F021EF821691F0DD2052
:1033B00009F45EC0B1109FCE8F2D8F712AC033EFFC
:1033C000831651F194EF8912F2CF80912B0482FD84
:1033D0002FC08F2D8F71DD20D9F21BC0DD2081F031
:1033E000E4E0EB1508F4D7CE2F2D2F7181E090E0AB
:1033F00001C0880F2A95EAF7909165048927AFCF1D
:10340000F5E0FB1508F4C7CEEFCF8F2D8F71D110EB
:10341000BFCF0E941D10BFCE80E0DD2009F49FCFFA
:103420009F2D9F7181E001C0880F9A95EAF797CF91
:10343000DD2099F02F2D2F71F22E822F0E941D106A
:1034400080912B0482FF07C038E0F39EC001112455
:1034500083608093E9028F2DDCCF81E00E94E50F2D
:1034600081E08B1508F097CE82E00E94E50F93CEA5
:10347000BB2059F0893309F0F2CE9FEFE3EFF1E082
:103480009150E040F040E1F7E8CE8F2D8F7180CF72
:10349000F0E1EF16FFE5FF0609F497CB21E1E21614
:1034A0002FE5F20609F49BCB93EFE9169CE5F906AC
:1034B00009F401CC08F095CBF8EDEF16FCE5FF061A
:1034C00009F4F5CB29EDE2162CE5F20609F4FFCB61
:1034D00037EDE3163CE5F30609F094CB26E241EE26
:1034E00061EEC8010E94E013A8CA30E1E3163FE58F
:1034F000F30609F470CB91E1E9169FE5F906A1F610
:1035000082E06ACB85E0DE01119601900D928A95EA
:10351000E1F7F801228189819A81211146CA0E942E
:103520001B09F82E4ACAF6E1EF16FCE5FF0609F47E
:103530002DCD80910B0382722AECE2162CE5F20667
:1035400009F44ECDE0F595ECE9169CE5F90609F491
:1035500033CDE0F4F3ECEF16FCE5FF0609F420CDE3
:1035600008F025CD32ECE3163CE5F30609F058CD22
:103570008091660391E08927809366031092110180
:103580008091650381608093650357CA97ECE916C3
:103590009CE5F90609F41ACD08F413CDF8ECEF1602
:1035A000FCE5FF0609F417CD40E355E06EE375E056
:1035B00029ECE2162CE5F20609F4F6CC31CD3EEC0E
:1035C000E3163CE5F30609F438CAA8F4ECECEE1671
:1035D000ECE5FE0609F409CD41E055E06FE075E049
:1035E000FDECEF16FCE5FF0608F4DECC61E081E0BF
:1035F0000E947E0522CA26EDE2162CE5F20640F472
:1036000061E082E030EDE3163CE5F30688F315CA8D
:103610008DE5E816F80609F410CA02CD9AE5E91618
:103620009DE5F90609F444CD78F4E114FCE5FF06C4
:1036300009F4E0CC2EEDE2162CE5F20609F0F0CC10
:103640000E9454140E9402133CE5E3163DE5F30684
:1036500009F4DDCC08F42ECD97EAE9169DE5F906CC
:1036600089F3DECC1F93CF93DF938091B602807FE6
:1036700009F049C08091B302882309F444C08091C5
:10368000E802D091B7026091B1027091B202A091AC
:10369000B402B091B502C62FC72316E0D81799F12E
:1036A00090E0109711F0CF3F19F401968770F6CF94
:1036B000189F9001199F300D1124F901E854FD4F16
:1036C00041814713F2CF40814613EFCF4281411130
:1036D000ECCF438154814A1B5B0B483C510528F7D2
:1036E0008091B6028F7080618093B602F901E35435
:1036F000FD4F80818F708061808381EB92E00E941A
:10370000BF140E941109DF91CF911F910895A1E18B
:10371000B0E0EDE8FBE10C9475238C0185E0F80145
:10372000DE011D9601900D928A95E1F7F801E28085
:1037300081EBA82E82E0B82E6091B4027091B502A0
:103740006115710509F426C19091B1024091B20250
:10375000892F84238F3F09F41DC120813181C380CB
:10376000D480F090B302F601E61BF70BFF2009F4BA
:10377000DCC08091B602582F507FE83CF10508F07C
:103780009FC051116BC0FE2C431314C0921312C082
:10379000E11010C08F7080618093B602C5010E9455
:1037A000BF148091B602F80185838F2D6196EAE0FF
:1037B0000C949123C114D10429F0822F83238F3FCD
:1037C00009F003C180E0F82FF170DF2E80FF3CC0CC
:1037D0008091E8024091B70256E0841315C02D870E
:1037E0003E878D859E850E942F0B292F22952F7055
:1037F0002230F0F0243018F59F70F1F0F801958137
:10380000907FD1F4D12C1EC090E0589FF001599FB9
:10381000F00D1124E854FD4F6181361306C060811C
:10382000261303C06281E6120FC001968770D5CFC0
:103830009F7011F0882331F3805E883018F3C8013F
:103840000E94BF14FD2CB1CFEE2009F4AECF8091C1
:10385000B60281608093B602F12CA7CF431306C055
:10386000921304C0F801EE2009F479C0C8010E9447
:103870003C0B882309F1EE20F9F08091B6028032EA
:1038800070F02091B1023091B20238872F831986EF
:10389000DB86CA868C87CE0107960E94BF1486E01D
:1038A000F801A1EBB2E001900D928A95E1F70E9438
:1038B000321BFF24F39479CFC8010E94BF14F9CFC3
:1038C00051110AC081EB92E00E94BF1486E0F5011D
:1038D00011928A95E9F7C0CF43130FC092130DC020
:1038E000E1100BC0F8018583C8010E94BF1486E077
:1038F000F50111928A95E9F758CFC8010E943C0B57
:103900008823D1F2EE20C1F28091B602803238F2E3
:103910002091B1023091B2023A8329831B82DD8269
:10392000CC828E83CE010196B8CFE83CF105F8F643
:10393000FE2CEE2009F243131FC092131DC080918C
:10394000B60280FD10C0982F907F69F0F801858342
:10395000903F31F0982F907F905F8F70892B8583F7
:10396000C8010E94BF1486E0F801A1EBB2E001900B
:103970000D928A95E1F719CFC8010E943C0B811185
:103980008ECF8091B60281608093B602C8010E94FA
:10399000BF140BCFEE2009F48FCFC8010E943C0B5F
:1039A000F82E882309F488CF86E0F801A1EBB2E075
:1039B00001900D928A95E1F78091B1029091B20247
:1039C0000E942F0B0E94321BF0CE81E08E25FBCE91
:1039D000A7E1B0E0EEEEFCE10C947C234B8B5C8B1A
:1039E0006D8B7E8B8F8B611110920A031A8A198A54
:1039F00085E0FE017396DE011D9601900D928A9579
:103A0000E1F786E0FE013D96DE01179601900D92EA
:103A10008A95E1F7CE0107960E94871B882359F00B
:103A200016E08091E8029091B702891343C067962F
:103A3000E3E00C94982386E0FE013796DE011196B0
:103A400001900D928A95E1F78A859B85892B41F338
:103A50008F81988589238F3F19F32091B70230E039
:103A6000C9010196877099274091E8024817190605
:103A700071F40E942E101092B7021092E80286E0B4
:103A8000E1EBF2E0DF011D928A95E9F7C9CF96E0FC
:103A9000929FD001939FB00D1124A854BD4FFE01F9
:103AA000319601900D929A95E1F78093B7020E94AA
:103AB0001109B6CF819FC001112488549D4F0E94E7
:103AC000871B882309F4B3CF8091E80290E0019628
:103AD000877099278093E802A4CF1F920F920FB6A8
:103AE0000F9211242F933F934F935F936F937F9384
:103AF0008F939F93AF93BF93CF93DF93EF93FF93F6
:103B0000D091E900DF708091EC00C82FC17080FD7A
:103B1000C0E81092E9008091F000877F8093F00068
:103B200078940E9444101092E9008091F00088601F
:103B30008093F000CD2BCF70C093E900FF91EF91FF
:103B4000DF91CF91BF91AF919F918F917F916F91B5
:103B50005F914F913F912F910F900FBE0F901F904B
:103B600018951F920F920FB60F9211242F933F9327
:103B70004F935F936F937F938F939F93AF93BF9375
:103B8000EF93FF938091E10082FF09C08091E200F2
:103B900082FF05C08091E1008B7F8093E1008091DE
:103BA000DA0080FF24C08091D80080FF20C080917F
:103BB000DA008E7F8093DA008091D90080FF9DC06B
:103BC00080E189BD82E189BD09B400FEFDCF81E0BD
:103BD0008093540480912F04811109C00E949B029C
:103BE0000E9466038091E20084608093E2008091ED
:103BF000E10080FF17C08091E20080FF13C0809138
:103C0000E2008E7F8093E2008091E20080618093E9
:103C1000E2008091D80080628093D80019BC85E0D2
:103C2000809354048091E10084FF2BC08091E200D6
:103C300084FF27C080E189BD82E189BD89B5982FC5
:103C4000917080FFFBCF8091D8008F7D8093D8004A
:103C50008091E1008F7E8093E1008091E2008F7E71
:103C60008093E2008091E20081608093E200809185
:103C70005504882309F447C084E08093540480915C
:103C800054048091E10083FF27C08091E20083FF0C
:103C900023C08091E100877F8093E10082E08093E0
:103CA0005404109255048091E1008E7F8093E100CE
:103CB0008091E2008E7F8093E2008091E20080613B
:103CC0008093E20042E060E080E00E943403809153
:103CD000F00088608093F000FF91EF91BF91AF9169
:103CE0009F918F917F916F915F914F913F912F9114
:103CF0000F900FBE0F901F90189519BC109254048E
:103D000010922F0474CF8091E30087FD93E090938D
:103D10005404B5CF78941F921FB61F9211248F932D
:103D20009F93AF93BF9380915E0490915F04A091A5
:103D30006004B09161040196A11DB11D80935E04E1
:103D400090935F04A0936004B0936104BF91AF911E
:103D50009F918F911F901FBE1F9018951F921FB6A5
:103D60001F9211248F939F93AF93BF938091290447
:103D7000811113C080915E0490915F04A091600452
:103D8000B09161044196A11DB11D80935E04909392
:103D90005F04A0936004B0936104BF91AF919F91C1
:103DA0008F911F901FBE1F901895CDB7DEB7E1977A
:103DB0000FB6F894DEBF0FBECDBF85B7806885BF54
:103DC00085B7806885BF84B7877F84BF0FB6F894B6
:103DD000A8958091600088618093600010926000D7
:103DE0000FBE80E891E00FB6F89480936100909345
:103DF00061000FBE88E297E0909371028093700299
:103E00000E949B020E9466038091E200846080937E
:103E1000E2007894809154048823A1F01091E90085
:103E20001F709091EC00892F817090FD80E8182B15
:103E30001092E9008091E80083FD0E9444101F70F9
:103E40001093E90082E084BD93E095BD9DE797BDA6
:103E500080936E000E94660B811102C00E94B30A1B
:103E600007E411E09CE4E92E91E0F92ED8018D9150
:103E70008D018F3F11F00E942A07E016F106B1F77D
:103E80000CE411E0F80181918F018F3F11F00E9445
:103E90002A07F1E00B351F07A9F78AE0E9E2F3E012
:103EA000DF01282F1D922A95E9F7E1E1F3E0DF0118
:103EB0001D928A95E9F70E944814811102C00E9460
:103EC000541482E090E00E94B42380931D030E946A
:103ED0007F0B90932B0480932A040E94A50EEFE1A0
:103EE000FEE43197F1F700C000000E94A50E80911A
:103EF000290380FF08C06FEF7FEF90E080E00E9411
:103F0000F0230E94240483E090E00E94B4230E94E6
:103F10002910109233038FEF9FEF90934D038093FE
:103F20004C0390934F0380934E03909351038093DF
:103F300050039093530380935203909355038093BF
:103F4000540390935703809356039093590380939F
:103F5000580390935B0380935A030E944814811185
:103F600004C00E9454140E94910E46E050E06CE19F
:103F700070E086E693E00E94A4231092650380918E
:103F800066038C7F11F40E94910E80E091E0909383
:103F9000260480932504332433948091540485307F
:103FA00089F400E4F02E83E0E82E00E112E1809134
:103FB0005404853009F4C7C00E942E100E94D80412
:103FC000109264030E94A50E8EE193E09CA78BA73C
:103FD000A9E2B3E0BFA7AEA7FC01219131918D9179
:103FE0009D9143E0E832F40709F4FEC02817390731
:103FF000A1F31FE5812E11E0912E712CAEA5BFA576
:10400000ED90FD90BFA7AEA7EBA5FCA58191919186
:10401000FCA7EBA78E159F0509F48BC09C012E25EC
:104020003F2539AB28AB2401612CCC24C394D12C7F
:1040300088A999A98C219D21892B09F46CC087013D
:104040000C211D216EA27FA281E00115110509F44A
:1040500080E088A70E9441048160782F9AA789A7F1
:104060004EA15FA168A58AA50E94E81C012B29F03A
:10407000D2018C918F3F09F00DC1212C022D10E04F
:1040800080913303800F912F911D09976CF1E8E027
:10409000AE2EB12CA01AB10AB8016C5C7C4FA50100
:1040A00084E393E00E940324B801645C7C4FA50183
:1040B0008CE393E00E940324A501440F551FB8012F
:1040C000660F771F645B7C4F8CE493E00E940324AF
:1040D000B8016C5B7C4FA50184E493E00E9403244B
:1040E00088E08219809333038091330390E0EDA53B
:1040F000AE2FB0E09D01220F331F26553E4FAA0F71
:10410000BB1FBD0165557E4F41E0480F921508F475
:10411000C5C0809333036394CC0CDD1CEFEF4E1AC3
:104120005E0AFFE06F1284CFEBA5FCA53297F18207
:10413000E08273942FE0820E911C35E073125ECF03
:104140000E94350473C080915404843009F438C04F
:104150000E94980B8091640381110DC00E94480653
:1041600010920D0180916603837080930C010E9470
:104170000B0AE0921101309264031092290428E1A5
:1041800030E00FB6F894A895209360000FBEF0922F
:10419000600083B7817F846083BF83B7816083BF02
:1041A0007894889583B78E7F83BF0FB6F894A895CF
:1041B00080916000886180936000109260000FBE63
:1041C00080915304882309F4F2CE0E94A50EE9E2FF
:1041D000F3E081919191892B09F03FC243E353E0D1
:1041E0004E175F07B1F7E3CE2817390709F001CF63
:1041F0000E9441048C0180911B0390911C030817BD
:104200001907A1F08FEF89A38AA31BA20E94410482
:104210008160782F9DA38CA349A15AA16BA18DA188
:104220000E94E81C10931C0300931B030E94980B30
:104230000E94D80490912803891721F080932803C5
:104240000E94350480915404843009F0A6CE83E0A6
:104250008093E9008091E80082FF9FCE8091E80082
:1042600090E085FF05C00E94BA02882369F191E0C1
:104270008091E8008B778093E800992309F48DCE34
:10428000E981E150E33108F0B4C0F0E0EC5DFB4DB2
:104290000C9460238DA722242394F0CE90E0FC019F
:1042A000ED5CFC4FD9015C915183DB015C9151873E
:1042B000BDA5B18B880F991FFC01ED5CFC4F128EE0
:1042C000118E91E0842F20CF00E210E0AE014F5F0D
:1042D0005F4F7A018091E80085FD0AC08091E80077
:1042E0008B778093E8000E94BA02882399F3BFCFAE
:1042F0008091F100D7018D937D010150110951F793
:10430000B6CF1A828AE08B8311C08A81823009F489
:10431000BAC1833091F1813009F06BC00E9435043D
:104320000E9466236B837C838D839E8380915404DB
:10433000843009F032CE1091E9001F709091EC00AA
:10434000892F817090FD80E8182B82E08093E9002E
:104350008091E80080FF0DC050E040E060E270E036
:10436000CE0101960E94EB028091E8008E77809347
:10437000E8001F701093E90010CE809129039091FE
:104380002A039827892798279C838B8380912B0366
:1043900090912C039827892798279E838D8380915D
:1043A0002D0390912E0398278927982798878F832C
:1043B00080912F03909130039827892798279A8717
:1043C0008987809131039091320398278927982714
:1043D0009C878B87ABCF8A81823059F46B817C813B
:1043E0008D819E810E94662386E290E00E94D22306
:1043F0009DCF8FEF89839ACF4C816B818A810E94F8
:10440000C30A9827892798279E838D838FCF2D8174
:104410003E813227232732274C816B818A810E947B
:104420003D0A84CF0E94630A81CF8A818138E9F0F6
:1044300088F4803809F07ACF4B8124EB429F412DDC
:1044400011248091670320E06091680390E00E944E
:104450001D056CCF823819F1833809F067CF8B8145
:1044600020E0409169036C81F1CF60E08B810E9474
:104470007E059B8180916603911109C0982F9370EE
:1044800011F0109211018C7F809366034FCF982F0B
:10449000937011F4109211018C7F8160F5CFEB8144
:1044A0008FE7E43020F4F0E0E55AFE4F80818093FE
:1044B0006A033CCF8A818138E1F078F4803809F0D2
:1044C00035CF80916903BFEF8B9FC001112464EB4E
:1044D00070E00E944C236B8329CF823879F08338B7
:1044E00009F024CF809167038B83809168038C83CC
:1044F0001DCF809166038695869505CF80916A03CE
:10450000873230F08F3530F08E3930F083E0FBCEDB
:1045100080E0F9CE81E0F7CE82E0F5CE0E948D0BEF
:1045200005CF80E18A8302CFE1E0EA8381E8EBCE28
:10453000EA80FB80FE24EF24FE248E010F5F1F4FD4
:10454000CC80C00ED12ED11CC70181589D4FC01602
:10455000D10609F4EBCEF1E8EF16F1E0FF0658F4CE
:104560000E94B423D80114968C93FFEFEF1AFF0A30
:104570000F5F1F4FE9CFF8011482F7CF0A811B812B
:104580001027012710279E012F5F3F4F6901EC8004
:10459000E00EF12EF11CC80181589D4FE016F10686
:1045A00009F4C4CE013831E0130728F4D60114967B
:1045B0006C910E94D223BFEFCB1ADB0A0F5F1F4F13
:1045C000EACF0E942D0AB2CE84E0ACCFEA80FB8015
:1045D000FE24EF24FE248E010F5F1F4FCC80C00EFF
:1045E000D12ED11CC7018796C016D10609F49ECEE4
:1045F000E8E5EE16E2E0FE0658F40E94B423D80186
:1046000014968C93FFEFEF1AFF0A0F5F1F4FEACF4C
:10461000F8011482F7CF0A811B8110270127102788
:104620009E012F5F3F4F6901EC80E00EF12EF11CDF
:10463000C8018796E016F10609F478CE083532E015
:10464000130728F4D60114966C910E94D223BFEF71
:10465000CB1ADB0A0F5F1F4FEBCF09BD19BD09B4A1
:1046600000FEFDCF8091D8008F7D8093D80080918F
:10467000E00082608093E0008091E00081FDFCCF4B
:104680000E942E1094CC86E290E00E94B4231B82FC
:104690001C821D828E834ACEAA1BBB1B51E107C020
:1046A000AA1FBB1FA617B70710F0A61BB70B881FC2
:1046B000991F5A95A9F780959095BC01CD01089551
:1046C000EE0FFF1F0590F491E02D099469279627BE
:1046D000692778278727782708952F923F924F924E
:1046E0005F926F927F928F929F92AF92BF92CF9282
:1046F000DF92EF92FF920F931F93CF93DF93CDB78B
:10470000DEB7CA1BDB0B0FB6F894DEBF0FBECDBF02
:1047100009942A88398848885F846E847D848C84D3
:104720009B84AA84B984C884DF80EE80FD800C81DC
:104730001B81AA81B981CE0FD11D0FB6F894DEBFBF
:104740000FBECDBFED010895DC01CB01FC01F9994D
:10475000FECF06C0F2BDE1BDF89A319600B40D92CD
:1047600041505040B8F70895F999FECF92BD81BDF0
:10477000F89A992780B50895A8E1B0E042E050E0AA
:104780000C94A623DC01A40FB51F4150504048F003
:10479000CB01840F951F2E910E94D323415050408E
:1047A000D0F70895262FF999FECF92BD81BDF89AD2
:1047B000019700B4021639F01FBA20BD0FB6F89465
:1047C000FA9AF99A0FBE08950396272F0E94D323D1
:1047D0000E94D223252F0E94D323242F0C94D3236D
:1047E0000196272F0E94D3230C94D223FB01DC01D6
:1047F00004C08D910190801921F441505040C8F7B8
:10480000881B990B0895FB01DC0102C001900D92F9
:1048100041505040D8F70895F894FFCF25114D111D
:10482000F0124D11F0128011A111F0129F12AC1272
:10483000611861189C189C183319CB18CB18CB1829
:104840004D19BA19CB19CB1981218521EB21FC21F6
:104850000722122215225A228E22F921F9219122B1
:0E48600094229822BE22E122E422E6220B23BB
:10486E002104CB092004C609C1091F04FFFF00FF64
:10487E00000301C8FFB4818283E200E900EA00B5BB
:10488E0000B600B700CD008301CC008A01920194DE
:10489E00012102230224022502260227022A02B344
:1048AE0000B4006F007000973435363066F7F6F5B9
:1048BE00F4F1F037909192939594960F3F7FBD3C13
:1048CE003B3A393837363534333231302F002122E6
:1048DE00232425262728292A2B2C2D2E00201F1E87
:1048EE001D1C1B1A191817161514000004050607AF
:1048FE0008090A0B0C0D0E13000000030201000F35
:10490E001011120000000000000060403040104006
:10491E000040103020303030403050306030743035
:10492E0080309030A030B030A040B040D040E04059
:10493E00D030D020C020B020A02090208020742025
:10494E006020502040203020202000200010201019
:10495E003010401050106010741080109010A01085
:10496E00B010C010D010E010E000C000B000A000E9
:10497E009000800074006000500040003000200065
:10498E0010000000040404040404040404040404D9
:10499E0004040404040404040404040404040404C9
:1049AE0004040404040404040404040404040404B9
:1049BE0004040404040404040404040404040404A9
:1049CE000440226D3B011901AC0069048204A2046B
:00000001FF
