:100000000C9403020C9420020C9420020C94200205
:100010000C9420020C9420020C9420020C942002D8
:100020000C9420020C9420020C94FE1A0C94BA1A20
:100030000C94FB1B0C9420020C9420020C942002C4
:100040000C9420020C9420020C9420020C942002A8
:100050000C9420020C94D71B0C9420020C942002C8
:100060000C9420020C9420020C9420020C94200288
:100070000C9420020C9420020C9420020C94200278
:100080000C9420020C9420020C9420020C94200268
:100090000C9420020C9420020C9420020C94200258
:1000A0000C9420020C9420020C94200229001E00C3
:1000B0001F0020002100220023002400250026002C
:1000C00027002D002E0000002A002B000000140045
:1000D0001A000800150017001C0018000C00120080
:1000E00013002F003000310039000000040016001A
:1000F000070009000A000B000D000E000F0033007E
:100100003400280000000000E1001D001B00060074
:1001100019000500110010003600370038000000FB
:10012000E5000000E000E3000000E2000000000045
:100130002C000000000000000151E6000000E40077
:10014000015035003A003B003C003D003E003F00BE
:1001500040004100420043004400450000004C00C4
:10016000000000000000520000000000005CDF5CA6
:10017000000000004A004D004B004E004600000009
:100180000000500051004F0000000000000000007F
:10019000C35CCB5CCA5CC45CAE0000000000000025
:1001A00000000000A500A600A7000000BD00BE00E2
:1001B000A900AA00000000000000000000000000EC
:1001C000000000000000000000000000000000002F
:1001D00000000000000000500001010101010101C8
:1001E00001010202020202020202020303030303EC
:1001F00003030304040404040404050505050506BB
:100200000606060607070707070808080809090978
:10021000090A0A0A0B0B0B0C0C0C0D0D0D0E0E0E21
:100220000F0F0F10101111111212131314141515B2
:1002300016161717181819191A1A1B1B1C1D1D1E24
:100240001E1F202021222223242425262627282978
:10025000292A2B2C2D2D2E2F3031323233343536A6
:100260003738393A3B3C3D3E3F40414243444546A6
:100270004748494A4C4D4E4F505153545556585982
:100280005A5B5D5E5F616264656668696B6C6D6F29
:100290007072737577787A7B7D7E8082838587889C
:1002A0008A8C8E8F91939596989A9C9EA0A2A3A5D6
:1002B000A7A9ABADAFB1B3B5B7BABCBEC0C2C4C6D7
:1002C000C9CBCDCFD1D4D6D8DBDDDFE2E4E7E9EB93
:1002D000EEF0F3F5F8FAFDFF05010980A1018503B1
:1002E00019012AB700150126B70095017510810084
:1002F000C0050C0901A101850419012AA0021501FC
:1003000026A002950175108100C005010906A10112
:100310008506050719E029E71500250195087501EF
:1003200081020507190029EF1500250195F07501D7
:1003300081020508190129059505750191029501AC
:1003400075039101C005010906A101050719E029FE
:10035000E715002501950875018102950175088151
:10036000010507190029FF150026FF0095067508ED
:10037000810005081901290595057501910295016E
:1003800075039101C009023B00020100A0FA0904B3
:1003900000000103010100092111010001224000B8
:1003A00007058103080001090401000103000000A2
:1003B000092111010001226D0007058203200001BF
:1003C0001201000200000008853301000100010253
:1003D000000122034C00690070006B0020007300D4
:1003E000680069006700750061006E00670020000A
:1003F0003600310000000A034C00690070006B00F9
:1004000000000403090411241FBECFEFDAE0DEBFB1
:10041000CDBF12E0A0E0B1E0E0E0FFE302C0059054
:100420000D92AE35B107D9F724E0AEE5B2E001C0D8
:100430001D92A036B207E1F70E94221C0C94681F9F
:100440000C94000090915A04937061F081110BC0DC
:10045000946090935A041092120180915904816023
:10046000809359040895843010F09C60F2CF880F77
:10047000880F982BEECF90915A04937071F080936F
:100480005B0460935C04453B08F044EB40935D04DF
:10049000809159048160809359040895E8EDF0E05B
:1004A00080818E7F80831092E2001092DA00109299
:1004B000E100A0EEB0E08C9181608C9380818F7719
:1004C000808319BCA7EDB0E08C918E7F8C938081E6
:1004D0008F7E80831092230408952091E400309150
:1004E000E50095E6A9012091EC00822F817020FFA4
:1004F00006C08091E80080FF06C080E0089520914A
:10050000E80022FD1AC080914804882389F08530D4
:1005100089F08091EB0085FD0FC02091E4003091BF
:10052000E50042175307F9F29150E1F684E008958F
:1005300082E0089583E0089581E00895EF92FF92AC
:100540000F931F93CF937C018B010E946D02C82FE4
:10055000811117C08091E80085FD0BC08091E800F3
:100560008E778093E8000E946D02882399F3C82F4C
:1005700008C0F70181917F018093F10001501109BA
:1005800049F78C2FCF911F910F91FF90EF90089515
:1005900080914A0487FF13C08091E80082FF06C063
:1005A0008091E8008B778093E80004C08091480434
:1005B0008111F2CF0895809148048823D9F3809166
:1005C000E80080FFF8CF8091E8008E77ECCF982F7D
:1005D0009093E900242F762F50E0891731F0709125
:1005E000EC002091ED005091F00021FD07C09F5FCD
:1005F000973071F78093E90081E008953091EB0026
:100600003E7F3093EB003091ED003D7F3093ED0065
:100610003091EB0031603093EB007093EC0020934D
:10062000ED005093F0002091EE0027FDE0CF80E038
:100630000895B0E0A0E0EFE1F3E00C94D31EC8ED24
:10064000D0E088818F7E8883E7EDF0E08081816053
:10065000808384E082BF81E08093230488818E7F41
:10066000888302EE10E0F80110821092DA0081EE29
:10067000C82ED12CF601108288818F7788838881DB
:100680008068888388818F7D888319BC1092480494
:1006900010924904109247041092460490EEE92EFD
:1006A000F12CF70180818B7F808388818160888332
:1006B00042E060E080E00E94E702F60180818E7FE8
:1006C0008083F8018081816080838081886080835D
:1006D000F70180818E7F8083888180618883CDB798
:1006E000DEB7E8E00C94EF1EFC018091500490917D
:1006F000510486179707A0F06115710529F49091B0
:10070000E8009E779093E80090E06115710551F440
:10071000911108C08091E80082FF34C080E0089504
:10072000BC01F2CF809148048823C1F18530C1F12A
:100730008091E80083FD30C08091E80082FDEACF1F
:100740008091E80080FFE1CF8091F3002091F200DA
:10075000382F6115710519F02830310558F091E0F6
:100760002830310509F090E02091E8002E772093A1
:10077000E800CBCF81918093F100615071092F5F28
:100780003F4FE7CF80914804882341F0853041F006
:100790008091E80083FFBECF81E0089582E0089554
:1007A00083E008950895089580912504089587E7CA
:1007B00097E7909301088093000888E19AE00FB6CC
:1007C000F894A895809360000FBE90936000FFCFCF
:1007D0002FB7F8948091520490915304A09154043F
:1007E000B09155042FBF0895209111012223C9F023
:1007F00020911E0427FF15C0E62FE695E695E695A5
:10080000EE31D8F4E80FF92FF11D677021E030E0E8
:1008100001C0220F6A95EAF720958281282322835E
:100820000895FC01329608962191621303C0DF01FE
:1008300011971C92E817F907B9F708952091110153
:100840002223C1F020911E0427FF14C0E62FE69555
:10085000E695E695EE31F8F4E80FF92FF11D677093
:1008600021E030E001C0220F6A95EAF78281822BF5
:1008700082830895FC0132962FEF30E04191641796
:1008800051F02F3F19F4411101C0232F3F5F363043
:10089000A9F72F3F09F40895820F911D27FD9A951E
:1008A000FC016283089520911B0430911C042817D9
:1008B000390771F090931C0480931B04E091190494
:1008C000F0911A04309721F00084F185E02D09950C
:1008D000089520911704309118042817390771F0F2
:1008E0009093180480931704E0911904F0911A046E
:1008F000309721F00680F781E02D09950895E09169
:100900001904F0911A04309729F00190F081E02D3C
:100910000995089580E00895FA01811101C0FB0155
:1009200009950895E0E6F3E081836083428333967E
:1009300094E0E731F907C1F70895FC01EE0FFF1FBE
:10094000E80FF91FE05AFC4F61834083228308952A
:10095000EAE5F4E0248130E1231B08F420E024835D
:10096000809159048160809359040895EAE5F4E088
:10097000248130E1230F08F42FEF24838091590460
:100980008160809359040895EAE5F4E0438120E111
:10099000421B08F440E08181628190E00E943B02AA
:1009A0000895EAE5F4E0438120E1420F08F44FEFB7
:1009B0008181628190E00E943B020895EAE5F4E0C3
:1009C000628120E1621B08F460E08181438190E054
:1009D0000E943B020895EAE5F4E0628120E1620FA3
:1009E00008F46FEF8181438190E00E943B020895FB
:1009F000EAE5F4E08181438162818850990B0E948D
:100A00003B020895EAE5F4E0818190E04381628150
:100A100008960E943B02089580915A048695869517
:100A2000815009F483E00E942202089580915A04C3
:100A3000869586958F5F843008F081E00E942202BF
:100A400008950E94920408950E949D040895AF9213
:100A5000BF92CF92DF92FF920F931F93CF93DF93BA
:100A6000362F472FE82FF0E0E852FE4F71110FC0EC
:100A7000E4918E2F2E2F6E2F722FDF91CF911F9129
:100A80000F91FF90DF90CF90BF90AF900895C72F48
:100A9000D0E02491F22E022F10E056E0659FC001B5
:100AA0001124EFEFF0E0BF010E94AF1E832F90E012
:100AB000880F991F35E5369FD001379FB00D11245F
:100AC0008A1B9B0B982F990F980F6F01CC1ADD0A88
:100AD000C09ED001C19EB00DD09EB00D11248B2FB1
:100AE000499FA0011124452F55276F01C41AD50A2B
:100AF000C09EA001C19E500DD09E500D11245F01DB
:100B0000A91AB108AC9E6001AD9ED00CBC9ED00C61
:100B10001124CD2CDD24EC19FD09E09FE001E19FBB
:100B2000D00DF09FD00D1124ED2F62307105A1F092
:100B300050F46115710509F49ECF6130710581F0A3
:100B4000EB2F852F98CF6430710569F080F0663007
:100B5000710509F490CFF4CFE22F2B2F8D2F8BCF7F
:100B6000E22F252F88CFEB2F822F2D2F84CF2B2FF5
:100B70008F2DE52F80CFB0E0A0E0E1ECF5E00C9404
:100B8000D31E182F80910D01811327C090915A0414
:100B9000937020910C0130E081E09217130609F464
:100BA00080E081708093100180915F0490910F012B
:100BB000981739F080930F0140E060E080E00E94D8
:100BC00021051130B1F0112351F0123009F457C052
:100BD000133009F497C080E02AC081E0E2CF809111
:100BE0001001882321F140E060E080E00E942105AF
:100BF000F2CFC0910E018DE0C89FC02D11240DE0F1
:100C00000C0FF02E0E3310F03DE3F32E60915B04D9
:100C100070915C0480915D040E942705E62ED72E1A
:100C2000C82ED0E0CF15D8F081E00D33A0F690911A
:100C30000E019F5F90930E0181110CC082E08093A2
:100C4000120180911001811105C0111103C083E0D0
:100C500080931201CDB7DEB7E8E00C94EF1EFE01E1
:100C6000E05EFD4F808190910F01892331F02C2DA2
:100C70004E2D6D2DCE010E9424052196D3CFC0911B
:100C80000E018DE0C89FC02D11240DE00C0FF02E39
:100C90000E3310F02DE3F22E20915E04269526955A
:100CA00031E0230F08F42FEF40915B0350915C0378
:100CB00090E080E0429F812D529F800D911D112474
:100CC000E82ED0E0CF1508F0AFCFFE01E05EFD4F7B
:100CD000808190910F01892399F070915C04FE014D
:100CE000EE0FFF1FEA55FE4F60816E1980915D0483
:100CF0000E942705462F282F672FCE010E9424052A
:100D00002196E0CFC0910E018DE0C89FC02D112427
:100D10000DE00C0FF02E0E3310F08DE3F82ED0E026
:100D2000CF1508F081CF20E040E060E0CE010E94C6
:100D300024052196F5CF80E00895F894E82FE295F8
:100D4000EF70F0E031A1282F2F7081E090E001C01A
:100D5000880F2A95EAF7982F9095932391A392A153
:100D6000892B82A37894089590911E0492FF06C067
:100D7000282F28712830F9F4877F846093FF06C0FC
:100D8000282F28712831F1F4877E846120911F0477
:100D900020FF06C0382F38713830D9F4877F816042
:100DA00021FF06C0282F28712831D1F4877E816168
:100DB00094FD877E0895282F24712430F9F68B7FC7
:100DC0008860DCCF282F2471243101F78B7E886165
:100DD000DDCF382F3171313019F78E7F8860E0CF49
:100DE000282F2171213121F78E7E8861E1CF972F45
:100DF0007530A8F46F3098F470E02FE0929F600D8A
:100E0000711D1124FB019BE4899FE00DF11D11244C
:100E1000EE0FFF1FE455FF4F85919491089580E0F8
:100E200090E00895CF93DF93EC0182389105B1F102
:100E300008F040C08133910509F49DC048F589321E
:100E4000910509F48DC08A9709F49CC0C11522E56B
:100E5000D20708F0BDC0C11531E5D30708F024C1A1
:100E6000C83ED10508F0A3C0C13ED10588F5C83AF7
:100E7000D10508F08EC0C53AD10508F0F6C0C130E2
:100E8000D10531F1209721F1C430D10508F545C0D5
:100E90008533910509F45FC0C997C1F680911E049E
:100EA000837009F036C180911F0483FF11C0C9E22D
:100EB000D0E00EC0833E910599F170F4803E91051B
:100EC00001F1823E910511F680911E0482FD21C040
:100ED000CE01DF91CF910895863E910561F1873E65
:100EE000910571F1843E910509F0B0CF80911F0406
:100EF00081FFEECF80911E04C7EED0E084FD0DC0CF
:100F0000E7CF80911E0480FD33C090911F0490FFB5
:100F1000DFCFC3EED0E084FFDBCFD0E0C0E0D8CF9E
:100F200080911E0482FDF2C090911F0490FDF1C0DB
:100F300084FFCECFF2CF80911E0483FDDDCFC8CFDA
:100F400080911E0483FDE8C090911F0491FFF0CFB3
:100F5000C4EED0E0BDCF80911E0485FFB9CFA7CFEE
:100F600080911E0485FDDBC080911F0483FFB0CFFC
:100F7000C9E3D0E0ADCF80911E0486FFA9CFCAE2BD
:100F8000D0E0A6CF80911E0486FFA2CFC1E3D0E0BF
:100F90009FCFCF3BD10508F6C85AD0E0CC0FDD1F5C
:100FA000C75EDE4F0990D881C02DD46491CFC115A2
:100FB00040E5D40708F064C0C11580E4D80708F004
:100FC0005CC0CE019A9581159F4108F481CFA5CFD1
:100FD000C11536E5D30718F5C11545E5D40708F066
:100FE0007CC0C11584E5D80708F072C09E0123704B
:100FF00033279C2F96959695C115D34508F459C073
:10100000C1E0D0E002C0CC0FDD1F2A95E2F730E24C
:10101000939FC0011124C82BD92BDA6859CFC11571
:101020008AE5D80778F4C11529E5D20708F060C031
:10103000C11538E5D30708F470CFDC2FCC27C06F7B
:10104000D06A46CFCE0190568115904208F065CF08
:101050008D2F8F710E94B40690E0982F88278827E3
:101060009F719C012C2BE90141C0C55AD0E0CA5E9A
:10107000DE4FC881D0E0D0642BCFDF70D06A28CF9C
:10108000CE018370992721E030E002C0220F331F88
:101090008A95E2F7C695C69580E2C89FE0011124C3
:1010A000C22BD32BDD6814CFDC2FCC27C16FD06AC5
:1010B0000FCFC1E0D0E002C0CC0FDD1F2A95E2F7D0
:1010C00020E2929FC0011124C82BD92BDC6800CFED
:1010D000DC2FCC27C46FD06AFBCE8C2F0E94B406C5
:1010E000C82FD0E0DC2FCC27CC27DF71D062F0CE28
:1010F0008C2F8F700E94B40634E0D695C7953A9530
:10110000E1F7CF709C2FEC01D069E2CEC2EED0E0C7
:10111000DFCEC0EED0E0DCCEC6EED0E0D9CEC5E367
:10112000D0E0D6CE8091040381111092040308957B
:1011300080959091030398239093030308958091E1
:10114000E0029091AF02981301C008958F5F8770FD
:10115000FACFB0E0A0E0EFEAF8E00C94D21E7C01F8
:101160000091590310915A03809105039091060351
:10117000082B192BCFE0D0E0CC24C394D12CBC2E6B
:10118000C6010C2E02C0880F991F0A94E2F7802333
:101190009123892B49F4219790F7B12C8B2DCDB752
:1011A000DEB7E9E00C94EE1EB7018C2F0E94F70623
:1011B0000E941207019779F3F1CFCF93DF93EC01EF
:1011C0000E94A908BE010E94F7060E941207DF9143
:1011D000CF910895953078F58F3068F5E82FF0E0DD
:1011E0008FE0989FE00DF11D11249E2F977083E0F2
:1011F000F695E7958A95E1F7EE0FFF1FEE0FFF1FBB
:10120000EF57FD4F50E040E080E0219130E0092EA3
:1012100002C0369527950A94E2F721703327042EF1
:1012200001C0220F0A94EAF7822B4F5F5F4F4430D0
:10123000510559F7089580E00895953098F58F305D
:1012400088F5E82FF0E08FE0989FE00DF11D112464
:101250008E2F877041E001C0440F8A95EAF783E042
:10126000F695E7958A95E1F7EE0FFF1FEE0FFF1F4A
:10127000EF57FD4F30E020E070E05191DF01119712
:10128000CB01022E02C0969587950A94E2F78170F1
:1012900081958527842385278C932F5F3F4F2430AA
:1012A000310559F70895FC0183819481892B29F038
:1012B0008081918189238F3F51F480E00895843F9C
:1012C000E1F717C0883EA8F0813FB9F712C08081CE
:1012D00091810E94DD0892959F70963099F358F4A1
:1012E000925F9F70923048F7803F19F040F7883E38
:1012F00020F781E008959A5FF4CF809320047093E3
:1013000022046093210480914804843001F582E036
:101310008093E9008FEF9091E800815095FD06C021
:101320009AE69A95F1F700C08111F5CF8091E80017
:1013300085FF0DC050E040E063E070E080E294E0A3
:101340000E949E028091E8008E778093E8000895C5
:10135000BC0184E00E947D090895BC0183E00E94E5
:101360007D090895CF93DF93EC01809111018823CB
:10137000B1F180911E0487FF32C060E282E0809369
:10138000E9008FEF9091E800815095FD06C09AE644
:101390009A95F1F700C08111F5CF8091E80085FFA3
:1013A0001BC08091110170E050E040E0811104C049
:1013B00050E040E068E070E0CE010E949E02809123
:1013C000E8008E778093E80080E2FE01A6E2B4E0B8
:1013D00001900D928A95E1F7DF91CF91089568E031
:1013E00081E0CDCF6E9A3EB13F7B2EB120644FB7E6
:1013F000F89480E693E0FC015191CF0168E02EB9AA
:1014000057FF3EB9550F000000C03EB96A95B9F7C5
:10141000F4E087319F0779F74FBF8FE292E00197A1
:10142000F1F700C0000008958F929F92AF92BF9293
:10143000CF92DF92EF92FF921F93CF93DF93809131
:10144000550390915603A0915703B09158032FB7BD
:10145000F8948090520490905304A0905404B0905B
:1014600055042FBF75016401C81AD90AEA0AFB0A9C
:101470002FB7F89440915204509153046091540452
:10148000709155042FBF40935503509356036093BA
:1014900057037093580310912C03ECE2F3E0C12F33
:1014A000D0E00197AF4FBF4F88199909AA09BB092E
:1014B0001D1327C0C0932C0380915F03C0E08111EE
:1014C00008C080915A04C82FC37019F0C82FC69560
:1014D000C695809112018130A9F1882329F18230CB
:1014E00009F490C2833009F498C2DF91CF911F9123
:1014F000FF90EF90DF90CF90BF90AF909F908F9034
:101500000895218D328D4901B12CA12C88159905A2
:10151000AA05BB0520F4C150DF5F3296C9CF2C0D60
:101520003D1D328F218FF8CF10920E0140935B0347
:1015300050935C0360935D0370935E0381E080933E
:101540001201D3CF8C2F0E94BB05CC2371F2D09116
:101550000E018DE0D89FD02D1124C3EFCD0F0E9436
:101560007F0481FF0BC080EE8D0F8E3038F422E4B3
:1015700042E462E480E290E00E94240580915903F5
:1015800090915A03292F33272115310509F46FC093
:10159000C90128E0AC0174E0569547957A95E1F7CA
:1015A0004115510511F02C5FCA01AC0156954795C4
:1015B000569547954115510511F02E5FCA01969534
:1015C0008795892B09F491CF21118FCFCD3308F462
:1015D00050C0C73209F470C0CB3208F476C0CB32A9
:1015E00009F47CC0CC3209F482C0CD3209F488C041
:1015F000CE3209F07ACF22E442E462E48EE290E057
:101600000E942405C03208F48DC0C93009F0EDC134
:10161000D93038F022E442E462E489E090E00E94AC
:101620002405DB3038F022E442E462E48BE090E011
:101630000E942405DC3038F022E442E462E48CE0CD
:1016400090E00E942405DD3038F022E442E462E4B8
:101650008DE090E00E942405DE3008F446CF22E4BD
:1016600042E462E48EE090E00E9424053ECF20E058
:1016700091CFDC3308F4B1C022E442E462E48CE3AD
:1016800090E00E942405CC3309F42FCF22E442E4F9
:1016900062E48BE390E00E942405CB3308F4A9C0F8
:1016A000C73208F096CFD63238F022E442E462E442
:1016B00086E290E00E942405D73238F022E442E42A
:1016C00062E487E290E00E942405DA3238F022E4F6
:1016D00042E462E48AE290E00E942405DB3238F0C2
:1016E00022E442E462E48BE290E00E942405DC32D2
:1016F00038F022E442E462E48CE290E00E942405A7
:10170000DD3250F022E442E462E48DE290E00E9497
:101710002405DE3208F06FCFC03208F076CFDF311B
:1017200008F430C122E442E462E48FE190E00E94D8
:101730002405CF3108F069CF22E442E462E48EE16F
:1017400090E00E942405CE3108F05FCF22E442E40D
:1017500062E48DE190E00E942405C93108F055CF84
:1017600022E442E462E488E190E00E942405C8316A
:1017700008F04BCF22E442E462E487E190E00E946B
:101780002405C73108F041CF22E442E462E486E157
:1017900090E00E942405C63108F037CF22E442E4ED
:1017A00062E485E190E00E942405C53108F02DCF68
:1017B00022E442E462E484E190E00E942405C8301F
:1017C00008F40BC1C93008F020CF22E442E462E4FF
:1017D00088E090E00E9424051BCFCC3309F485CE2D
:1017E000DB3309F453CFCB3309F47FCEDA3309F07E
:1017F00080C022E442E462E48AE390E00E9424058F
:10180000CA3308F04DCF22E442E462E489E390E079
:101810000E942405C93308F043CF22E442E462E485
:1018200088E390E00E942405C83308F039CF22E411
:1018300042E462E487E390E00E942405C73308F0A5
:101840002FCF22E442E462E486E390E00E94240584
:10185000C63308F025CF22E442E462E485E390E059
:101860000E942405C53308F01BCF22E442E462E461
:1018700084E390E00E942405C43308F011CF22E4F1
:1018800042E462E483E390E00E942405C33308F05D
:1018900007CF22E442E462E482E390E00E94240560
:1018A000C23308F0FDCE22E442E462E481E390E03A
:1018B0000E942405C13308F0F3CE22E442E462E43E
:1018C00080E390E00E942405C03308F0E9CE22E4D2
:1018D00042E462E48FE290E00E942405C43208F002
:1018E000DFCE22E442E462E483E290E00E94240539
:1018F000DACECA3309F4F9CDD93309F484CFC93328
:1019000009F4F3CDD83309F488CFC83309F4EDCD09
:10191000D73309F48CCFC73309F4E7CDD63309F4B4
:1019200090CFC63309F4E1CDD53309F494CFC53354
:1019300009F4DBCDD43309F498CFC43309F4D5CD01
:10194000D33309F49CCFC33309F4CFCDD23309F498
:10195000A0CFC23309F4C9CDD13309F4A4CFC13328
:1019600009F4C3CDD03309F4A8CFC03309F4BDCDF9
:10197000DF3209F4ACCFC43208F092CED33208F48F
:1019800092CEAFCFCF3109F4B0CDDE3109F4D4CE51
:10199000CE3109F4AACDDD3109F4D8CEC93108F031
:1019A00011CFD83108F0DCCEC83109F49ECDD73143
:1019B00009F4E0CEC73109F498CDD63109F4E4CE6C
:1019C000C63109F492CDD53109F4E8CEC53109F418
:1019D0008CCDD43109F0F3CEEBCE22E442E462E4C4
:1019E00087E090E00E942405F0CECC3008F419CEB8
:1019F000CC3009F41FCECD3009F425CECE3009F01D
:101A000074CD2ACEC0930D0180915A0483708093C7
:101A10000C010E94F20983E092CD80915904882341
:101A200051F046E050E06CE170E08AE594E00E94FD
:101A30001E1F1092590440915B0350915C0360910A
:101A40005D0370915E032FB7F894809152049091DA
:101A50005304A0915404B09155042FBF841B950BDF
:101A6000A60BB70B4097A105B10508F43ECD109227
:101A700012013BCDEAE5F4E089E080838091130117
:101A800090911401A091150181839283A3838FE724
:101A900084838FEF858346E050E06CE170E0CF01F6
:101AA0000E941E1F109259040895CF9384E090E085
:101AB0000E94101FC82F82E290E00E94101F982FF2
:101AC0008C2FCF910895AAE0B0E0E9E6FDE00C94F8
:101AD000CD1E8E010F5F1F4F8AE0F80111928A958B
:101AE000E9F797E4E92E91E0F92E68012CE4622EE3
:101AF00021E0722E88248394912CF70181917F013B
:101B00008F3F09F446C0F894E82FE295EF70F0E0BB
:101B100021A18F70A40102C0440F551F8A95E2F7DE
:101B2000CA01922F982B91A392A18095892382A319
:101B3000789400C0ECE4F1E021E030E0B12CA12C7D
:101B400041914F3F09F471C0A42FA295AF70B0E04E
:101B500090968C9190E04F7002C0959587954A952C
:101B6000E2F780FD62C0C901A82AB92A220F331FFB
:101B700051E0EB35F50721F7F701319780818F3F71
:101B800011F00E949D0680E58A95F1F7F601B18279
:101B9000A082F2E0CF0ED11C6E147F0409F0ADCF0D
:101BA0004AE050E0B8018AE093E00E94521F892B7E
:101BB00009F43EC08AE0F801AAE0B3E001900D927A
:101BC0008A95E1F781E0809309030E94E8039093EE
:101BD00008038093070320910703309108034FB750
:101BE000F8948091520490915304A0915404B091C0
:101BF00055044FBF821B930B0597F0F04AE050E06D
:101C00006AE073E086E193E00E94521F892BC9F0DD
:101C10008AE0EAE0F3E0A6E1B3E001900D928A9554
:101C2000E1F781E01092090308C090E080E09CCFCA
:101C3000809109038111CFCF80E02A96EEE00C94C9
:101C4000E91E80E0EFCF8091030390910203892B7E
:101C500080936002909104039923A1F0892B8093D3
:101C60006002809111018823E1F180911E0487FFB9
:101C700038C08EE1E2E6F2E090E08150A0F59111EB
:101C80000E94920840E250E062EE72E080E692E04C
:101C90000E94521F892B21F180E2E0E6F2E0A2EEE1
:101CA000B2E001900D928A95E1F7E0911904F0916C
:101CB0001A043097A9F080911101882359F080917E
:101CC0001E0487FF07C0809160028093610286E056
:101CD000809360020280F381E02D80E692E0099516
:101CE000089586E0C7CF2191222339F29F5FC5CFA7
:101CF00090E080E00E94690490E080E00E9453043C
:101D0000109202030E94230E089590935A03809329
:101D100059030E94780E089521E030E002C0220F9E
:101D2000331F8A95E2F72095309580915903909161
:101D30005A03822393230E94850E08959091E10215
:101D4000809589238093E102282F277091F4282F12
:101D5000082E000C330B9217130659F090911F04B4
:101D600092FF07C08595859585950E948C0E1092EF
:101D7000E102089521E030E002C0220F331F8A956E
:101D8000E2F78091590390915A03822B932B0E9482
:101D9000850E089590930603809305030E94780EA4
:101DA00008951092030380911101E2E6F2E0882386
:101DB00061F080911E0487FF08C08EE1DF011D9253
:101DC0008A95E9F70E94780E089586E0F7CFAAE297
:101DD000B0E0EDEEFEE00C94D81E8AE494E0209191
:101DE000F100FC012193CF01F4E082359F07B9F7A0
:101DF00080914B04833009F470C0B8F4813009F449
:101E000047C0823009F4B1C08091E80083FF7EC2F0
:101E100080914A0490914B049A3008F077C2E92FE0
:101E2000F0E0E659F04E0C94C31E8A3009F48CC0E1
:101E30008B3009F46FC0893039F780914A048132C0
:101E400019F780914E0490914F040297E8F6809123
:101E5000E800877F8093E8008091E80082FF38C027
:101E60009091F3008091F200029731F48091F1009B
:101E7000813011F0863021F48091F10080932504A7
:101E80008091E8008B778093E8000E94C802BCCF65
:101E900080914A04813A09F0B7CF8091E800877FAA
:101EA0008093E80080914E0490914F04892B61F457
:101EB00060E286E294E070E00E9474038091E800A2
:101EC0008B778093E800A0CF60E090E080E0F3CFD4
:101ED000809148048111C0CF97CF80914A04813A04
:101EE00009F092CF80914E0490914F04892B09F014
:101EF0008BCF8091E800877F8093E8008091E80095
:101F000080FFFCCF809111018093F1008091E80067
:101F10008E77B9CF80914A04813209F075CF8091D4
:101F20004E0490914F04892B09F06ECF8091E80008
:101F3000877F8093E8000E94C80280914C048093C0
:101F400011010E94D10E60CF80914A04813209F0C4
:101F50005BCF8091E800877F8093E8000E94C802F1
:101F600080914D04809324044FCF80914A04813A9C
:101F700009F04ACF8091E800877F8093E800809144
:101F8000E80080FFFCCF80912404BECF803899F018
:101F9000823809F0BBC180914E048F70873008F001
:101FA000B5C18093E9008091EB0085FB882780F91B
:101FB0001092E90006C08091460490914704911167
:101FC00082609091E800977F9093E8008093F10001
:101FD0001092F1008091E8008E7794C1882309F473
:101FE00082C1823009F092C180914C04811185C177
:101FF00080914E048F702FEF280F263008F086C195
:102000008093E9002091EB0020FF77C1933031F4F9
:102010008091EB0080628093EB006FC19091EB00A8
:1020200090619093EB0021E030E001C0220F8A958F
:10203000EAF72093EA001092EA008091EB008860B2
:10204000EACF811163C110914C041F778091E300A6
:102050008078812B8093E3008091E800877F8093D4
:10206000E8000E94C8028091E80080FFFCCF8091C8
:10207000E30080688093E30082E0111183E08093A5
:10208000480444C18058823008F040C180914C041B
:1020900090914D048C3D23E09207A1F583E08A8363
:1020A0008AE289834FB7F894DE01139620E03EE080
:1020B00051E2E32FF0E050935700E49120FF03C07A
:1020C000E295EF703F5FEF708E2F90E0EA30C0F046
:1020D000C7968D939D932F5F243159F74FBF809101
:1020E000E800877F8093E8006AE270E0CE01019605
:1020F0000E9474038091E8008B778093E80006C10A
:10210000C096E7CF40914E0450914F04292F3327BA
:102110002330310509F444C078F52130310509F444
:102120006FC08BE390E0E5E8F3E02230310509F081
:10213000EDC02091E800277F2093E8002091500413
:10214000309151048217930708F49C0140E0211557
:10215000310509F064C0411162C08091E80082FD40
:10216000C9CF80914804882329F2853019F28091E3
:10217000E80083FFF2CFBECF21323105A9F1223230
:10218000310509F0C3C04115510509F443C0413080
:10219000510509F0BBC08DE690E0E8EDF2E0C9CF53
:1021A000992781309105C1F0009759F0029709F005
:1021B000ADC0E2EDF3E0E4918E2F90E0E2EDF3E0CC
:1021C00007C0E2E0F4E0E4918E2F90E0E2E0F4E07A
:1021D000009709F49BC0ADCFE6EFF3E0E4918E2FBA
:1021E00090E0E6EFF3E0F4CF4115510571F0413096
:1021F000510509F08BC089E090E0E0EBF3E099CF66
:1022000082E190E0E0ECF3E094CF89E090E0E7E950
:10221000F3E08FCF80E490E0E5E4F3E08ACF8091B3
:102220004804882309F466CF853009F463CF809190
:10223000E80083FD5FCF8091E80082FD8ECF809122
:10224000E80080FF84CF9091F3008091F200211587
:10225000310519F08830910550F041E0089709F0F8
:1022600040E08091E8008E778093E80070CF449141
:102270004093F1003196215031090196E8CF803822
:1022800009F044C08091E800877F8093E800809146
:1022900049048093F1009ECE811138C010914C0406
:1022A0001230A0F58091E800877F8093E8001093BA
:1022B00049040E94C802112311F084E005C08091F6
:1022C000E30087FDFACF81E08093480442E061ECAF
:1022D00081E00E94E70242E261EC82E00E94E702B4
:1022E0008091480413C080914C04813079F481E0DE
:1022F000933009F080E0809347041092E9008091C8
:10230000E800877F8093E8000E94C8028091E8007F
:1023100083FF0AC08091E800877F8093E800809166
:10232000EB0080628093EB00AA96E3E00C94F41E2D
:102330000E94D10E2FE78AE196E021508040904024
:10234000E1F700C0000088E19AE00FB6F894A89584
:10235000809360000FBE90936000FFCF882321F030
:102360000E9498080E94230E0895882339F09091C6
:102370000303982B909303030E94230E0895882350
:1023800051F19CEF980F913A40F4682F80E692E06B
:102390000E94F4030E94230E089590E2980F983053
:1023A00050F4877091E001C0990F8A95EAF7892F60
:1023B0000E949808EFCF9BE5980F933028F490E0A7
:1023C00080E00E9469040895885A873120F490E0E3
:1023D00080E00E9453040895CF93C82F8823D9F139
:1023E0008CEF8C0F813AC8F580911101882311F18F
:1023F00080911E0487FF1EC0EC2FE695E695E695BA
:10240000F0E0E05AFD4F828190E04C2F477021E0D0
:1024100030E002C0220F331F4A95E2F78223932354
:10242000892B91F06C2F80E692E00E94F4030E94C9
:10243000230E0AC0E2E6F2E088E692E02191C2179C
:1024400089F38E179F07D1F76C2F80E692E00E94E8
:102450001E040E94230ECF91089580E28C0F8830D5
:1024600068F4C77021E030E001C0220FCA95EAF796
:1024700080910303822B80930303EBCFEBE5EC0FFA
:10248000E33040F4F0E0EA5EFE4F808190E00E948D
:102490006904E1CFC85AC731F0F6EC2FF0E0EE0F37
:1024A000FF1FE75EFE4F808191810E945304D3CFCE
:1024B0000F931F93CF93DF93C62FD42F022FFC01CE
:1024C00082818823A9F0609358040E94E8039093C6
:1024D000570480935604C77081E001C0880FCA95E5
:1024E000EAF70E94B511DF91CF911F910F910895E6
:1024F00080915804681341C02091560430915704CC
:102500004FB7F8948091520490915304A0915404D1
:10251000B09155044FBF821B930B883C910568F521
:1025200010E21D0F6D17B9F080E2860F883040F47D
:10253000C77081E001C0880FCA95EAF70E94AE110A
:10254000183048F481E09D2F977001C0880F9A954C
:10255000EAF70E94B511802F0E94EC11802F0E9493
:10256000BF11183008F0BFCFD77081E001C0880FCD
:10257000DA95EAF70E94AE11B6CFC77081E001C0CC
:10258000880FCA95EAF7F6CF68EE7EEF90E080E01C
:102590000E944C1F60E082E090E00E942E1F60E0ED
:1025A00083E090E00E942E1F109206031092050314
:1025B00060E084E090E00E942E1F64E082E290E000
:1025C0000E942E1F60E085E090E00E942E1F60E0D8
:1025D00086E090E00E942E1F6FEF87E090E00E945F
:1025E0002E1F40E050E0BA0188E090E00E94401FBA
:1025F00060E08DE090E00E942E1F40E050E0BA01C4
:1026000088E190E00E94401F60E087E190E00E9436
:102610002E1F40E050E0BA018CE190E00E94401F84
:1026200070E060E080E290E00E944C1F40E050E0EB
:10263000BA0188E190E00E94401F40E050E0BA01FA
:102640008FE090E00E94401F40E050E0BA0183E13B
:1026500090E00E94401F0895CF93C0911F04C2FBD9
:10266000992790F9981791F080FBC2F9C0931F0445
:1026700060911E0484E090E00E942E1F6C2F82E285
:1026800090E00E942E1F82E00E949E0ECF9108953E
:10269000A5E0B0E0EEE4F3E10C94CF1E7C01FC0178
:1026A00083819481892B31F08081918189238F3FAF
:1026B00009F08AC42596ECE00C94EB1E0E94A90850
:1026C000182F682F89819A810E941D0969817A815A
:1026D000812F0E94F7068C01843FFCE59F0709F4D7
:1026E00083C018F5893D9C4509F47AC00A3D8CE504
:1026F000180709F489C0083D9CE5190709F526E289
:1027000041EE61EEC7010E9458128091E10287708C
:1027100089F2F7018281882369F280911F0482FF88
:10272000C9CF82E00E949E0EC5CF863FECE59E0792
:1027300009F462C008F45CC0873F9C4509F460C09E
:10274000F7018281882309F450C4109258040430A0
:10275000FDE51F0708F05BC00B3F2CE5120730F4C6
:10276000C80182509C45449708F05CC00E94550DFA
:1027700090931F0480931E040231ECE51E0709F4B8
:102780005CC108F0A8C009302CE5120709F433C178
:1027900008F072C005308CE5180709F41CC108F078
:1027A0005EC00330ECE51E0709F40DC108F00FC14F
:1027B00080911E04816002302CE5120709F488C064
:1027C00060911E0410911F0484E090E00E942E1F6F
:1027D000612F82E290E00E942E1F0E94D10E95CFC1
:1027E00027E245EE65EE8ECF26E241EE60EE8ACF1F
:1027F00027E245EE64EE86CF26E241EE62EE82CF1E
:1028000027E245EE66EE7ECF28E241E0EBCF063AC6
:102810003DE5130709F4AACFE0F402369DE5190758
:1028200009F4A4CF06318CE5180709F04AC4809159
:1028300003038A7A91E009F490E09093800269E2C0
:10284000811165E380E692E00E941E040E94230E3F
:102850005CCFC8018E5A9D45039720F787CF8091A2
:102860001E04806207303CE5130791F108F4BFC0F5
:1028700080911E0480642CC00D309CE5190709F47A
:10288000C4C090F480911E048E7F0B30FCE51F07BE
:10289000F9F080911E048C600C302CE51207C0F01A
:1028A00080911E048D7F14C00F303CE5130709F49E
:1028B000BCC008F4AEC000319CE5190709F4B9C0EA
:1028C00080911E048F7B0131ECE51E0709F078CF63
:1028D00080931E0475CF0115FDE51F0709F4B7C0ED
:1028E000A8F50B3F3CE5130709F479C0C0F40431A7
:1028F0009CE5190709F4B9C008F4A5C00531FCE549
:102900001F0709F05DCF80911E0482FB992790F983
:1029100021E0922790FB82F990FB83F9D9CF0D3FFC
:102920002CE5120709F479C008F45DC00E3F8CE570
:10293000180709F476C080911F0483600F3F9CE55F
:10294000190709F03DCF80931F043ACF0236EDE519
:102950001E0709F495C090F402302DE5120709F422
:102960008DC008F478C060E003308DE5180709F0E9
:1029700027CF8EE090E00E942E1F22CF0E3A9DE5D9
:102980001907E9F060F490911E04892F8E7F90FF63
:102990008160063AFDE51F0709F49ACF11CF0F3A7F
:1029A0002DE5120771F1003B3DE5130709F008CF53
:1029B00090911F04892F877F93FF8860C4CF8091F7
:1029C0001F048860C0CF80911E04826081CF8091F7
:1029D0001E0484607DCF80911E04886079CF809131
:1029E0001F048160B0CF80911F048260ACCF8091C2
:1029F0001E0480616DCF0E94D10E80911E048068FC
:102A000067CF80911F04877F9ECF80911E048B7FAC
:102A10005FCF80911E04877F5BCF80911F048E7FE4
:102A200092CF80911F048D7F8ECF80911E048F7E68
:102A30004FCF80911E048F7D4BCF0E94D10E80918D
:102A40001E048F7745CF80911E04837F41CF8091F4
:102A50001F048C7F78CF80911F04982F90959170E0
:102A60008E7F892B90FB81F96ECF0E94D10E9091C1
:102A70001E04892F97FB87F980582ACF61E079CF10
:102A800090911E04892F8F7E94FF806121CF8091C9
:102A9000800269E2811165E380E692E00E94F4031E
:102AA000D5CE4CE055E066E175E00E948C042DCE59
:102AB00046E155E06CE075E0F8CF48EF54E062E0A5
:102AC00075E0F3CF42E055E068EF74E0EECF4EEDF5
:102AD00054E06BEE74E0E9CF4BEE54E06EED74E041
:102AE000E4CF41ED54E064EC74E0DFCF46EB54E01A
:102AF00068EA74E0DACF0E94D10E9FE7EAE1F6E0DF
:102B00009150E040F040E1F700C000000E94D70380
:102B100080911F0482FB882780F991E089270E9419
:102B20002C13F701828100811181882309F445C0AB
:102B3000C8010E94A908D82E682FC8010E941D094B
:102B4000B8018D2D0E94F7060E9412078C01882E75
:102B5000F701D280B580B2943FE0B3228091E102C8
:102B60008770C1F0AD2CDD20B1F0812F807F8034E3
:102B700021F080E2800F883068F080911F0482FF8E
:102B800009C082E00E949E0E8091E1028770AA2413
:102B9000A3948111A12C912E92942FE09222FBE01C
:102BA000F91508F476C0E92DF0E0EC58F04E0C94DD
:102BB000C31E81E0B4CF80E0B2CFC8010E94EA0812
:102BC000D82EBECF212F2F70C22E107F19F0C294A5
:102BD00090EFC922DD20B9F0CC2069F080E2800FAF
:102BE000883010F0811009C080910303C82AC09278
:102BF00003030E94230E802F4AC080910203C82A3B
:102C0000C0920203F6CF802F0E94BF11CC2009F49E
:102C100040C0005E083010F0811004C08C2D0E946E
:102C2000980806C0C09480910203C822C092020393
:102C30000E94230E2EC0312F3F70C32E107F103202
:102C400019F0C29480EFC822882089F081E08816AC
:102C500009F477C0DD2009F481C0BB2009F477C0F6
:102C6000F701858180FFC7CF8F70858370C0209169
:102C70001F0422FD43C0DD20D9F1CC2039F0809122
:102C80000303C82AC09203030E94230E80E00E941F
:102C9000EC11E92DE850FF0B349710F40E947F04EB
:102CA000AA20A9F08091E10280FD11C0F7011282F3
:102CB0008595859585950E94BA0EC7010E94481397
:102CC0008091E1028595859585950E948C0E85E021
:102CD000F701DE01119601900D928A95E1F70981C5
:102CE0001A81C8010E94EA08B8010E94F706E2CCE6
:102CF00080E00E94BF11CC2061F290CFDD20A1F0D6
:102D0000909104038C2D892BB11003C00E94B51142
:102D1000C0CFE1E0BE12FACF22FFBBCF981709F473
:102D2000B8CF80930403B5CFB11006C00E949208BB
:102D30008C2D0E94AE11ADCFF1E0BF1609F4A9CFE2
:102D4000F5CFDD2031F025E02B1508F4A2CF8C2D36
:102D5000DDCF34E03B1508F49CCFEACFBB2041F334
:102D6000F9E38F122AC12FEF33EF81E02150304079
:102D70008040E1F700C0000020C1812F8695869534
:102D8000837061F0813009F084CFC8019370D11055
:102D900002C090E080E00E9453047BCFC801937092
:102DA000D11002C090E080E00E94690472CF812FB0
:102DB000837009F03FC0D1106CCF402F42954695EB
:102DC0004770440F440F802F8F7090E0042E02C094
:102DD000880F991F0A94E2F730E020E004FF09C051
:102DE0002FE030E002C0220F331F4A95E2F7209512
:102DF0003095169516951370123099F078F440912D
:102E0000050350910603113039F0822B932B842354
:102E100095230E94CA0E3DCF842B952B822B932B9A
:102E2000F8CF822B932B2091050330910603822744
:102E30009327EFCF8695DD2011F0812F81708823B5
:102E400009F427CF402F429546954770440F440F11
:102E5000802F8F7090E0042E02C0880F991F0A9473
:102E6000E2F730E020E004FF09C02FE030E002C0CC
:102E7000220F331F4A95E2F7209530951695169547
:102E80001370123099F078F44091590350915A031D
:102E9000113039F0822B932B842395230E94850EC9
:102EA000F8CE842B952B822B932BF8CF822B932B50
:102EB0002091590330915A0382279327EFCF1F7037
:102EC000DD2029F0812F0E94BA0E802F1FCF802F86
:102ED0000E94AE11812F0E948C0EDBCE802F92EFCC
:102EE000891699F1981570F0E0EF8E16D1F0F1EF98
:102EF0008F1691F0DD2009F45BC0B1107CCE812FDC
:102F00008F7127C023EF821639F134EF8312F2CF8D
:102F100080911F0482FD2EC0812F8F71DD20D9F298
:102F200018C0DD2069F084E08B1508F4B2CE1F7163
:102F300081E090E002C0880F991F1A95E2F7B8CFA0
:102F400095E09B1508F4A5CEF2CF812F8F71D1109B
:102F5000C2CF0E94BA0E9DCE90E080E0DD2009F441
:102F60009DCF1F7181E090E002C0880F991F1A95D4
:102F7000E2F794CFDD2089F01F71812F0E94BA0EF5
:102F800080911F0482FF07C0E8E01E9FC00111244A
:102F900083608093E102812FDCCF81E00E949E0E4E
:102FA000F1E0FB1508F075CE82E00E949E0E71CE16
:102FB000BB2039F0893309F4D6CE802F0E94BF118F
:102FC00068CE812F8F7187CF85E0DE011196019049
:102FD0000D928A95E1F7F701228189819A81211169
:102FE0006DCB0E94EA08182F71CB0631FCE51F0754
:102FF00009F44DCD8091030382720B3C2CE512073E
:1030000009F46FCDB0F5063C9CE5190709F455CDE0
:10301000D0F4043CFCE51F0709F443CD08F048CD8B
:10302000033C3CE5130709F07CCD80915A0491E004
:10303000892780935A04109212018091590481606B
:103040008093590462CB083C9CE5190709F43FCDF5
:1030500008F438CD093CFCE51F0709F43DCD44ECEC
:1030600054E061ED74E00A3C2CE5120709F41DCD33
:1030700058CD0F3C3CE5130709F447CB90F40D3CC9
:10308000ECE51E0709F432CD48EA54E066EB74E043
:103090000E3CFCE51F0708F408CD81E00E942202E7
:1030A00034CB073D2CE5120730F482E0013D3CE5CE
:1030B0001307A0F32ACB0E358DE5180709F425CBAD
:1030C00030CD0B359DE5190709F473CD68F4011572
:1030D000FCE51F0709F40FCD0F3D1C4509F021CD7C
:1030E0000E94C4120E9498110D353DE5130709F4A2
:1030F0000FCD08F460CD083A1D45A1F312CD1F9302
:10310000CF93DF938091AE02807F09F049C0809118
:10311000AB02882309F444C08091E002D091AF0251
:103120006091A9027091AA02A091AC02B091AD0287
:10313000C62FC72316E0D81799F190E0109711F029
:10314000CF3F19F401968770F6CF189F9001199F11
:10315000300D1124F901E055FD4F41814713F2CFA5
:1031600040814613EFCF42814111ECCF438154811E
:103170004A1B5B0B483C510528F78091AE028F70CB
:1031800080618093AE02F901EB54FD4F80818F7016
:103190008061808389EA92E00E9448130E949F0820
:1031A000DF91CF911F910895A1E1B0E0EAEDF8E140
:1031B0000C94D11E8C0185E0F801DE011D96019072
:1031C0000D928A95E1F7F801E28089EAA82E82E063
:1031D000B82E6091AC027091AD026115710509F4D1
:1031E00026C19091A9024091AA02892F84238F3F82
:1031F00009F41DC120813181C380D480F090AB02DD
:10320000F601E61BF70BFF2009F4DCC08091AE024B
:10321000582F507FE83CF10508F09FC051116BC05A
:10322000FE2C431314C0921312C0E11010C08F7013
:1032300080618093AE02C5010E9448138091AE0266
:10324000F80185838F2D6196EAE00C94ED1EC11480
:10325000D10429F0822F83238F3F09F003C180E03E
:10326000F82FF170DF2E80FF3CC08091E00240918A
:10327000AF0256E0841315C02D873E878D859E854D
:103280000E94DD08292F22952F702230F0F0243083
:1032900018F59F70F1F0F8019581907FD1F4D12C51
:1032A0001EC090E0589FF001599FF00D1124E05589
:1032B000FD4F6181361306C06081261303C0628111
:1032C000E6120FC001968770D5CF9F7011F088234A
:1032D00031F3805E883018F3C8010E944813FD2C3A
:1032E000B1CFEE2009F4AECF8091AE028160809321
:1032F000AE02F12CA7CF431306C0921304C0F8010D
:10330000EE2009F479C0C8010E945309882309F10D
:10331000EE20F9F08091AE02803270F02091A90287
:103320003091AA0238872F831986DB86CA868C875C
:10333000CE0107960E94481386E0F801A9EAB2E0A0
:1033400001900D928A95E1F70E947F18FF24F39473
:1033500079CFC8010E944813F9CF51110AC089EAF8
:1033600092E00E94481386E0F50111928A95E9F7F0
:10337000C0CF43130FC092130DC0E1100BC0F80172
:103380008583C8010E94481386E0F50111928A9551
:10339000E9F758CFC8010E9453098823D1F2EE20E3
:1033A000C1F28091AE02803238F22091A9023091B0
:1033B000AA023A8329831B82DD82CC828E83CE01CE
:1033C0000196B8CFE83CF105F8F6FE2CEE2009F2A4
:1033D00043131FC092131DC08091AE0280FD10C028
:1033E000982F907F69F0F8018583903F31F0982FF6
:1033F000907F905F8F70892B8583C8010E9448134E
:1034000086E0F801A9EAB2E001900D928A95E1F711
:1034100019CFC8010E94530981118ECF8091AE024D
:1034200081608093AE02C8010E9448130BCFEE204A
:1034300009F48FCFC8010E945309F82E882309F49C
:1034400088CF86E0F801A9EAB2E001900D928A9552
:10345000E1F78091A9029091AA020E94DD080E94E2
:103460007F18F0CE81E08E25FBCEA7E1B0E0EBE344
:10347000FAE10C94D81E4B8B5C8B6D8B7E8B8F8B03
:103480006111109202031A8A198A85E0FE0173966F
:10349000DE011D9601900D928A95E1F786E0FE010E
:1034A0003D96DE01179601900D928A95E1F7CE01C7
:1034B00007960E94D418882359F016E08091E00204
:1034C0009091AF02891343C06796E3E00C94F41E19
:1034D00086E0FE013796DE01119601900D928A95E5
:1034E000E1F78A859B85892B41F38F819885892314
:1034F0008F3F19F32091AF0230E0C9010196877028
:1035000099274091E0024817190671F40E94D10EE4
:103510001092AF021092E00286E0E9EAF2E0DF01E9
:103520001D928A95E9F7C9CF96E0929FD001939FAB
:10353000B00D1124A055BD4FFE01319601900D92A2
:103540009A95E1F78093AF020E949F08B6CF819FC2
:10355000C001112480559D4F0E94D418882309F47E
:10356000B3CF8091E00290E0019687709927809315
:10357000E002A4CF1F920F920FB60F9211242F9347
:103580003F934F935F936F937F938F939F93AF93EB
:10359000BF93CF93DF93EF93FF93D091E900DF7058
:1035A0008091EC00C82FC17080FDC0E81092E90046
:1035B0008091F000877F8093F00078940E94E70E5E
:1035C0001092E9008091F00088608093F000CD2B8C
:1035D000CF70C093E900FF91EF91DF91CF91BF9140
:1035E000AF919F918F917F916F915F914F913F919B
:1035F0002F910F900FBE0F901F9018951F920F9252
:103600000FB60F9211242F933F934F935F936F93B5
:103610007F938F939F93AF93BF93EF93FF9380918B
:10362000E10082FF09C08091E20082FF05C0809125
:10363000E1008B7F8093E1008091DA0080FF24C05D
:103640008091D80080FF20C08091DA008E7F809327
:10365000DA008091D90080FF9DC080E189BD82E1C0
:1036600089BD09B400FEFDCF81E0809348048091BC
:103670002304811109C00E944E020E941903809107
:10368000E20084608093E2008091E10080FF17C037
:103690008091E20080FF13C08091E2008E7F8093D2
:1036A000E2008091E20080618093E2008091D80086
:1036B00080628093D80019BC85E080934804809193
:1036C000E10084FF2BC08091E20084FF27C080E1ED
:1036D00089BD82E189BD89B5982F917080FFFBCFAC
:1036E0008091D8008F7D8093D8008091E1008F7EFB
:1036F0008093E1008091E2008F7E8093E2008091D0
:10370000E20081608093E20080914904882309F4FB
:1037100047C084E080934804809148048091E10090
:1037200083FF27C08091E20083FF23C08091E100E6
:10373000877F8093E10082E08093480410924904DF
:103740008091E1008E7F8093E1008091E2008E7F86
:103750008093E2008091E20080618093E20042E089
:1037600060E080E00E94E7028091F0008860809332
:10377000F000FF91EF91BF91AF919F918F917F9159
:103780006F915F914F913F912F910F900FBE0F90CE
:103790001F90189519BC109248041092230474CFFE
:1037A0008091E30087FD93E090934804B5CF78942F
:1037B0001F921FB61F9211248F939F93AF93BF93B5
:1037C0008091520490915304A0915404B0915504F7
:1037D0000196A11DB11D8093520490935304A093B0
:1037E0005404B0935504BF91AF919F918F911F9056
:1037F0001FBE1F9018951F921FB61F9211248F9302
:103800009F93AF93BF9380911D04811113C080914A
:10381000520490915304A0915404B09155044196E0
:10382000A11DB11D8093520490935304A09354049E
:10383000B0935504BF91AF919F918F911F901FBE80
:103840001F901895CDB7DEB761970FB6F894DEBF1D
:103850000FBECDBF85B7806885BF85B7806885BF3F
:1038600084B7877F84BF0FB6F894A89580916000D5
:10387000886180936000109260000FBE80E891E044
:103880000FB6F89480936100909361000FBE8BE9AE
:1038900096E090935F0280935E020E944E020E9427
:1038A00019038091E20084608093E2007894809113
:1038B00048048823A1F01091E9001F709091EC005A
:1038C000892F817090FD80E8182B1092E90080917B
:1038D000E80083FD0E94E70E1F701093E90082E06C
:1038E00084BD93E095BD9DE797BD80936E0007E48E
:1038F00011E0D8018D918D018F3F11F00E949D063E
:10390000B1E00C341B07A9F70CE411E0F801819138
:103910008F018F3F11F00E949D06F1E00B351F07CC
:10392000A9F78AE0E6E1F3E0DF01282F1D922A954E
:10393000E9F7EAE0F3E0DF011D928A95E9F790E00C
:1039400080E00E94181F883E9E4F11F00E94C41212
:1039500082E090E00E94101F809320030E94550D8A
:1039600090931F0480931E040E94630DEFE1FEE418
:103970003197F1F700C000000E94630D809116039B
:1039800080FF08C06FEF7FEF90E080E00E944C1F47
:103990000E94D70383E090E00E94101F90E00E94F5
:1039A000CA0E10922C038FEF9FEF909346038093E3
:1039B0004503909348038093470390934A03809371
:1039C000490390934C0380934B0390934E03809351
:1039D0004D039093500380934F0390935203809331
:1039E0005103909354038093530390E080E00E942E
:1039F000181F883E9E4F21F00E94C4120E943A0D6B
:103A000046E050E06CE170E08AE594E00E94001F1F
:103A10001092590480915A048C7F11F40E943A0D3F
:103A200080E091E090931A04809319043324339436
:103A30008091480403E0F02E00E112E1853009F4A2
:103A400019C10E94630D81E293E09C878B87A6E1F8
:103A5000B3E0BE87AD87FC01219131918D919D919D
:103A600043E0EB32F40709F411C128173907A1F339
:103A70001BE5812E11E0912E712CAD85BE85ED9058
:103A8000FD90BE87AD87EB85FC8581919191FC8788
:103A9000EB878E159F0509F48BC09C012E253F25D1
:103AA000398B288B2401612CCC24C394D12C888998
:103AB00099898C219D21892B09F46CC086010E21E6
:103AC0001F216E827F8281E00115110509F480E0DB
:103AD00088870E94E8038160782F9A8789874E81C2
:103AE0005F8168858A850E94351A012B29F0D201F1
:103AF0008C918F3F09F003C1212C022D10E08091A1
:103B00002C03800F912F911D09976CF1E8E0AE2EE8
:103B1000B12CA01AB10AB801635D7C4FA5018DE2FA
:103B200093E00E945F1FB8016B5C7C4FA50185E3A9
:103B300093E00E945F1FA501440F551FB801660F57
:103B4000771F6B5B7C4F85E493E00E945F1FB80199
:103B5000635C7C4FA5018DE393E00E945F1F88E0CA
:103B6000821980932C0380912C0390E0EF85AE2F77
:103B7000B0E09D01220F331F2A553E4FAA0FBB1FF5
:103B8000BD0169557E4F41E0480F921508F4BBC056
:103B900080932C036394CC0CDD1CEFEF4E1A5E0A6D
:103BA000FFE06F1284CFEB85FC853297F182E082D3
:103BB00073942FE0820E911C35E073125ECF8FB7A5
:103BC000F8944091520450915304609154047091C0
:103BD00055048FBF7DC080914804843009F439C0FA
:103BE0000E94140A80915F0381110DC00E94BB05E1
:103BF00010920D0180915A04837080930C010E94F1
:103C0000F209F092120130925F0310921D0428E134
:103C100030E040E40FB6F894A895209360000FBE02
:103C20004093600083B7817F846083BF83B78160E6
:103C300083BF7894889583B78E7F83BF0FB6F8943F
:103C4000A895809160008861809360001092600068
:103C50000FBE80914704882369F00E94630DE6E15E
:103C6000F3E081919191892B09F063C053E0E03238
:103C7000F507B9F780914804853009F4ACCF0E946C
:103C8000D10E0E947F0410925F03DBCE2817390704
:103C900009F0EECE0E94E8038C018091140390910C
:103CA000150308171907A1F08FEF89838A831B82F8
:103CB0000E94E8038160782F9D838C8349815A811B
:103CC0006B818D810E94351A1093150300931403A4
:103CD0000E94140A0E947F0490912B03891709F413
:103CE000A7CE80932B038FB7F89440915204509144
:103CF000530460915404709155048FBF99CE8F87FF
:103D000022242394FACE90E0FC01E45DFC4FD9011B
:103D10005C915183DB015C915187BF85B18B880F2A
:103D2000991FFC01E45DFC4F128E118E91E0842FEF
:103D30002ACF09BD19BD09B400FEFDCF8091D8007E
:103D40008F7D8093D8008091E00082608093E000B6
:103D50008091E00081FDFCCF0E94D10E8BCFAA1B89
:103D6000BB1B51E107C0AA1FBB1FA617B70710F066
:103D7000A61BB70B881F991F5A95A9F78095909598
:103D8000BC01CD010895EE0FFF1F0590F491E02DC9
:103D900009942F923F924F925F926F927F928F92EF
:103DA0009F92AF92BF92CF92DF92EF92FF920F93CA
:103DB0001F93CF93DF93CDB7DEB7CA1BDB0B0FB6D4
:103DC000F894DEBF0FBECDBF09942A883988488891
:103DD0005F846E847D848C849B84AA84B984C88427
:103DE000DF80EE80FD800C811B81AA81B981CE0F1E
:103DF000D11D0FB6F894DEBF0FBECDBFED01089503
:103E0000DC01CB01FC01F999FECF06C0F2BDE1BD9A
:103E1000F89A319600B40D9241505040B8F7089589
:103E2000F999FECF92BD81BDF89A992780B5089582
:103E3000A8E1B0E042E050E00C94021FDC01A40FC6
:103E4000B51F4150504048F0CB01840F951F2E9173
:103E50000E942F1F41505040D0F70895262FF99906
:103E6000FECF92BD81BDF89A019700B4021639F0D9
:103E70001FBA20BD0FB6F894FA9AF99A0FBE0895AA
:103E80000396272F0E942F1F0E942E1F252F0E946E
:103E90002F1F242F0C942F1F0196272F0E942F1FB6
:103EA0000C942E1FFB01DC0104C08D910190801940
:103EB00021F441505040C8F7881B990B0895FB012D
:103EC000DC0102C001900D9241505040D8F7089596
:103ED000F894FFCFC60FEE0F8611EE0F861121105A
:103EE000421086113F114C11E215E2151B161B16EC
:103EF000BD16491649164916D7165F176E176E1765
:103F0000D403B209D303AD09A809D203FFFF00FF10
:103F1000000103C8FFB4818283E200E900EA00B532
:103F200000B600B700CD008301CC008A0192019455
:103F3000012102230224022502260227022A02B3BB
:103F400000B4006F007000973435363066F7F6F530
:103F5000F4F1F037909192939594963C3B3A39382E
:103F600037363534333231302F00212223242526B1
:103F70002728292A2B2C2D2E00201F1E1D1C1B1A22
:103F800019181716151400000405060708090A0B6E
:103F90000C0D0E13000000030201000F101112009F
:103FA0000000000000006040304010400040103031
:103FB00020303030403050306030743080309030BD
:103FC000A030B030A040B040D040E040D030D02051
:103FD000C020B020A020902080207420602050209D
:103FE00040203020202000200010201030104010F1
:103FF00050106010741080109010A010B010C010FD
:10400000D010E010E000C000B000A00090008000E0
:1040100074006000500040003000200010000000DC
:104020000404040404040404040404040404040450
:104030000404040404040404040404040404040440
:104040000404040404040404040404040404040430
:0E40500004040404040404040404040404002E
:00000001FF
